S00C00006D61696E2E7372656373
S11300000C943C000C9459000C9459000C94590025
S11300100C9459000C9459000C9459000C945900F8
S11300200C9459000C9459000C9459000C945900E8
S11300300C9459000C9459000C9459000C945900D8
S11300400C9459000C9459000C9459000C945900C8
S11300500C9459000C9459000C9459000C945900B8
S11300600C9459000C945900AF00B300B700BB00C6
S1130070BF00CA00C300C70011241FBECFEFD8E0E1
S1130080DEBFCDBF22E0A4E0B1E001C01D92A033E9
S1130090B207E1F711E0A0E0B1E0ECEDF6E102C057
S11300A005900D92A430B107D9F70E9434090C943D
S11300B06C0B0C940000CF92DF92EF92FF920F939F
S11300C01F93CF93DF936C017B010E941809E11405
S11300D0F104B1F0E6018701000F111FE00EF11EDB
S11300E086010E0D1F1D88810E94100989810E94BE
S11300F010098A810E9410092396C017D10799F725
S1130100DF91CF911F910F91FF90EF90DF90CF90EF
S11301100895EF920F9346175707A0F0FB01EE0FD7
S1130120FF1FE60FF71F3296E80FF91FDF01129742
S11301302C9311960C93E0826F5F7F4F3396461792
S11301405707A0F70F91EF900895482F50E04830DB
S1130150510500F5FA01EC5CFF4F0C94930A90E012
S113016020E030E017C090E020E03FEF13C090E0C3
S11301702FEF30E00FC09FEF20E030E00BC090E0A5
S11301802FEF3FEF07C09FEF20E03FEF03C09FEF4B
S11301902FEF3FEF632F722F892F08956F927F9275
S11301A08F92CF92DF92EF92DA01A61BB70B211147
S11301B029C09B01220F331FF901E60FF71FE80F37
S11301C0F91F608071808280AB2B81F09A01220F2D
S11301D0331F240F351F280F391FC380D480E580B7
S11301E0C192D192E192E217F307B9F7FA01EE0F47
S11301F0FF1F4E0F5F1FFC01E40FF51F6082718229
S1130200828226C0FA01EE0FFF1FE40FF51FE80FEC
S1130210F91F608071808280AB2B81F0DB01AA0F13
S1130220BB1FA60FB71FA80FB91F4291329122918D
S1130230238334834583EA17FB07B9F7FB01EE0FE9
S1130240FF1FE60FF71FE80FF91F60827182828299
S1130250EF90DF90CF908F907F906F9008952F92C2
S11302603F924F925F926F927F928F929F92AF9242
S1130270BF92CF92DF92EF92FF920F931F93CF938F
S1130280DF93CDB7DEB72C970FB6F894DEBF0FBE61
S1130290CDBF3BA1FA01E61BF70B2E1105C00C11D3
S11302A003C01D1509F4F7C1F22E5C834B837A83D6
S11302B069832C01313061F108F441C0323009F016
S11302C055C029A13AA1232B09F4E5C13A01660CD2
S11302D0771C640E751E640C751C1B01220C331CE8
S11302E09B01260E371E240C351CCF01969587954D
S11302F0280F391F3E832D832F5F3F4F38872F836D
S11303001C861B86B12CCF0101969A87898758C118
S113031029A13AA1232B09F4BEC16B807C80660C11
S1130320771C8B819C81680E791E640C751C1E825F
S11303301D821F019FEF291A390A912CD8C029A1C7
S11303403AA1232B09F4A7C169807A80660C771C33
S113035089819A81680E791E640C751C1E821D8227
S1130360B12C1F019FEF291A390A72C029A13AA1A1
S1130370232B09F490C1CF019695879529813A8161
S1130380280F391F3E832D83C901880F991F820FBF
S1130390931F3201680E791E2F5F3F4F38872F83DA
S11303A003961201280E391E1C861B86B12CCF0120
S11303B001969A8789876CC19B2CF3010083118372
S11303C0F2822B2D4B815C8169817A81C2010E946A
S11303D0CE00B101C2010E945B00AA2051F08B2D16
S11303E0EFE9FFE03197F1F700C000008F5F8A1159
S11303F0F7CF93949810E1CF9B2CF301C082D18264
S1130400E2822B2D4B815C8169817A81C2010E9439
S1130410CE00B101C2010E945B00AA2051F08B2DD5
S1130420EFE9FFE03197F1F700C000008F5F8A1118
S1130430F7CF93949810E1CF2D813E812F5F3F4FEA
S11304403E832D8389A19AA12817390709F423C172
S11304508110B2CFF1CFB12CF30100831183F2826A
S113046021E04B815C8169817A81C2010E94CE00C6
S1130470B101C2010E945B00AA2051F0892DEFE96D
S1130480FFE03197F1F700C000008F5F8A11F7CFCA
S1130490B394B810E1CFB12CF301C082D182E282CF
S11304A021E04B815C8169817A81C2010E94CE0086
S11304B0B101C2010E945B00AA2051F0892DEFE92D
S11304C0FFE03197F1F700C000008F5F8A11F7CF8A
S11304D0B394B810E1CF2D813E812F5F3F4F3E830F
S11304E02D8389A19AA12817390709F4D4C0811052
S11304F0B2CFF1CF9B2CF30100831183F282F1017F
S113050000831183F2822B2D4D815E8169817A8172
S1130510C2010E94CE0021E04B815C816F8178850D
S1130520C2010E94CE0069857A85C2010E945B00E7
S1130530AA2051F08B2DEFE9FFE03197F1F700C0CD
S113054000008F5F8A11F7CF93949810D4CF9B2C1F
S1130550F301C082D182E282F101C082D182E282BF
S11305602B2D4D815E8169817A81C2010E94CE006A
S113057021E04B815C816F817885C2010E94CE00AD
S113058069857A85C2010E945B00AA2051F08B2DF7
S1130590EFE9FFE03197F1F700C000008F5F8A11A7
S11305A0F7CF93949810D4CF2B853C852F5F3F4F82
S11305B03C872B8789A19AA12817390709F46BC0B6
S11305C0811098CFF1CF9B2CF30100831183F28229
S11305D0F10100831183F28221E04D815E81698102
S11305E07A81C2010E94CE002B2D4B815C816F81E8
S11305F07885C2010E94CE0069857A85C2010E9475
S11306005B00AA2051F08B2DEFE9FFE03197F1F761
S113061000C000008F5F8A11F7CF93949810D4CF55
S11306209B2CF301C082D182E282F101C082D1828B
S1130630E28221E04D815E8169817A81C2010E945A
S1130640CE002B2D4B815C816F817885C2010E9485
S1130650CE0069857A85C2010E945B00AA2051F010
S11306608B2DEFE9FFE03197F1F700C000008F5FB9
S11306708A11F7CF93949810D4CF2B853C852F5FA4
S11306803F4F3C872B8789A19AA12817390719F076
S1130690811099CFF2CF2C960FB6F894DEBF0FBE1F
S11306A0CDBFDF91CF911F910F91FF90EF90DF901D
S11306B0CF90BF90AF909F908F907F906F905F90FE
S11306C04F903F902F900895FC01DB019281129688
S11306D08C91129798130AC0918111968C9111975D
S11306E0981304C090818C91981769F1442369F19F
S11306F090E080812C91281718F48150808304C0E5
S1130700821710F48F5F8083818111962C91119749
S1130710281718F48150818304C0821710F48F5F66
S11307208183828112962C911297281718F4815094
S1130730828304C0821710F48F5F82839F5F9413B7
S1130740D8CF80E0089581E0089580E008952F9245
S11307503F924F925F926F927F928F929F92AF924D
S1130760BF92CF92DF92EF92FF920F931F93CF939A
S1130770DF93CDB7DEB762970FB6F894DEBF0FBE36
S1130780CDBF39A5FA01E61BF70B2E1105C00C11DC
S113079003C01D1509F475C2BE2CDD86CC862B87DB
S11307A01A8709871A012B018C0129852C838A85D4
S11307B08D839B859E83C982DA82EB82313049F036
S11307C070F0323089F42FA138A5232B09F008C129
S11307D058C28FA198A5892B09F086C052C22FA1B7
S11307E038A5232B39F44DC28FA198A5892B09F084
S11307F0A1C147C26B01CC0CDD1CC60ED71EC00EB6
S1130800D11E612C712C9F012F5F3F4F79019D8474
S11308108C819D81AE81F60180839183A28320E047
S1130820A101B201C8010E94CE00B701C8010E9413
S11308305B00AA2051F080E0EFE9FFE03197F1F787
S113084000C000008F5F8A11F7CF482DBE016F5F93
S11308507F4FCE0104960E9464038823C9F2FC856D
S1130860FC839D82BE82298529833A853A838B85C0
S11308708B838C819D81AE81F60180839183A283D9
S113088020E0A101B201C8010E94CE00B701C80155
S11308900E945B00AA2051F080E0EFE9FFE031976D
S11308A0F1F700C000008F5F8A11F7CF482DBE0119
S11308B06F5F7F4FCE0104960E9464038823C9F2C0
S11308C0F985FC832A852D833B853E838C8589832A
S11308D09A82BB829FEF691A790AEFA1F8A56E1676
S11308E07F0609F095CFCDC16A01CC0CDD1CC40E86
S11308F0D51EC00ED11E612C712C9F012F5F3F4F5E
S11309007901912C8C819D81AE81F6018083918344
S1130910A28321E0A101B201C8010E94CE00B70167
S1130920C8010E945B00AA2051F0892DEFE9FFE085
S11309303197F1F700C000008F5F8A11F7CF482D7F
S1130940BE016F5F7F4FCE0104960E94640388232B
S1130950C9F2FC85FC832D852D83BE8239853983BC
S11309608A858A839B859B838C819D81AE81F601D8
S113097080839183A28321E0A101B201C8010E9476
S1130980CE00B701C8010E945B00AA2051F0892D56
S1130990EFE9FFE03197F1F700C000008F5F8A11A3
S11309A0F7CF482DBE016F5F7F4FCE0104960E94A2
S11309B064038823C9F2F985FC832A852D833B854A
S11309C03E838C8589839D859A83BB82EFEF6E1A63
S11309D07E0A2FA138A56216730609F093CF51C180
S11309E06A01CC0CDD1CC40ED51EC00ED11E3B0109
S11309F0660C771C660E771E600E711E7F01F694DE
S1130A00E794E60EF71EC701019698878F831F8629
S1130A101E869F012F5F3F4F3A8B298BB88A9A2CF1
S1130A2059018C819D81AE81F60180839183A283DB
S1130A30F30180839183A28320E0A701B201C8015E
S1130A400E94CE0021E0A1016F817885C8010E9437
S1130A50CE00B501C8010E945B00992051F080E0EE
S1130A60EFE9FFE03197F1F700C000008F5F8911D3
S1130A70F7CF482DBE016F5F7F4FCE0104960E94D1
S1130A806403882371F2FC85FC832D852D833889CA
S1130A903E83898589839A859A83EB85EB838C8150
S1130AA09D81AE81F60180839183A283F3018083CB
S1130AB09183A28320E0A701B201C8010E94CE0065
S1130AC021E0A1016F817885C8010E94CE00B501A3
S1130AD0C8010E945B00992051F080E0EFE9FFE03B
S1130AE03197F1F700C000008F5F8911F7CF482DCF
S1130AF0BE016F5F7F4FCE0104960E94640388237A
S1130B0071F2F985FC832A852D833B853E838C8590
S1130B1089839D859A83E889EB832E853F852F5FA2
S1130B203F4F3F872E878FA198A52817390709F0D3
S1130B3078CFA7C07F01F694E794E60EF71EC701AD
S1130B40880F991F8E0D9F1D6801C80ED91E97012D
S1130B502F5F3F4F38872F8303963801680E791E25
S1130B601F861E86CF0101969A8B898BB88A9A2C90
S1130B705C018C819D81AE81F60180839183A28387
S1130B80F30180839183A28321E0A701B201C8010C
S1130B900E94CE0020E0A1016F817885C8010E94E7
S1130BA0CE00B501C8010E945B00992051F080E09D
S1130BB0EFE9FFE03197F1F700C000008F5F891182
S1130BC0F7CF482DBE016F5F7F4FCE0104960E9480
S1130BD06403882371F2FC85FC832D852D83388979
S1130BE03E83898589839A859A83EB85EB838C81FF
S1130BF09D81AE81F60180839183A283F30180837A
S1130C009183A28321E0A701B201C8010E94CE0012
S1130C1020E0A1016F817885C8010E94CE00B50152
S1130C20C8010E945B00992051F080E0EFE9FFE0E9
S1130C303197F1F700C000008F5F8911F7CF482D7D
S1130C40BE016F5F7F4FCE0104960E946403882328
S1130C5071F2F985FC832A852D833B853E838C853F
S1130C6089839D859A83E889EB832E853F852F5F51
S1130C703F4F3F872E878FA198A52817390709F082
S1130C8078CF62960FB6F894DEBF0FBECDBFDF916A
S1130C90CF911F910F91FF90EF90DF90CF90BF9075
S1130CA0AF909F908F907F906F905F904F903F9008
S1130CB02F9008952F923F924F925F926F927F925E
S1130CC08F929F92AF92BF92CF92DF92EF92FF9258
S1130CD00F931F93CF93DF93CDB7DEB72C970FB647
S1130CE0F894DEBF0FBECDBF5C013B012A01122F79
S1130CF0FC86EB867A01E61AF70A0E94F90A67E095
S1130D0070E00E947F0A8F5F0E94A5006C837D8340
S1130D108E830F2EF7E08F2E912CF02D0E94F90A6E
S1130D20B4010E947F0A8F5F0E94A50069837A83C1
S1130D308B839B818E81981308C09A818D8198132F
S1130D4004C099818C81981749F321E0C21659F0A7
S1130D50C21678F032E0C31211C08B859C85892BB2
S1130D6009F0B5C08CC1EB85FC85EF2B09F05FC0A1
S1130D7086C12B853C85232B39F481C18B859C85C9
S1130D80892B09F011C17BC16301CC0CDD1CC60C9D
S1130D90D71CCA0CDB1C812C912CF70131967F01E6
S1130DA00F2EF7E02F2E312CF02D8C819D81AE81FA
S1130DB0F60180839183A28320E0A201B301C501DF
S1130DC00E94CE00B701C5010E945B00112351F0BF
S1130DD080E0EFE9FFE03197F1F700C000008F5F9A
S1130DE08113F7CF402FBE016F5F7F4FCE01049672
S1130DF00E9464038823C9F289819A81AB818C8320
S1130E009D83AE830E94F90AB1010E947F0A8F5F1D
S1130E100E94A50069837A838B83FFEF8F1A9F0A50
S1130E202B853C858216930609F0BFCF28C1620149
S1130E30CC0CDD1CC40CD51CCA0CDB1C812C912CE5
S1130E40C70101967C01312C8C819D81AE81F60114
S1130E5080839183A28321E0A201B301C5010E9492
S1130E60CE00B701C5010E945B00112351F0832D10
S1130E70EFE9FFE03197F1F700C000008F5F8113C5
S1130E80F7CF402FBE016F5F7F4FCE0104960E94C3
S1130E9064038823C9F289819A81AB818C839D8301
S1130EA0AE830E94F90A67E070E00E947F0A8F5FB8
S1130EB00E94A50069837A838B83FFEF8F1A9F0AB0
S1130EC02B853C858216930609F0BECFD8C06201FB
S1130ED0CC0CDD1CC40CD51CCA0CDB1C4301880CD7
S1130EE0991C860C971C8A0C9B1C1701369427941A
S1130EF0260C371CC101019698878F831A861986A0
S1130F00F70131967F018C819D81AE81F60180834A
S1130F109183A283F40180839183A28320E0A101C1
S1130F20B301C5010E94CE0021E0A2016F81788542
S1130F30C5010E94CE00B701C5010E945B001123C8
S1130F4051F080E0EFE9FFE03197F1F700C00000D5
S1130F508F5F8113F7CF402FBE016F5F7F4FCE01AC
S1130F6004960E946403882371F289819A81AB817B
S1130F708C839D83AE830E94F90A67E070E00E942F
S1130F807F0A8F5F0E94A50069837A838B832985FA
S1130F903A852F5F3F4F3A8729878B859C85281791
S1130FA0390709F0B0CF6BC0170136942794260C8B
S1130FB0371CC101880F991F820D931D6501C80E4E
S1130FC0D91EF1013196F887EF8303964501880E07
S1130FD0991E1A86198697012F5F3F4F79018C81DC
S1130FE09D81AE81F60180839183A283F401808385
S1130FF09183A28321E0A101B301C5010E94CE0027
S113100020E0A2016F817885C5010E94CE00B7015E
S1131010C5010E945B00112351F080E0EFE9FFE07D
S11310203197F1F700C000008F5F8113F7CF402F95
S1131030BE016F5F7F4FCE0104960E946403882334
S113104071F289819A81AB818C839D83AE830E94E6
S1131050F90A67E070E00E947F0A8F5F0E94A50092
S113106069837A838B8329853A852F5F3F4F3A873B
S113107029878B859C852817390709F0B0CF2C96D2
S11310800FB6F894DEBF0FBECDBFDF91CF911F9195
S11310900F91FF90EF90DF90CF90BF90AF909F9013
S11310A08F907F906F905F904F903F902F90089516
S11310B02F923F924F925F926F927F928F929F9264
S11310C0AF92BF92CF92DF92EF92FF920F931F9352
S11310D0CF93DF9300D000D000D0CDB7DEB70C8320
S11310E01D832E83FB01EE0FFF1FE60FF71FE80F92
S11310F0F91F60807180828069827A828B823B8151
S11311002E813217F1F0461B570B2A012FEF421A9A
S1131110520A19F0D42CF52C02C0D12CF12C3C012C
S11311206F5F7F4F460F571F4A01880C991C840E2E
S1131130951E880E991E2E2E3F2E0E2D10E0E12CAA
S113114009C039812C813213DECF3A812D813213CB
S1131150DACF40C04114510459F0E22DF32D8981B6
S11311609A81AB8181939193A193E815F905B9F71D
S11311706D2D7F2DC3010E945B000115110561F0E7
S11311808E2D90E0EFE9FFE03197F1F700C0000009
S1131190019680179107B1F74C2DBE016C5F7F4F0C
S11311A0CE0101960E9464038823A1F26D2D7F2D48
S11311B0C3010E945B00A114B10461F080E090E0DF
S11311C0EFE9FFE03197F1F700C0000001968A15BE
S11311D09B05B1F726960FB6F894DEBF0FBECDBFC0
S11311E0DF91CF911F910F91FF90EF90DF90CF90FF
S11311F0BF90AF909F908F907F906F905F904F9033
S11312003F902F900895579A5F9A9093C5008093CA
S1131210C40088E08093C1008EE08093C2000895EA
S11312208093C600E0ECF0E0808185FFFDCF089557
S1131230E1ECF0E08081877F8083519A59988FEDAB
S113124091E00197F1F700C00000599A90E49A9553
S1131250F1F78081886080831092C600E0ECF0E0B2
S1131260808185FFFDCF089583E090E00E9403090B
S1131270EE24EA940FEF2FEF43E650E060E070E0D5
S113128084E091E00E9489000F2EF7E06F2E712C0C
S1131290F02DD4E60F2EF6E04F2E512CF02D0F2E0C
S11312A0F7E09F2EF02DCC24C3940F2EFEE1EF2EF9
S11312B0F12CF02D0FE02EE143E650E060E070E009
S11312C084E091E00E945A066894CC24C1F80AE0B4
S11312D02EE143E650E060E070E084E091E00E949B
S11312E05A06C12C2EE143E650E060E070E084E051
S11312F091E00E945A060F2EF3E0CF2EF02D2EE13E
S113130043E650E060E070E084E091E00E945A0619
S11313100E94F90AB3010E947F0A8F5F0E94A50010
S11313206B01E82E0E94F90AB3010E947F0A8F5FC5
S11313300E94A5008B01282F1F921F92DF938824FF
S113134083940F2EF0E5AF2EF02D43E650E060E0DD
S113135070E084E091E00E942F010E94F90AB30139
S11313600E947F0A8F5F0E94A5006B01E82E0E94F5
S1131370F90AB3010E947F0A8F5F0E94A500FF242F
S1131380F394FF921F92DF938B01282F43E650E0E2
S113139060E070E084E091E00E942F010E94F90A6D
S11313A0B2010E947F0A8F5F0E94A5006B01E82EA4
S11313B00E94F90AB3010E947F0A8F5F0E94A50070
S11313C01F921F92CAE0CF930F2EFFE08F2EF02DB5
S11313D00F2EF4E1AF2EF02D8B01282F43E650E0C1
S11313E060E070E084E091E00E94A7030E94F90AA3
S11313F0B3010E947F0A8F5F0E94A5006B01E82E53
S11314000E94F90AB3010E947F0A8F5F0E94A5001F
S113141093E09F931F92CF938B01282F43E650E0D4
S113142060E070E084E091E00E94A7030E94F90A62
S1131430B3010E947F0A8F5F0E94A5006B01E82E12
S11314400E94F90AB3010E947F0A8F5F0E94A500DF
S1131450FF921F92CF938B01282F43E650E060E068
S113146070E084E091E00E94A7030E94F90AB301AE
S11314700E947F0A8F5F0E94A5006B01E82E0E94E4
S1131480F90AB3010E947F0A8F5F0E94A50092E0CF
S11314909F931F92CF938B01282F43E650E060E087
S11314A070E084E091E00E94A7038DB79EB7429656
S11314B00FB6F8949EBF0FBE8DBFC92D0E94F90AC6
S11314C0B3010E947F0A8F5F0E94A5000F2EF0EDEA
S11314D0AF2EF7E0BF2EF02DCC24C3940F2EF3E0F3
S11314E0EF2EF02D8B01282F43E650E060E070E0F2
S11314F084E091E00E945808C15001F7D4CE97FBD4
S1131500072E16F4009407D077FD09D00E94990A9B
S113151007FC05D03EF4909581959F4F08957095F2
S113152061957F4F0895EE0FFF1F0590F491E02D14
S11315300994AA1BBB1B51E107C0AA1FBB1FA61716
S1131540B70710F0A61BB70B881F991F5A95A9F768
S113155080959095BC01CD0108958F929F92AF9292
S1131560BF92CF92DF92EF92FF92CF93DF93EC0181
S1131570688179818A819B81611571058105910555
S113158021F464E279ED8BE597E02DE133EF41E05E
S113159050E00E94090B49015A019B01AC01A7EAE2
S11315A0B1E40E94280B6B017C01ACEEB4EFA50101
S11315B094010E94360BDC01CB018C0D9D1DAE1DE8
S11315C0BF1DB7FF03C00197A109B0488883998361
S11315D0AA83BB839F77DF91CF91FF90EF90DF9039
S11315E0CF90BF90AF909F908F9008950E94AD0AC6
S11315F0089580E091E00E94AD0A0895A0E0B0E073
S11316008093000190930101A0930201B093030120
S11316100895052E97FB1EF400940E94200B57FD9D
S113162007D00E943B0B07FC03D04EF40C94200B14
S113163050954095309521953F4F4F4F5F4F0895FA
S113164090958095709561957F4F8F4F9F4F08952A
S11316500E945D0BA59F900DB49F900DA49F800DDB
S1131660911D11240895B7FF0C94280B0E94280B98
S1131670821B930B0895A1E21A2EAA1BBB1BFD012A
S11316800DC0AA1FBB1FEE1FFF1FA217B307E4075D
S1131690F50720F0A21BB30BE40BF50B661F771FB5
S11316A0881F991F1A9469F7609570958095909595
S11316B09B01AC01BD01CF010895A29FB001B39F6E
S11316C0C001A39F700D811D1124911DB29F700D47
S10F16D0811D1124911D0895F894FFCF92
S10716DC0100000005
S9030000FC
