:100000000C9448000C945A000C945A000C9420054F
:100010000C946B020C945A000C945A000C94150228
:100020000C945A000C945A000C945A000C945A00E8
:100030000C945A000C945A000C94D5040C945A0059
:100040000C945A000C945A000C945A000C945A00C8
:100050000C945A000C945A000C945A000C945A00B8
:100060000C945A000C945A006F04790483048D0494
:100070009704A104AB04B504BF04C904C0F9A4B03B
:10008000999282F88090FF8883C6A1868EC28900EB
:1000900011241FBECFEFD8E0DEBFCDBF21E0A0E02E
:1000A000B1E001C01D92A333B207E1F70E94F90449
:1000B0000C94DE070C94000084EF91E090930E0105
:1000C00080930D011092060180E197E2A0E0B0E07C
:1000D0008093090190930A01A0930B01B0930C0146
:1000E000109208011092070181E08093110180E5D0
:1000F00093ECA0E0B0E08093200190932101A093C5
:100100002201B09323010895811102C02C9A089511
:100110002C980895811524E0920744F42FEF33E0E2
:10012000A901481B590BCA010E94120508954F925C
:100130005F926F927F92AF92BF92CF92DF92EF92D7
:10014000FF920F931F93CF93DF93EC015B01FA01B2
:100150008091090190910A01A0910B01B0910C01CD
:100160004091200150912101609122017091230161
:10017000841B950BA60BB70B2C013D013AF44424CC
:1001800055243201481A590A6A0A7B0A730162012E
:10019000DE01A30192010E94CB0761157440810525
:1001A000910540F4C49D8001C59D100DD49D100D96
:1001B000112402C00FEF13E020911A0130911B01AE
:1001C000E29FC001E39F900DF29F900D11248115D5
:1001D000944060F480911A0190911B01E89FE00126
:1001E000E99FD00DF89FD00D112402C0CFEFD3E0CE
:1001F000C11484E0D806E104F10460F0109200011B
:10020000109201011092020110920301C12CD12C15
:10021000760156C0B501882777FD8095982F0E94FA
:100220009F062B013C01C701B6010E949D069B0160
:10023000AC01C301B2010E942F0720E030E04AE781
:1002400053E40E9409066B017C012091000130916A
:10025000010140910201509103010E94A50520E097
:1002600030EC4FE754E40E942B0718166CF480E042
:1002700090E0A8E4B2E48093000190930101A09380
:100280000201B093030114C00F2EF0E0AF2EF1E095
:10029000BF2EF02DF5012081318142815381C701AC
:1002A000B6010E94A505F501608371838283938363
:1002B000C0900001D0900101E0900201F090030194
:1002C000B80180E090E00E949D06A70196010E947F
:1002D000A5056B017C01BE0180E090E00E949D06B7
:1002E0009B01AC01C701B6010E94A5056B017C0111
:1002F00020E030EC4FE754E40E942B07181634F04E
:10030000C701B6010E947106AB0102C04FEF53E076
:1003100000912001109121012091220130912301AF
:100320008091090190910A01A0910B01B0910C01FB
:1003300080179107A207B30738F4CA010E948A0008
:1003400080E00E9484002CC00091200110912101C6
:1003500020912201309123018091090190910A019D
:10036000A0910B01B0910C01081719072A073B0750
:1003700038F4CA010E948A0081E00E94840010C003
:1003800080E090E0A8E4B2E4809300019093010142
:10039000A0930201B093030180E090E00E948A00E4
:1003A000DF91CF911F910F91FF90EF90DF90CF9051
:1003B000BF90AF907F906F905F904F9008953C9862
:1003C0003D98449A459AE8E6F0E080818260808317
:1003D000ECE6F0E0808180638083249A2C9A63E0CD
:1003E00082E00E94FD0482E08093B00089EF809358
:1003F000B300E0E7F0E0808182608083E1EBF0E031
:100400008081856080830E943A0360E070E080E034
:1004100090E00E94E8030E945C0081E00E9484005A
:1004200084EF91E00E948A0008951F920F920FB608
:100430000F9211242F933F934F935F936F937F936A
:100440008F939F93AF93BF93EF93FF93809110018E
:1004500081112BC08091110180931001A6E1B1E0C0
:100460008D919C911197EAE1F1E09183808311963F
:100470001C921E9280819181A8E1B1E02D913C9166
:100480001197821B930B9093150180931401808127
:10049000918111969C938E9344E150E063E070E06B
:1004A00087E090E00E94970005C0E0E1F1E08081E4
:1004B00081508083FF91EF91BF91AF919F918F9178
:1004C0007F916F915F914F913F912F910F900FBE50
:1004D0000F901F9018951F920F920FB60F92112434
:1004E0002F938F939F93AF93BF93EF93FF9386B117
:1004F00082958170359982608130B1F028F0823028
:1005000011F1833081F13DC090911201913019F4C5
:100510001092130136C090911201923009F07FC001
:1005200091E0909313012DC090911201933019F432
:100530001092130126C090911201911170C091E0A8
:10054000909313011EC090911201911103C010925B
:10055000130117C090911201933009F060C091E02F
:10056000909313010EC090911201923019F41092E1
:10057000130107C090911201913009F050C090937F
:10058000130180931201E6E1F1E0808191810196EF
:100590009183808380911301882311F18091200140
:1005A00090912101A0912201B091230181159842DF
:1005B000AB46BE4E20F082E080930F0130C081E058
:1005C00080930F01E0E2F1E080819181A281B3810B
:1005D0000196A11DB11D80839183A283B3831FC0A7
:1005E0008091200190912101A0912201B0912301DD
:1005F000892B8A2B8B2B19F410920F0110C081E0EC
:1006000080930F01E0E2F1E080819181A281B381CA
:100610000197A109B10980839183A283B383FF91DC
:10062000EF91BF91AF919F918F912F910F900FBE3E
:100630000F901F901895399A389A3A9A409A419893
:100640004298089527E030E090E0AC01022E02C00D
:10065000559547950A94E2F740FF02C0409A01C0C1
:100660004098419A41982150310978F70895429A6B
:100670004298089582E084BD89EF87BDEEE6F0E000
:1006800080818260808385B5836085BD0E941B0365
:100690000895CF93DF93AC01FB01803127E29207ED
:1006A00008F08BC09C01ADECBCEC0E94BC07EC01D7
:1006B000D695C795D695C795D695C7959E01220F15
:1006C000331FCE01880F991F880F991F880F991F1C
:1006D000820F931F9A01281B390B23839E010E94CE
:1006E000BC079695879596958795969587959C01D5
:1006F000220F331F880F991F880F991F880F991F8A
:10070000820F931FC81BD90BC2839A013695279578
:1007100036952795ABE7B4E10E94BC07EC01D6956E
:10072000C7959E01ADECBCEC0E94BC0796958795E1
:1007300096958795969587959C01220F331F880F74
:10074000991F880F991F880F991F820F931FC81B2D
:10075000D90BC1839A0136952795369527953695FD
:100760002795A5ECB0E20E94BC07AC0152954295DA
:100770004F7045275F7045279A01ADECBCEC0E9495
:10078000BC079695879596958795969587959C0134
:10079000220F331F880F991F880F991F880F991FE9
:1007A000820F931F481B590B408307C09081911102
:1007B0000CC021938150D1F708C08081811105C000
:1007C0008AE0819383E02AE0F1CFDF91CF91089511
:1007D0000F931F93CF93DF9300D000D0CDB7DEB738
:1007E0008B01803127E2920708F5BE016F5F7F4FD2
:1007F0000E944903E981F0E0E458FF4FE491E0935F
:100800002401EA81F0E0E458FF4FE491E0932501F0
:10081000EB81F0E0E458FF4FE491E0932601EC8196
:10082000F0E0E458FF4FE491E0932701003187E2C4
:10083000180710F5BE016F5F7F4FC8010E94490382
:10084000E981F0E0E458FF4FE491E0932801EA8168
:10085000F0E0E458FF4FE491E0932901EB81F0E0F0
:10086000E458FF4FE491E0932A01EC81F0E0E45872
:10087000FF4FE491E0932B010F900F900F900F909A
:10088000DF91CF911F910F9108951F93CF93DF9325
:10089000162FC1E0D0E09E0102C0220F331F8A95BF
:1008A000E2F7E901C095D0958D2F0E9422038C2F8D
:1008B0000E942203812F0E9422030E943703DF91AE
:1008C000CF911F91089580912E0190E08A3091057B
:1008D00008F068C0FC01EC5CFF4F0C94B607609117
:1008E000250170E080E00E94450481E080932E01A4
:1008F00008956091260170E081E00E94450482E045
:1009000080932E0108956091270170E082E00E949B
:10091000450483E080932E0108956091290170E0E1
:1009200083E00E94450484E080932E010895609145
:100930002A0170E084E00E94450485E080932E0146
:10094000089560912B0170E085E00E94450486E0E7
:1009500080932E0108956091240170E086E00E944A
:10096000450487E080932E0108956091280170E08E
:1009700087E00E94450488E080932E0108956091ED
:100980002C0170E088E00E94450489E080932E01EC
:10099000089560912D0170E089E00E944504109255
:1009A0002E01089510922E0108951F920F920FB6F6
:1009B0000F9211242F933F934F935F936F937F93E5
:1009C0008F939F93AF93BF93EF93FF930E94630422
:1009D000FF91EF91BF91AF919F918F917F916F9117
:1009E0005F914F913F912F910F900FBE0F901F90ED
:1009F00018950E94DF017894FFCF94B1966094B966
:100A0000606A60938000809381001092850010924C
:100A10008400109289001092880010928B0010922E
:100A20008A00089590938B0080938A000895E8E6E9
:100A3000F0E080818E7F808381E080933201089591
:100A40001F920F920FB60F9211242F933F934F9343
:100A50005F936F937F938F939F93AF93BF93EF9326
:100A6000FF93189960C0189B56C05DC018995BC071
:100A7000EFE1F3E03197F1F700C000008150B1F7EA
:100A8000189951C02CE080E090E0189BFECFEFE178
:100A9000FDE03197F1F700C00000189B12C01899D3
:100AA000FECF189BFECFEFE1FDE03197F1F700C0DC
:100AB0000000189B38C0880F991F81601899FECFDD
:100AC00012C0189BFECFEFE1FDE03197F1F700C0B7
:100AD0000000189903C0880F991F05C0880F991F3F
:100AE00081601899FECF215081F62091310130E0CC
:100AF000AC01529542954F7045275F7045274217CC
:100B0000530789F48F709927009769F0809330011B
:100B10000E94170508C08FE193E00197F1F700C02C
:100B2000000081E3A3CFFF91EF91BF91AF919F911F
:100B30008F917F916F915F914F913F912F910F9086
:100B40000FBE0F901F9018955058BB27AA270ED0A4
:100B500048C139D130F03ED120F031F49F3F11F43B
:100B60001EF42EC10EF4E095E7FB24C1E92F4AD113
:100B700080F3BA17620773078407950718F071F4BA
:100B80009EF562C10EF4E0950B2EBA2FA02D0B013D
:100B9000B90190010C01CA01A0011124FF27591BC2
:100BA00099F0593F50F4503E68F11A16F040A22FC8
:100BB000232F342F4427585FF3CF46953795279539
:100BC000A795F0405395C9F77EF41F16BA0B620B38
:100BD000730B840BBAF09150A1F0FF0FBB1F661F7F
:100BE000771F881FC2F70EC0BA0F621F731F841FC2
:100BF00048F4879577956795B795F7959E3F08F0E8
:100C0000B3CF9395880F08F09927EE0F97958795A6
:100C100008950CD0E6C0DED040F0D5D030F021F4FD
:100C20005F3F19F0C7C0511110C1CAC0EBD098F393
:100C30009923C9F35523B1F3951B550BBB27AA275D
:100C400062177307840738F09F5F5F4F220F331FCF
:100C5000441FAA1FA9F333D00E2E3AF0E0E830D09B
:100C600091505040E695001CCAF729D0FE2F27D09E
:100C7000660F771F881FBB1F261737074807AB076C
:100C8000B0E809F0BB0B802DBF01FF2793585F4FE1
:100C90002AF09E3F510568F08DC0D7C05F3FECF34E
:100CA000983EDCF3869577956795B795F7959F5FA6
:100CB000C9F7880F911D9695879597F90895E1E0FA
:100CC000660F771F881FBB1F621773078407BA0759
:100CD00020F0621B730B840BBA0BEE1F88F7E095B4
:100CE000089598D088F09F5790F0B92F9927B75161
:100CF000A0F0D1F0660F771F881F991F1AF0BA95E0
:100D0000C9F712C0B13081F09FD0B1E008959CC006
:100D1000672F782F8827B85F39F0B93FCCF38695D5
:100D200077956795B395D9F73EF490958095709532
:100D300061957F4F8F4F9F4F0895E89409C097FBAF
:100D40003EF490958095709561957F4F8F4F9F4FA2
:100D50009923A9F0F92F96E9BB279395F6958795E6
:100D600077956795B795F111F8CFFAF4BB0F11F4A9
:100D700060FF1BC06F5F7F4F8F4F9F4F16C0882350
:100D800011F096E911C0772321F09EE8872F762F86
:100D900005C0662371F096E8862F70E060E02AF0C7
:100DA0009A95660F771F881FDAF7880F96958795B3
:100DB00097F9089597F99F6780E870E060E00895DB
:100DC0009FEF80EC089500240A9416161706180663
:100DD0000906089500240A9412161306140605063F
:100DE0000895092E0394000C11F4882352F0BB0FD0
:100DF00040F4BF2B11F460FF04C06F5F7F4F8F4F33
:100E00009F4F089557FD9058440F551F59F05F3F6D
:100E100071F04795880F97FB991F61F09F3F79F01C
:100E200087950895121613061406551FF2CF46959E
:100E3000F1DF08C0161617061806991FF1CF869520
:100E40007105610508940895E894BB276627772704
:100E5000CB0197F9089566D008F48FEF08950BD071
:100E6000C0CFB1DF28F0B6DF18F0952309F0A2CF8C
:100E7000A7CF1124EACFC6DFA0F3959FD1F3950F3A
:100E800050E0551F629FF001729FBB27F00DB11D0E
:100E9000639FAA27F00DB11DAA1F649F6627B00D9E
:100EA000A11D661F829F2227B00DA11D621F739F87
:100EB000B00DA11D621F839FA00D611D221F749F95
:100EC0003327A00D611D231F849F600D211D822FDC
:100ED000762F6A2F11249F5750408AF0E1F0882323
:100EE0004AF0EE0FFF1FBB1F661F771F881F915030
:100EF0005040A9F79E3F510570F05CCFA6CF5F3FF1
:100F0000ECF3983EDCF3869577956795B795F79562
:100F1000E7959F5FC1F7FE2B880F911D96958795EA
:100F200097F90895990F0008550FAA0BE0E8FEEF16
:100F300016161706E807F907C0F012161306E4079D
:100F4000F50798F0621B730B840B950B39F40A2696
:100F500061F0232B242B252B21F408950A2609F474
:100F6000A140A6958FEF811D811D0895EE0FFF1FF3
:100F70000590F491E02D0994A29FB001B39FC001A8
:100F8000A39F700D811D1124911DB29F700D811DB5
:100F90001124911D0895B7FF0C94D3070E94D30725
:100FA000821B930B08950E94BC07A59F900DB49FD0
:100FB000900DA49F800D911D11240895F894FFCFEA
:00000001FF
