:100000000C9444000C9456000C9456000C9456002A
:100010000C9456000C9456000C9456000C94560008
:100020000C9456000C9456000C9456000C945600F8
:100030000C9456000C9456000C9456000C945600E8
:100040000C9456000C9456000C9456000C945600D8
:100050000C9456000C94DC000C9456000C94560042
:100060000C9456000C945600B100B600BB00C000C2
:10007000C500CA00CF00D400FA000B011C012D01FD
:100080003E014F016001710111241FBECFEFD8E086
:10009000DEBFCDBF21E0A0E0B1E001C01D92A431E0
:1000A000B207E1F70E9492010C94FB010C9400004E
:1000B000882351F0109202014093000180930301C4
:1000C00080937E0060937A000895809103018823D5
:1000D000F1F1809102018830B0F580910301209107
:1000E000020190E002C0959587952A95E2F780FF7E
:1000F00020C00AC08C91208190E002C09595879520
:100100002A95E2F780FF19C080910001E2E0F1E05A
:10011000208130E4839FC0011124822B80937C00D6
:10012000AAE7B0E08C91886D8C9380818F5F80838B
:100130000895E2E0F1E0A3E0B1E080818F5F808389
:1001400080818830B8F2109202010E946500089503
:1001500090E08830910568F5FC01EC5CFF4F0C9451
:10016000F5018091040190910501089580910601A7
:1001700090910701089580910801909109010895D7
:1001800080910A0190910B01089580910C0190914A
:100190000D01089580910E0190910F0108958091B5
:1001A0001001909111010895809112019091130115
:1001B000089580E090E008951F920F920FB60F927D
:1001C00011242F933F934F935F936F937F938F935C
:1001D0009F93AF93BF93EF93FF938091020190E0C1
:1001E00001978830910508F08CC0FC01E45CFF4F5A
:1001F0000C94F5018091780090E0E4E0F1E09183C7
:1002000080838081918120917900922B91838083DA
:100210000E94650076C08091780090E0E6E0F1E011
:10022000918380838081918120917900922B9183A9
:1002300080830E94650065C08091780090E0E8E0CE
:10024000F1E0918380838081918120917900922BCC
:10025000918380830E94650054C08091780090E073
:10026000EAE0F1E09183808380819181209179009F
:10027000922B918380830E94650043C08091780017
:1002800090E0ECE0F1E09183808380819181209186
:100290007900922B918380830E94650032C0809107
:1002A000780090E0EEE0F1E091838083808191819D
:1002B00020917900922B918380830E94650021C058
:1002C0008091780090E0E0E1F1E09183808380818B
:1002D000918120917900922B918380830E94650007
:1002E00010C08091780090E0E2E1F1E0918380839A
:1002F0008081918120917900922B918380830E944B
:100300006500FF91EF91BF91AF919F918F917F9188
:100310006F915F914F913F912F910F900FBE0F9072
:100320001F901895549A83E090E00E94E50141E007
:1003300063E081E00E94580082E00E94D40180E0E6
:100340000E94E2010E9465007894C0E180E00E9472
:10035000A8008B32924028F05C9A84E10E94E2016E
:10036000F5CF80E00E94A8008E3F914058F080E0D9
:100370000E94A8008D31924028F45C9884E60E9487
:10038000E201E4CF80E00E94A8008E3F914028F473
:100390005C9884E10E94E201D9CF8BB18C278BB9A4
:1003A0008FEF0E94E201D2CF239A539A91EA909361
:1003B000B0008093B1001092B2001092B30010927E
:1003C000B40008958093B40008952AB122682AB930
:1003D0005098589A9093C5008093C40088E1809308
:1003E000C1008EE08093C2000895EE0FFF1F0590BC
:0A03F000F491E02D0994F894FFCF7A
:00000001FF
