S00C00006D61696E2E7372656373
S11300000C9434000C9451000C9451000C94510045
S11300100C9451000C9451000C9451000C94510018
S11300200C9451000C9451000C9451000C94510008
S11300300C9451000C9451000C9451000C945100F8
S11300400C949F030C9451000C9451000C941806CA
S11300500C9451000C9451000C9451000C945100D8
S11300600C9451000C94510011241FBECFEFD8E022
S1130070DEBFCDBF27E0A0E0B1E001C01D92A035F6
S1130080B207E1F711E0A0E0B1E0EEE5FDE002C067
S113009005900D92A030B107D9F70E944B060C943D
S11300A0AD060C940000CF93DF93AFE2B1E0EBE335
S11300B0F1E04FEC56E063E324E630E08AE09FEFA2
S11300C0ED01219768831C9212961C921E9211973F
S11300D014963C932E931397EF01279788831796D2
S11300E03C932E9316972396888321969883219682
S11300F018822196188210821F963F96A417B5077E
S1130100F9F610920E01DF91CF91089581E080936A
S11301100E01089510920E01089590930C0180939E
S11301200B0170930A01609309010895CF92DF9245
S1130130FF920F931F93CF93DF93603608F0D7C0DD
S1130140A82FB0E070E06A1B7B0B6F5F7F4F161621
S113015017060CF0C5C040E050E090E08FE008E1E5
S113016010E00F2EF2E3CF2ED12CF02D0F2EF3E35F
S1130170FF2EF02D849FF001859FF00D1124E35D87
S1130180FE4F268530E0359527953595279535958D
S11301902795359527952230310509F45CC03CF448
S11301A02115310561F021303105C9F092C02330A9
S11301B0310509F470C02430310519F18AC0FD01FC
S11301C0E40FF51F849F9001859F300D1124235D5A
S11301D03E4FE9012881E051F94F20837AC0FD01A7
S11301E0E40FF51F849F9001859F300D1124235D3A
S11301F03E4FE9012881DF2DD21BE051F94FD08316
S113020068C0849FF001859FF00D1124E35DFE4FCB
S11302102081293180F0FD01E40FF51F849F9001B6
S1130220859F300D1124235D3E4FE9012981E05162
S1130230F94F20834EC0FD01E40FF51F849F900108
S1130240859F300D1124235D3E4FE9012A81E05141
S1130250F94F20833EC0849FF001859FF00D112447
S1130260E35DFE4F2081293168F44A0F5B1FF801DA
S1130270E21BF1099F01220F2F5FFA01E051F94FB0
S1130280208327C04A0F5B1F220F2153FA01E0513C
S1130290F94F20831EC0849FF001859FF00D112427
S11302A0E35DFE4F2081293148F44A0F5B1F220F82
S11302B02E5FFA01E051F94F20830BC04A0F5B1FF8
S11302C0E601C21BD1099E01220FFA01E051F94F48
S11302D020839F5F492F50E0461757070CF44ACFFD
S11302E00E94ED05882319F080E00E940506DF9145
S11302F0CF911F910F91FF90DF90CF90089560935D
S11303000501709306018093070190930801809181
S1130310050190910601A0910701B0910801892B74
S11303208A2B8B2BA1F7089585B5856085BDEEE6F4
S1130330F0E0808181608083A89816BC08958530A0
S1130340E8F54617570718F04036510548F0109263
S1130350040110920301109202011092010108C0DD
S113036070930401609303015093020140930101CF
S11303708093000120910101309102014091030119
S113038050910401809100012032C0F490E0FC01FE
S1130390EE0FFF1FDF01A80FB91FAA0FBB1FA15F3C
S11303A0BE4F14964C93149715962C93159711964B
S11303B01C9211971C92FD0181E082830895CF93D2
S11303C0DF934091010150910201C0910301D0914A
S11303D00401209100014032C0F430E0F901EE0F35
S11303E0FF1FDF01A20FB31FAA0FBB1FA15FBE4FE8
S11303F01496CC93149715964C93159711966C9369
S1130400119791E09C93FD018283DF91CF91089530
S113041081E080930D01089510920D0108951092CA
S11304200D0120E030E0C901880F991FFC01E20FA3
S1130430F31FEE0FFF1FE15FFE4F1482158211823E
S11304401082FC01E20FF31FEE0FFF1FE15FFE4F6E
S113045012822F5F3F4F2530310529F708956F929F
S11304607F928F929F92AF92BF92CF92DF92EF9240
S1130470FF920F931F93CF93DF93603208F045C030
S1130480E0E0F0E0E22EF12C70E0C82ED12CCB019C
S11304908C199D090196842E952E570121E0A21AEC
S11304A0B108A40EB51EE114F10461F1E817F907CF
S11304B060F5682C792CDF01AC0DBD1DB5019F01E1
S11304C02E0D3F1D09C04FEF641A740A1196615036
S11304D07109E817F907C8F4002341F0E301188112
S11304E0AD014353594FEA01188307C0EB0118814A
S11304F0AD014353594FEA0118833196E217F307CC
S113050011F701C09F01F901CECFDF91CF911F9167
S11305100F91FF90EF90DF90CF90BF90AF909F909E
S11305208F907F906F9008958F92AF92CF92EF92B9
S11305300F93CF93DF93CDB7DEB727970FB6F89419
S1130540DEBF0FBECDBF49832A830B83EC82CD82ED
S1130550AE828F82A0910101B0910201E09103016A
S1130560F0910401062F282FAE014F5F5F4F6A2FD1
S11305708E2F0E942F0227960FB6F894DEBF0FBE6F
S1130580CDBFDF91CF910F91EF90CF90AF908F902F
S113059008954423E1F0FC01E353F94F3081AB01AA
S11305A0481B590B79F00196480F591FFC01E3537E
S11305B0F94F2081FC01E453F94F208301968417FD
S11305C09507A1F7FB01E353F94F30830895FB012D
S11305D0E353F94FA0819B01281B390B91F0615023
S11305E07109AB01421B530BFB01E353F94F20810B
S11305F0FB01E253F94F20836150710964177507B9
S113060099F7FC01E353F94FA0830895AF92BF9289
S1130610CF92DF92FF920F931F93CF93DF93C0E0AB
S1130620D0E0F12C00E010E06E01FE01EE0FFF1FA0
S1130630EC0FFD1FEE0FFF1FE15FFE4F808188234B
S113064009F46EC0FE01EE0FFF1FEC0FFD1FEE0F4D
S1130650FF1FE15FFE4F8381882369F0FE01EE0FE7
S1130660FF1FEC0FFD1FEE0FFF1FE15FFE4F8381A5
S1130670815083831CC05E01AA0CBB1CAC0EBD1E42
S1130680C501880F991F9C01215F3E4F5901D90173
S113069011964C91119715966C91159714968C910F
S11306A070E090E00E94C902F50182818383F60123
S11306B0EE0FFF1FEC0DFD1DEE0FFF1FE15FFE4F60
S11306C08581248190E0821B9109019618161906F0
S11306D03CF58F2D902F412FDF0134966D0125E0DD
S11306E0C20ED11C2081BC01620F711D5081850F87
S11306F0911D8353994FDC015C91CB018051994F3B
S1130700DC015C934F5F842F90E0D6012C915081E3
S113071030E0251B31092F5F3F4F8217930714F3F5
S11307202196C530D10509F07FCFDF91CF911F917C
S11307300F91FF90DF90CF90BF90AF9008951F92DC
S11307400F920FB60F9211240F931F932F933F9381
S11307504F935F936F937F938F939F93AF93BF93C5
S1130760CF93DF93EF93FF93A89580EF86BD80919D
S1130770050190910601A0910701B0910801892B10
S11307808A2B8B2B99F08091050190910601A09101
S11307900701B09108010197A109B10980930501EE
S11307A090930601A0930701B093080180910E0174
S11307B0882309F4EDC18091090190910A012091E7
S11307C00B0130910C0101968217930709F4D6C1ED
S11307D020E03FE003E0D5E0C4E01FEFA1E0B2E099
S11307E0422F50E0349FF001359FF00D1124E35D5A
S11307F0FE4F8385823009F43FC028F4882361F0DA
S11308008130B9F0A9C1843009F495C008F470C0EE
S1130810853009F4CFC0A0C1349FF001359FF00D9D
S11308201124E35DFE4F8581968194838383A3879E
S113083093C1349FF001359FF00D1124E35DFE4F09
S113084083819481009769F4349FF001359FF00D02
S11308501124E35DFE4F878190E094838383B38703
S11308607BC1349FF001359FF00D1124E35DFE4FF1
S113087001979483838370C1349FF001359FF00DF9
S11308801124E35DFE4F83819481009731F5349FF9
S1130890F001359FF00D1124E35DFE4F80819181BD
S11308A0891768F0349FF001359FF00D1124E35D42
S11308B0FE4F808591859483838303874DC1349F44
S11308C0F001359FF00D1124E35DFE4F8F5F8083AF
S11308D0878190E0948383833FC1349FF001359FE7
S11308E0F00D1124E35DFE4F01979483838334C19B
S11308F0349FF001359FF00D1124E35DFE4F838199
S11309009481009769F4349FF001359FF00D112410
S1130910E35DFE4F828590E094838383C3871CC18B
S1130920349FF001359FF00D1124E35DFE4F0197D4
S11309309483838311C1349FF001359FF00D1124FA
S1130940E35DFE4F83819481009749F5349FF00164
S1130950359FF00D1124E35DFE4F8081928198173D
S113096048F0349FF001359FF00D1124E35DFE4FF4
S1130970D38709C0349FF001359FF00D1124E35D46
S1130980FE4F81508083349FF001359FF00D112478
S1130990E35DFE4F828590E094838383DDC0349FC2
S11309A0F001359FF00D1124E35DFE4F0197948310
S11309B08383D2C0349FF001359FF00D1124E35D91
S11309C0FE4F86858F70813071F020F0823009F4FB
S11309D062C0B9C0349FF001359FF00D1124E35D6E
S11309E0FE4F1386B9C0349FF001359FF00D1124DA
S11309F0E35DFE4F85859485891708F441C0349FD3
S1130A00F001359FF00D1124E35DFE4F8381948145
S1130A10009759F5349FF001359FF00D1124E35DE3
S1130A20FE4FD38780819281981750F4349FF00150
S1130A30359FF00D1124E35DFE4F8150808309C082
S1130A40349FF001359FF00D1124E35DFE4F1387B1
S1130A501586349FF001359FF00D1124E35DFE4FA0
S1130A60828590E09483838377C0349FF001359F1F
S1130A70F00D1124E35DFE4F0197948383836CC0D2
S1130A80349FF001359FF00D1124E35DFE4F138672
S1130A908F5F858761C0349FF001359FF00D11246D
S1130AA0E35DFE4F85859485891708F441C0349F22
S1130AB0F001359FF00D1124E35DFE4FD387838150
S1130AC09481009751F5349FF001359FF00D112466
S1130AD0E35DFE4F80819181891750F4349FF001CA
S1130AE0359FF00D1124E35DFE4F8F5F808309C0B5
S1130AF0349FF001359FF00D1124E35DFE4F138701
S1130B001586349FF001359FF00D1124E35DFE4FEF
S1130B10828590E0948383831FC0349FF001359FC6
S1130B20F00D1124E35DFE4F01979483838314C079
S1130B30349FF001359FF00D1124E35DFE4F1386C1
S1130B408F5F858709C0349FF001359FF00D112414
S1130B50E35DFE4F138715862F5F80910901909105
S1130B600A0160910B0170910C01422F50E0019633
S1130B70861B970B4817590708F432CE6091090178
S1130B8070910A0180910B0190910C010E949600D2
S1130B9080910D0181110E940603FF91EF91DF9175
S1130BA0CF91BF91AF919F918F917F916F915F9101
S1130BB04F913F912F911F910F910F900FBE0F9066
S1130BC01F9018959093C5008093C40088E2809389
S1130BD0C1008EE08093C20008958091ED060895CF
S1130BE0E1ECF0E08081877F8083519A59988FED02
S1130BF091E00197F1F700C00000599A90E49A95AA
S1130C00F1F78081886080830895CF93C82F109274
S1130C10ED060E94F005E1ECF0E090819062908393
S1130C201092EF061092EE06C093C600CF9108957D
S1130C301F920F920FB60F9211248F939F93EF93ED
S1130C40FF938091EE069091EF068036910520F097
S1130C5081E08093ED0616C0E091EE06F091EF0678
S1130C60E051F94F8081982F990F990F890F809344
S1130C70C6008091EE069091EF0601969093EF06E0
S1130C808093EE06FF91EF919F918F910F900FBE8D
S1130C900F901F901895A89598E288E10FB6F894E4
S1130CA0A895809360000FBE9093600083E090E06D
S1130CB00E94E2050E9494010E9453000E940F02C8
S1130CC06FE170E080E090E00E948D000E948A0055
S1130CD00E940C0280E00E94050678940E9486001F
S1130CE00E9408024FE050E060E070E080E00E9463
S1130CF09F01812CA12CC12C0F2EF5E0EF2EF02D9D
S1130D0005E025E04FEF60E084E00E94940260E09B
S1130D1088EC0E94DF0168E97AE380E090E00E94B9
S1130D207F010E9408024FE050E060E070E080E044
S1130D300E949F01E12C0FEF20E04FEF60E084E080
S1130D400E94940260E088EC0E94DF0168E97AE383
S1110D5080E090E00E947F01C1CFF894FFCFB5
S9030000FC
