S00C00006D61696E2E7372656373
S113000011C02BC02AC029C028C027C026C025C0C3
S113001024C023C0CCC021C0C1C11FC01EC02573D1
S11300202F25730011241FBECFE5D2E0DEBFCDBF64
S113003010E0A0E6B0E0ECE5FCE102C005900D9212
S1130040A037B107D9F721E0A0E7B0E001C01D92C5
S1130050AA3CB207E1F7A3D1FFCDD2CFA89501976F
S113006028F0E0EAFFE03197F1F7F8CF089572E065
S11300707A95F1F70197D9F7A895089588E08DB995
S1130080C59AC39A0895C3980895C39A089584E0BD
S113009086BB86BB86BB86BB86BB86BB86BB86BB54
S11300A086BB86BB86BB86BB86BB86BB86BB86BB44
S11300B000008FB1089594E068B378E087FB65F998
S11300C068BB880F96BB96BB7A95C1F7C59A08950D
S11300D0DC01FB0122E032E02E1B3F0B241B350B1D
S11300E084E0319788F086BB86BB86BB86BB86BB23
S11300F086BB86BB86BB86BB86BB86BB86BB86BBF4
S113010086BB86BB86BBEDCF109731F0C0DF8D93E5
S113011041505040D9F736C08C9956958C994795E3
S1130120899956958999479560917400AEE8B0E035
S1130130A60FB11D80919E018C3FE0F7A8DFEE274A
S11301408C9B03C0E82FA3DF8058F82F899B0BC03A
S11301509EDF99278C9B03C0982F99DF8058E90F65
S1130160F81FF795E795ED93FD93F89480919E0120
S11301708E5F80939E0178946E5F41505040B1F63B
S11301806093740084E086BB86BB86BB86BB86BB5B
S113019086BB86BB86BB86BB86BB86BB86BB86BB53
S11301A086BB86BB86BB2150304069F708958F9388
S11301B08FB78F93EF93FF93E0917500FF27E2577A
S11301C0FF4F80919E01825048F080939E0181915F
S11301D08EBD81918BBDEE58E0937500FF91EF9138
S11301E08F918FBF8F9118958A3019F48DE001D0CB
S11301F08AE0FF93EF93E0917000F09171003097E3
S113020009F00995EF91FF910895FC0185918030E3
S113021011F0EADFFBCF0895FF27E0E230E247FF69
S11302200CC0419597FF09C0EDE2609570958095EB
S11302309095611D711D811D911D27FF02C021959F
S113024030E350E2AA27660F771F881F991FAA1F61
S1130250A41710F0A41B63955A95A9F7AA3008F0C7
S1130260A95FA05DAF93F3956115710581059105B3
S113027041F7ED3211F4EF93F395F21718F43F932D
S1130280F395FBCF8F91B0DFFA95E1F70895E991EB
S1130290F9918591803021F0853219F0A5DFF9CFED
S11302A0089520E0E89455915532C1F3503311F488
S11302B0689455915A3348F4505390F3220F022E08
S11302C0220F220F200D250FF4CF0EF421958991D2
S11302D09991533619F3533729F1533559F1BC0128
S11302E088279927E8945C3621F489919991689438
S11302F05591543639F446EF7EF077FF0DC08FEFF9
S11303009FEF0AC055374AE039F0583540E121F0F3
S1130310523642E009F00895FF93EF937DDFEF91A9
S1130320FF91B7CFFF93EF93FC0181918030B9F334
S11303305BDFFBCFFF93EF9368DFF1CFDF93CF93C6
S1130340CDB7DEB72596A3DFCF91DF910895F701EE
S113035081937F010895DF93CF93CDB7DEB72596C0
S1130360E0917000F0917100EF93FF93E7EAF1E000
S1130370E0937000F0937100FF92EF92E990F9908E
S113038086DFF7011082EF90FF90FF91EF91E093E9
S11303907000F0937100CF91DF910895189541B6E4
S11303A014BE8EE081BD89E288BB8EE387BB78945E
S11303B00F2EFEE82F2EF0E03F2EF02D612C6894D6
S11303C0552452F88FE991E0B3D68111C5C1A8959F
S11303D0D1011C9284E690E0DBD7811106C04CE881
S11303E050E061E070E0C10130D8F1018081840DFA
S11303F081BF60E670E08EE891E031DA843061F428
S11304006FE670E08EE891E02ADA0F2EFFE6EF2E19
S1130410F0E0FF2EF02D06C00F2EF0E6EF2EF0E0F8
S1130420FF2EF02D0F2EFFE7CF2EF0E0DF2EF02D64
S113043090C160E070E08EE891E063DA81118CC1D4
S1130440CEE7D0E0A89566E770E08EE891E059DA4F
S113045081117FC1D6019C91992309F47AC18881C5
S1130460827181F76BE670E0C601DCDB892B51F306
S1130470A895DF92CF92FF92EF92AEE1B0E0BF93E6
S1130480AF933F922F9267DFC10182D72DB73EB75A
S1130490285F3F4F0FB6F8943EBF0FBE2DBF8111AA
S11304A04BC14CE850E06CE070E0C101CED7811143
S11304B053C180918C0090918D000C9709F04CC130
S11304C0F10180859185A285B38587359144A64540
S11304D0B54409F041C110E0A8954CE850E068E04B
S11304E070E0C101B2D780918C0090918D00089783
S11304F009F032C1D10114968D909D90AD90BC90BD
S113050017978D919D910D90BC91A02D8C34E9E4A9
S11305109E07E3E5AE07E4E5BE0709F4A1C078F45D
S113052086362DE6920724E7A20720E2B207B9F047
S113053084349944A345B04509F006C191C084367A
S113054061E6960764E7A60761E6B60709F45CC0AE
S113055086369146A346B44709F0F6C081C080FEB2
S113056005C0FFEF8F1A9F0AAF0ABF0AD501C40165
S11305704097A109B10985359105A105B10508F098
S1130580EBC04CE850E0B401C1015FD780918C000E
S113059090918D00A0E0B0E088169906AA06BB06EB
S11305A009F0DAC0D1018C91813009F0D5C0E0E9BD
S11305B0F0E010818FEF810F823008F0CDC011BBC5
S11305C0ACE9B0E08C91883009F4EBC0803109F4D7
S11305D0E5C0C2C0F1012481358146815781DA0129
S11305E0C90180549F41A109B10981349C49A105E5
S11305F0B10508F0B1C060E874E88EE190E06EDA0D
S11306008FEF820F89BD68CF112309F4A5C081142F
S113061024E09206A104B10408F49EC0812F90E066
S11306200197AA2797FDA095BA2FAC01BD014821D7
S113063059216A217B21452B462B472B09F08CC07D
S1130640E5EBF1E04081518162817381842395233C
S1130650A623B723892B8A2B8B2B09F07DC015C0C9
S113066080FE05C0FFEF8F1A9F0AAF0ABF0AE5EBB1
S1130670F1E080819181A281B381BC01CD01680D3B
S1130680791D8A1D9B1DC0D727CF10929E01109201
S113069075001092740080B7811114C086E087BD84
S11306A080E68CBD81E680BF82E08ABD83BF80E1A5
S11306B089BF10E01F5F1EBD1BBD84E690E0D7DC40
S11306C01038C1F7A5EBB1E08D919C91917060E079
S11306D072E0681B790B4CE850E080E090E0B5D6FE
S11306E080918C0090918D00881A990AA108B10814
S11306F011E0A895B1E08B16B4E09B06A104B10407
S113070018F4682D792D02C0662D752D4CE850E043
S113071080E090E09AD620918C0030918D002115D4
S1130720344051F4F4E09F1AA108B108110FB099B4
S1130730E0CF1F5F1130E9F690919E019111FCCF3B
S113074090E89EBD9BBD01C08FEF882309F47ACE4B
S113075003C0882309F46DCEA89513BE1ABC80B7D4
S1130760882359F0C0E8C150CEBDCBBD84E690E0EB
S11307707EDCC111F8CF10BE1CBC8DE481BD85B7F1
S1130780877E806185BF85B7806285BF889585B780
S11307908F7D85BFA8958EE081BD14CE8C9A110FF4
S11307A019CF8B9A17CFFF920F931F93CF93DF9399
S11307B0C82FD42F152F062FF72E882344F440E09A
S11307C050E0BA0187E7EFDF8230F8F4CF775DDCE1
S11307D05EDC59DC5CDC8C2F6EDC8F2D6CDC802FB6
S11307E06ADC812F68DC8D2F66DCC03421F0C834CC
S11307F021F081E003C085E901C087E85CDCCAE040
S113080046DC882314F4C150D9F7DF91CF911F91AE
S11308100F91FF900895EF92FF920F931F93CF9340
S1130820DF9300D000D0CDB7DEB728DC0AE010E0BB
S11308302EDC0150110901151105D1F724DC08E55E
S113084012E025DC0150110901151105D1F740E032
S113085050E0BA0180E4A7DF813009F07BC04AEAA6
S113086051E060E070E088E49EDF813009F043C02D
S11308707E0185E0E80EF11C8E010F5F1F4F07DC3F
S1130880F80181938F01EE15FF05C9F78B81813043
S113089009F062C08C818A3A09F060C008EA11E666
S11308A006C0015011090115110509F459C040E0B1
S11308B050E060E070E489EE76DF8111F2CF012B25
S11308C009F450C040E050E0BA018AE76CDF8111BE
S11308D04BC08E010F5F1F4FDADBF80181938F014C
S11308E0EE15FF05C9F7898186FF40C00F2EFCE095
S11308F0FF2EF02D44C040E050E0BA0189EE53DFF2
S1130900823040F46894FF24F1F80F2EF9EEEF2EB4
S1130910F02D06C0FF24F3940F2EF1E4EF2EF02DFA
S113092008EA11E605C0015011090115110511F17C
S113093040E050E0BA018E2D36DF8111F4CF012B57
S1130940D9F040E052E060E070E080E52CDF8111F6
S113095015C015C0F12C13C0F12C11C0F12C0FC01F
S1130960F12C0DC0F12C0BC0F12C09C06894FF24AC
S1130970F2F805C0F12C03C0F12C01C0F12CF09267
S1130980C90183DB84DB81E0F11080E00F900F90DC
S11309900F900F90DF91CF911F910F91FF90EF90E7
S11309A00895CF92DF92EF92FF920F931F93CF930C
S11309B0DF93EC0179018091C90183FD09C0032E05
S11309C039E0440F551F661F771F3A95D1F7302D34
S11309D081E5E9DE811118C00F2EF0E3CF2EF5E793
S11309E0DF2EF02D54DB8F3F39F481E0C81AD10893
S11309F0C114D104B9F70AC08E3F51F4A801B7015C
S1130A00CE0166DBC0E005C0C1E003C0C1E001C0A7
S1130A10C1E03BDB3CDB8C2FDF91CF911F910F9129
S1130A20FF90EF90DF90CF9008958F929F92AF92B6
S1130A30BF92CF92DF92EF92FF92CF93DF93C09158
S1130A407200D09173006250710981099109CE80BE
S1130A50DF80E884F98422E0C21AD108E108F108B1
S1130A606C157D058E059F05A0F42A8130E040E0D9
S1130A7050E058D8822E932EA42EB52E8A899B89B5
S1130A80AC89BD89BC01CD01680D791D8A1D9B1DF2
S1130A9003C060E070E0CB01DF91CF91FF90EF9055
S1130AA0DF90CF90BF90AF909F908F9008950F9359
S1130AB01F93CF93DF93EC01E0917200F0917300E8
S1130AC0198218826C817D818E819F8161307105CC
S1130AD08105910551F106811781208531856017C3
S1130AE071078207930718F5611571058105910552
S1130AF001F58081833011F5668577858089918938
S1130B00688779878A879B876115710581059105B7
S1130B1011F08BDF04C066857785808991896C87A5
S1130B207D878E879F8780E00EC081E00CC081E0C6
S1130B300AC0688779878A879B87EBCF18861986CE
S1130B401A861B86E8CFDF91CF911F910F910895EC
S1130B50CF92DF92EF92FF920F931F93CF93DF9385
S1130B60EC016A017B0102E010E02EEF31E019DFB5
S1130B70811124C08881998185359A4A09F526E333
S1130B8030E0B701A601CE010CDF811105C08881D8
S1130B90998186349144B1F002E010E022E530E01E
S1130BA0B701A601CE01FDDE81110EC081E02881CE
S1130BB039812634314449F480E007C083E005C01C
S1130BC082E003C080E001C081E0DF91CF911F91FA
S1130BD00F91FF90EF90DF90CF9008954F925F9226
S1130BE06F927F92AF92BF92CF92DF92EF92FF9279
S1130BF00F931F93CF93DF9300D000D0CDB7DEB710
S1130C006B017C01A0907200B090730082E0C81662
S1130C10D104E104F10408F4B3C0F501868197819D
S1130C20A085B185C816D906EA06FB0608F0ADC052
S1130C308081823009F45EC0833009F478C0813049
S1130C4009F0A8C02601569447944C0C5D1C9201EF
S1130C503170452C552446942F3FF1E03F0789F02D
S1130C60F5014285538564857585440D551D611DC7
S1130C70711D02E010E0CE01019693DE882349F154
S1130C808EC0612C712CF501428553856485758570
S1130C90440D551D661D771D01E010E02FEF31E076
S1130CA0CE0101967EDE81117FC0F5014285538518
S1130CB0648575854F5F5F4F6F4F7F4F440D551DA2
S1130CC0661D771D20E030E0CE0102966ADE8111B8
S1130CD070C069817A81C0FE09C0729562956F7097
S1130CE067277F70672780E090E071C07F7080E0A5
S1130CF090E06DC096013327220F331F77276F2DA5
S1130D005E2D4D2DF50182859385A485B585480F0B
S1130D10591F6A1F7B1F02E010E0CE01019641DEDD
S1130D2081114CC069817A8180E090E050C09601C5
S1130D302F773327220F331F220F331FB701A6014A
S1130D40689416F876956795579547951694D1F754
S1130D50F50182859385A485B585480F591F6A1FBF
S1130D607B1F04E010E0CE0101961BDE81112BC035
S1130D7089819A81AB81BC81BC01CD019F7027C060
S1130D8061E070E080E090E022C061E070E080E02B
S1130D9090E01DC061E070E080E090E018C061E088
S1130DA070E080E090E013C061E070E080E090E0EB
S1130DB00EC061E070E080E090E009C061E070E0A6
S1130DC080E090E004C061E070E080E090E00F908B
S1130DD00F900F900F90DF91CF911F910F91FF9083
S1130DE0EF90DF90CF90BF90AF907F906F905F9027
S1130DF04F900895CF92DF92EF92FF920F931F933B
S1130E00CF93DF93EC01E0907200F09073000881BF
S1130E1019810F5F1F4F0115110509F455C04C8549
S1130E205D856E857F85411551056105710509F460
S1130E304DC0C8018F709927892B09F041C04F5FBD
S1130E405F4F6F4F7F4F4C875D876E877F876885C5
S1130E5079858A859B85611571058105910539F42C
S1130E60F701848195810817190790F529C0F701C6
S1130E70228130E021503109A801529542954F70EA
S1130E8045275F70452724233523232BC9F4A6DE89
S1130E906230710581059105E8F0F701C680D780BD
S1130EA0E084F1846C157D058E059F05A8F46887A0
S1130EB079878A879B87B9DD6C877D878E879F8733
S1130EC01983088380E009C083E007C083E005C07C
S1130ED083E003C081E001C083E0DF91CF911F91E3
S1130EE00F91FF90EF90DF90CF9008952F923F9253
S1130EF04F925F926F927F928F929F92AF92BF9226
S1130F00CF92DF92EF92FF920F931F93CF93DF93D1
S1130F107C016B015A01DA018C91803241F4FA01AF
S1130F203196BFEFAB1ABB0A81918032D1F38F3275
S1130F3019F4EFEFAE1ABE0AD70114961D921D9252
S1130F401D921C921797F5018081813230F4C701FC
S1130F50AEDD582FD6011C92D7C06894992495F819
S1130F60612C6894442443F8342C0F2EFBE02F2E7C
S1130F70F02D55245394E6012B96852C762CD7011D
S1130F801296ED91FC911397DF01CF010B969D9280
S1130F90A817B907E1F7362D262D442D11E0120FBD
S1130FA0D501A20FB11D5C915132B0F15F32A1F1B4
S1130FB05E3209F49AC0341778F58FE7850F8F31C4
S1130FC020F080E2850F8D31D8F4632F70E0842FF8
S1130FD090E0DC011197CB018A179B078CF42E5FFC
S1130FE0D501A10FB11D8C91DF01A30FB11D5C933D
S1130FF091E0930FDF01A90FB11D3E5F8C93CECF1B
S11310008FE9850F8A3108F45052DF01A30FB11D17
S11310105C933F5F212FC2CFA10EB11C852D5132AD
S113102008F0862D8387C70142DD582F811164C0E3
S1131030F701208131812F703327220F331F22952E
S11310403295307F3227207F322744855585668547
S1131050778500E210E0C601A4DC582D811101C09F
S1131060572D511149C0D6018C918823B9F01B9694
S11310708C9183FD0DC0F70122813381F601D901E2
S113108003C0EC17FD07D9F141919D914917C9F3AC
S1131090C701B0DE582F882359F22EC0D70112960B
S11310A0ED91FC91139783858823D9F018C084FFB0
S11310B01AC0F60184899589A0E0B0E0DC01992783
S11310C08827428D538D60E070E0842B952BA62BEE
S11310D0B72BF70184839583A683B78350CF53E05E
S11310E013C054E011C054E00FC0483009F094CF4D
S11310F0212F332D422D52CF533031F4CFCFD9018C
S11311001B969C91992399F2852FDF91CF911F9182
S11311100F91FF90EF90DF90CF90BF90AF909F9092
S11311208F907F906F905F904F903F902F90089595
S11311304F925F926F927F929F92AF92BF92CF92A3
S1131140DF92EF92FF920F931F93CF93DF93CDB76C
S1131150DEB7A8970FB6F894DEBF0FBECDBF5C0113
S11311601092730010927200009709F4E9C053DBE7
S113117080FDE8C040E050E0BA01CE010196E8DC11
S11311808130D1F400E110E02EEB31E040E050E09A
S1131190BA01CE01019605DC8111D6C08D81882368
S11311A009F4D4C049845A846B847C84B301A201B9
S11311B0CE010196CDDC03C0412C512C3201833089
S11311C009F4C6C08111C6C004E210E02DE030E08D
S11311D0B301A201CE010196E4DB8111BDC06A8591
S11311E07B8580E090E0611571058105910521F40E
S11311F0688D798D8A8D9B8D2C8130E040E050E0A4
S113120091D4C22ED32EE42EF52E8A819B818C019B
S113121020E030E0400E511E621E731ED5011A9666
S11312204D925D926D927C921D97998012969C923C
S11312301297ED81FE811596FC93EE9314976F81BE
S11312407885CB01A0E0B0E00097A105B10521F4B9
S11312508C899D89AE89BF89F295E295EF70EF275D
S1131260FF70EF27AF0160E070E04DA35EA36FA3B2
S113127078A7801B910BA20BB30B8C199D09AE09A7
S1131280BF09BC01CD012DA13EA14FA158A5621BF0
S1131290730B840B950B292D30E040E050E01ED4F5
S11312A0BA01A9014E5F5F4F6F4F7F4FD50116966C
S11312B04D935D936D937C931997473FBFE05B0714
S11312C06105710510F082E001C081E0473F5F4F86
S11312D06105710508F042C0D5018C93833051F447
S11312E088A199A1AAA1BBA1F50186879787A08BA4
S11312F0B18B0BC0D701C601840D951DA61DB71D6A
S1131300F50186879787A08BB18B2DA13EA14FA1B4
S113131058A5420E531E641E751EC40CD51CE61C33
S1131320F71CD5015296CD92DD92ED92FC92559721
S113133011961C92B0927300A092720080E012C0C9
S113134080E010C082E00EC081E00CC087E00AC0DB
S113135081E008C087E006C081E004C083E0F501B5
S11313608083BECFA8960FB6F894DEBF0FBECDBF64
S1131370DF91CF911F910F91FF90EF90DF90CF906D
S1131380BF90AF909F907F906F905F904F90089523
S11313900F931F93CF93DF93CDB7DEB7EC970FB6C0
S11313A0F894DEBF0FBECDBF0091720010917300A0
S11313B001151105D1F1F80111829E012F5E3F4FF5
S11313C03C832B83AC01BE01635E7F4FCE0101964B
S11313D08DDD81112FC08D8D882349F188A584FD71
S11313E028C089A99AA9A0E0B0E0DC019927882740
S11313F04FA958AD60E070E0842B952BA62BB72B3A
S1131400F801868F978FA0A3B1A389AD9AADABAD38
S1131410BCAD828F938FA48FB58F168A178A108ED6
S1131420118E81E0818380E005C086E003C083E003
S113143001C083E0EC960FB6F894DEBF0FBECDBFBB
S1131440DF91CF911F910F9108952F923F924F9268
S11314505F926F927F928F929F92AF92BF92CF9240
S1131460DF92EF92FF920F931F93CF93DF932C01A0
S11314706B013A01C0917200D0917300FA0111829C
S11314801082209709F4A6C0898180FFA5C08A8DA7
S11314909B8DAC8DBD8D4E895F89688D798D841B44
S11314A0950BA60BB70BA60160E070E084179507B7
S11314B0A607B70708F46C01C114D10409F48EC05F
S11314C05201812C6894992491F8312C212C8E8915
S11314D09F89A88DB98DAC01BD015170662777270E
S11314E0452B462B472BE1F5FA80FA94AC01BD015C
S11314F0032E39E076956795579547953A95D1F738
S1131500302DF422C1F4892B8A2B8B2B29F46E8D78
S11315107F8D88A199A105C06AA17BA18CA19DA101
S11315205DDB623071058105910508F450C06AA342
S11315307BA38CA39DA36AA17BA18CA19DA175DA39
S1131540611571058105910509F441C0DC01CB01E8
S11315508F0D911DA11DB11D8EA39FA3A8A7B9A78F
S11315602E893F893170C401821B930B76018C153F
S11315709D0508F47C014EA15FA168A579A54114DD
S1131580510419F4832D922D02C08A2D9B2D8701BD
S113159008DA81111CC08E899F89A88DB98D8E0DA2
S11315A09F1DA11DB11D8E8B9F8BA88FB98FAE0C73
S11315B0BF1CCE18DF08F30180819181E80EF91E6B
S11315C0F182E082C114D10409F081CF09C01982EB
S11315D081E007C086E005C085E003C080E001C06B
S11315E080E0DF91CF911F910F91FF90EF90DF90FA
S11315F0CF90BF90AF909F908F907F906F905F90AF
S11316004F903F902F9008952F923F924F925F9268
S11316106F927F928F929F92AF92BF92CF92DF92FE
S1131620EF92FF920F931F93CF93DF9300D000D0DC
S1131630CDB7DEB7362FE72F2090720030907300BD
S11316402114310409F4EFC0D10111962C911197A2
S113165020FFEBC05A964D915D916D917C915D9701
S1131660C32EDE2EE82EF92E4C155D056E057F0582
S113167010F46A017B01F10186899789A08DB18DEF
S1131680168A178A108E118EC114D104E104F10454
S113169009F4CDC08280912CA12CB12C072E79E0C5
S11316A0880C991CAA1CBB1C7A95D1F7702D009745
S11316B0A105B10509F43FC02C013D01F1E04F1A29
S11316C0510861087108C701B601615071098109A7
S11316D09109A501940102D229833A834B835C8347
S11316E0C301B201A5019401F9D189819A81AB8129
S11316F0BC8182179307A407B507E8F088279927C8
S1131700DC0188199909AA09BB09482259226A22CD
S11317107B22D10156964D925D926D927C9259979F
S1131720C418D508E608F70892966D917D918D91BD
S11317309C91959709C0F101668D778D80A191A147
S113174062A373A384A395A38C149D04AE04BF0465
S113175058F544DA623071058105910508F45EC0DC
S1131760F101068117812085318560177107820791
S1131770930708F053C062A373A384A395A30689B7
S11317801789208D318D080D191D2A1D3B1D068BCF
S1131790178B208F318FC818D908EA08FB088C14DE
S11317A09D04AE04BF04A8F2D10156960D911D917B
S11317B02D913C915997C00ED11EE21EF31EF101EA
S11317C0C68AD78AE08EF18E30D9611571058105FC
S11317D0910521F10B2EB9E0F694E794D794C794C0
S11317E0BA95D1F7B02DD10112960C9110E00150A9
S11317F01109222717FD2095322FC022D122E2227F
S1131800F322DC01CB018C0D9D1DAE1DBF1DF1012A
S113181086A397A3A0A7B1A780E00AC0D10111961F
S11318201C9281E005C086E003C085E001C080E031
S11318300F900F900F900F90DF91CF911F910F9108
S1131840FF90EF90DF90CF90BF90AF909F908F90DC
S11318507F906F905F904F903F902F9008950F93DB
S11318601F93CF93DF93CDB7DEB7AC970FB6F89441
S1131870DEBF0FBECDBF8C018091720090917300CA
S1131880892B69F1CE010196F80193838283AB0120
S1131890BE01635F7F4FC80129DB81111BC08D85A9
S11318A0882309F1888D84FF18C049A15AA160E0FA
S11318B070E0BA01552744278FA198A5A0E0B0E0B5
S11318C0482B592B6A2B7B2BF80144835583668361
S11318D0778309C0833029F009C084E007C086E01B
S11318E005C084E003C0C801E2D8F4CFAC960FB6BB
S11318F0F894DEBF0FBECDBFDF91CF911F910F9142
S11319000895AF92BF92CF92DF92EF92FF920F931E
S11319101F93CF93DF93CDB7DEB7AC970FB6F89490
S1131920DEBF0FBECDBF7C016B0180917200909130
S11319307300892B09F4AFC0CE010196F70193839C
S113194082836115710529F093E0BB24B394A12C23
S11319502CC0C701ACD8982FAFC0F70120813181CA
S11319602F703327220F331F22953295307F322771
S1131970207F322700E210E0CE010D9612D89B2D75
S1131980811101C09A2D91111CC08D85882309F401
S113199084C0288D853E21F08E3211F023FF21C0B2
S11319A0C70128DA982F81110CC0F70144855585A9
S11319B066857785411551056105710571F6992391
S11319C081F0933049F4F70114861586168617863C
S11319D09601275F3F4F51C0F7011486158616867E
S11319E01786911169C09601275F3F4FF7018485DF
S11319F09585A685B785892B8A2B8B2BF1F16D856F
S1131A006032B1F0DE011E96F901AE014B5E5F4F0C
S1131A1075EE04C06D91603259F0FC01653009F433
S1131A20672FCF0101969C016083A417B50791F736
S1131A308D89803279F08EE2F90180834D894032BC
S1131A4071F52F5F3F4F06C09C0104C0F901438329
S1131A502C5F3F4F888DF601808789A59AA5ABA599
S1131A60BCA580839183A283B3838DA19EA195831A
S1131A7084838BA19CA197838683F9011082C7017B
S1131A80B9D9982F8330C1F4F701148615861686C8
S1131A90178690E011C096E00FC093E092CFC90181
S1131AA00296F90141834E89403271F201964283D4
S1131AB04F89403259F6C8CF892FAC960FB6F894A7
S1131AC0DEBF0FBECDBFDF91CF911F910F91FF906D
S1131AD0EF90DF90CF90BF90AF900895A1E21A2EBF
S1131AE0AA1BBB1BFD010DC0AA1FBB1FEE1FFF1FBE
S1131AF0A217B307E407F50720F0A21BB30BE40B0E
S1131B00F50B661F771F881F991F1A9469F7609554
S1131B107095809590959B01AC01BD01CF0108950E
S1131B2068940013E894A0E0B0E0E8E9FDE01DC08B
S1131B30EFEFE7F959016A015E23550FEE08FE2C19
S1131B4087019B01AC019E23990F660B762FCB0175
S1131B503BD0CDB7DEB7EAE024C02F923F924F923C
S1131B605F926F927F928F929F92AF92BF92CF9229
S1131B70DF92EF92FF920F931F93CF93DF93CDB732
S1131B80DEB7CA1BDB0B0FB6F894DEBF0FBECDBFAA
S1131B9009942A88398848885F846E847D848C847B
S1131BA09B84AA84B984C884DF80EE80FD800C8184
S1131BB01B81AA81B981CE0FD11D0FB6F894DEBF67
S1131BC00FBECDBFED010895DF93CF939F92A0E4A4
S1131BD09A2E0024D001E001F00116950795F794A0
S1131BE0E794D794C794B794A79448F41068A20FC5
S1131BF0B31FC41FD51FE61FF71F081E191E220F8F
S1131C00331F441F551F661F771F881F991F9A94FF
S1131C1021F79D01AE01BF01C00111249F90CF9116
S1131C20DF910895FB0151915523A9F0BF01DC0117
S1131C304D9145174111E1F759F4CD010190002070
S1131C4049F04D9140154111C9F3FB014111EFCF0A
S10F1C5081E090E001970895F894FFCF24
S1131C5C776176006F736363616C002E5741560095
S9030000FC
