:100000000C9448000C945A000C945A000C945A001A
:100010000C945A000C945A000C945A000C945A00F8
:100020000C945A000C945A000C945A000C945A00E8
:100030000C945A000C945A000C9416020C945A001A
:100040000C945A000C945A000C9437030C945A00E8
:100050000C94E2020C945A000C945A000C945A002E
:100060000C945A000C945A00B001BA01C401CE019C
:10007000D801E201EC01F60100020A02C0F9A4B0C5
:10008000999282F88090FF8883C6A1868EC28900EB
:1000900011241FBECFEFD8E0DEBFCDBF22E0A0E02D
:1000A000B1E001C01D92AB3DB207E1F70E943A02F8
:1000B0000C942E040C940000399A389A3A9A409A7B
:1000C00041984298089527E030E090E0AC01022E7C
:1000D00002C0559547950A94E2F740FF02C0409A46
:1000E00001C04098419A41982150310978F708950C
:1000F000429A4298089582E084BD89EF87BDEEE67A
:10010000F0E080818260808385B5836085BD0E9438
:100110005C000895CF93DF93AC01FB01803127E2AF
:10012000920708F08BC09C01ADECBCEC0E941F0450
:10013000EC01D695C795D695C795D695C7959E01DE
:10014000220F331FCE01880F991F880F991F880F28
:10015000991F820F931F9A01281B390B23839E013D
:100160000E941F04969587959695879596958795F5
:100170009C01220F331F880F991F880F991F880F2A
:10018000991F820F931FC81BD90BC2839A01369502
:10019000279536952795ABE7B4E10E941F04EC0143
:1001A000D695C7959E01ADECBCEC0E941F049695B8
:1001B000879596958795969587959C01220F331F75
:1001C000880F991F880F991F880F991F820F931FFF
:1001D000C81BD90BC1839A0136952795369527956B
:1001E00036952795A5ECB0E20E941F04AC0152950C
:1001F00042954F7045275F7045279A01ADECBCECE6
:100200000E941F0496958795969587959695879554
:100210009C01220F331F880F991F880F991F880F89
:10022000991F820F931F481B590B408307C0908171
:1002300091110CC021938150D1F708C080818111A8
:1002400005C08AE0819383E02AE0F1CFDF91CF916E
:1002500008950F931F93CF93DF9300D000D0CDB7B5
:10026000DEB78B01803127E2920708F5BE016F5F90
:100270007F4F0E948A00E981F0E0E458FF4FE4914B
:10028000E0930001EA81F0E0E458FF4FE491E0934D
:100290000101EB81F0E0E458FF4FE491E0930201AB
:1002A000EC81F0E0E458FF4FE491E093030100316A
:1002B00087E2180710F5BE016F5F7F4FC8010E94EB
:1002C0008A00E981F0E0E458FF4FE491E0930401F3
:1002D000EA81F0E0E458FF4FE491E0930501EB81FF
:1002E000F0E0E458FF4FE491E0930601EC81F0E088
:1002F000E458FF4FE491E09307010F900F900F90A7
:100300000F90DF91CF911F910F9108951F93CF937D
:10031000DF93162FC1E0D0E09E0102C0220F331FF1
:100320008A95E2F7E901C095D0958D2F0E94630070
:100330008C2F0E946300812F0E9463000E9478002E
:10034000DF91CF911F91089580910A0190E08A304A
:10035000910508F068C0FC01EC5CFF4F0C94190497
:100360006091010170E080E00E94860181E080934D
:100370000A0108956091020170E081E00E94860107
:1003800082E080930A0108956091030170E082E0A9
:100390000E94860183E080930A010895609105011F
:1003A00070E083E00E94860184E080930A01089552
:1003B0006091060170E084E00E94860185E08093F0
:1003C0000A0108956091070170E085E00E948601AE
:1003D00086E080930A0108956091000170E086E054
:1003E0000E94860187E080930A01089560910401CC
:1003F00070E087E00E94860188E080930A010895FA
:100400006091080170E088E00E94860189E0809395
:100410000A0108956091090170E089E00E94860157
:1004200010920A01089510920A0108951F920F92E6
:100430000FB60F9211242F933F934F935F936F93B7
:100440007F938F939F93AF93BF93EF93FF930E94FC
:10045000A401FF91EF91BF91AF919F918F917F91F7
:100460006F915F914F913F912F910F900FBE0F9021
:100470001F9018950E945C000E947B0064E683E058
:1004800090E00E94580278940E948102CDE0D1E071
:100490008CE091E00E9489028230D1F7688170E09F
:1004A00080910C0190E00E9429010E948102F0CF0E
:1004B0002AB122682AB95098589A9093C50080931F
:1004C000C40088ED8093C1008EE08093C2006093E9
:1004D000D6021092D7021092DA020895882311F002
:1004E0005F9A08955F9808958091C000882344F42E
:1004F000A6ECB0E0E0ECF0E08C9180818823E4F39E
:10050000089580E00E946E021092D7021092DA02E3
:100510000895CF93DF93FC018091DA028F3FA1F51C
:100520009091D702892F817090FF33C09091D702AC
:10053000892F887093FD2AC09091D70296709430CD
:10054000A1F48091D60120E030E0C6EDD1E0D901E0
:10055000AA52BE4F8C9181932F5F3F4F888190E0CC
:1005600001962817390798F313C09091D702967017
:10057000963079F482E080838091D50181838091E7
:10058000D601828383E005C080E003C080E001C023
:1005900082E0DF91CF9108956115710589F0FC012A
:1005A000680F791F80E09191892798E02CE8869563
:1005B00008F482279A95D9F7E617F707A1F7089567
:1005C00080E008951F920F920FB60F9211242F937F
:1005D0003F934F935F936F937F938F939F93AF93CB
:1005E000BF93EF93FF938091D7028670823071F5AD
:1005F0002091D8023091D9028091D4029091D502F5
:1006000028173907A0F4E0ECF0E0808185FFFDCFEA
:10061000E8EDF2E0A081B181AC52BE4F8C918093A5
:10062000C600808191810196918380830FC080E014
:100630000E946E020E9474028091D70281608093B2
:10064000D7028091D702897F8093D702FF91EF91E3
:10065000BF91AF919F918F917F916F915F914F91DA
:100660003F912F910F900FBE0F901F9018951F92E2
:100670000F920FB60F9211242F933F934F935F93D6
:100680006F937F938F939F93AF93BF93CF93EF938A
:10069000FF939091C6008091D7028670823009F452
:1006A000B6C08091DA02823041F128F4882359F0F3
:1006B0008130C1F0ACC0843009F470C0A0F1853045
:1006C00009F479C0A4C09A3A21F481E08093DA0257
:1006D0009EC09C3C21F484E08093DA0298C0109282
:1006E000DA0295C08091D602891304C082E080931B
:1006F000DA028DC01092DA028AC0992389F08AEA60
:100700008093D4018091D6028093D5019093D60135
:100710001092D9021092D80283E08093DA0277C057
:100720001092DA0274C0E8EDF2E0A081B181A95222
:10073000BE4F9C938081918101969183808320811B
:1007400031818091D60190E002962817390708F48C
:100750005EC08091D70281608093D702E6EDF1E020
:10076000A081B0E0A952BE4FCC91608170E06D5F76
:100770007F4F84ED91E00E94CC02C81729F0809150
:10078000D70288608093D7028091D702897F8460E6
:100790008093D7028FEF8093DA0239C08CEC80937C
:1007A000D4019093D5011092D9021092D80285E01D
:1007B0008093DA022CC0E8EDF2E0A081B181AA5268
:1007C000BE4F9C938081918101969183808380812B
:1007D00091810297E0F08091D70281608093D702E7
:1007E000C091D70163E070E084ED91E00E94CC02FB
:1007F000C81729F08091D70288608093D702809132
:10080000D70286608093D7028FEF8093DA02FF9140
:10081000EF91CF91BF91AF919F918F917F916F9108
:100820005F914F913F912F910F900FBE0F901F90AE
:100830001895EE0FFF1F0590F491E02D0994A29FEB
:10084000B001B39FC001A39F700D811D1124911DA4
:10085000B29F700D811D1124911D0895F894FFCF52
:00000001FF
