S00C00006D61696E2E7372656373
S11300000C9448000C945A000C945A000C9410055B
S11300100C943D020C945A000C945A000C94D70191
S11300200C945A000C945A000C945A000C945A00E4
S11300300C945A000C945A000C94A7040C945A0083
S11300400C945A000C945A000C945A000C945A00C4
S11300500C945A000C945A000C945A000C945A00B4
S11300600C945A000C945A0041044B0455045F0448
S1130070690473047D04870491049B04C0F9A4B04B
S1130080999282F88090FF8883C6A1868EC28900E7
S113009011241FBECFEFD8E0DEBFCDBF21E0A0E02A
S11300A0B1E001C01D92A235B207E1F70E94CB0472
S11300B00C9493070C9400000E940C0360E070E021
S11300C080E090E00E94BA030895882311F02C9AEE
S11300D008952C9808953C983D98449A459AE8E6EA
S11300E0F0E0808182608083ECE6F0E080818063D0
S11300F08083249A2C9A63E082E00E94ED0482E0DB
S11301008093B00089EF8093B300E0E7F0E0808152
S113011082608083E1EBF0E08081856080831092CF
S11301202B0110922C0110922D0110922E01EFE25E
S1130130F1E088EE93E091838083808191810E9435
S11301400205EEE1F1E0108280810E94650081E009
S113015080931C0180930A0189E190E0909305014A
S11301608093040185E090E0909303018093020161
S11301708AE090E09093010180930001909307013D
S11301808093060110920901109208010895CF93FB
S1130190DF93D62FC72F0E9465008D2F9C2F0E94BE
S11301A00205DF91CF9108952F923F924F925F9273
S11301B06F927F928F929F92AF92BF92CF92DF9273
S11301C0EF92FF920F931F93CF93DF9300D000D051
S11301D01F92CDB7DEB74B013A0159010983209133
S11301E02301309124012A193B093D832C833323B5
S11301F034F444275527421B530B5D834C83EC8115
S1130200FD81E89FB001E99F700DF89F700D1124E6
S113021080E090E00E948D0629E835E246E15EE345
S11302200E941B070E9461066B017C017B836A8329
S11302308091250190912601689E1001699E300CE1
S1130240789E300C112408E011E0F801608171817E
S113025080E090E00E948D062B013C012C813D81C1
S1130260289DC001299D900D389D900D1124BC013D
S113027080E090E00E948D0629E835E246E15EE3E5
S11302800E941B0720E030E040E251E40E94F9059F
S11302909B01AC01C301B2010E9495050E94610655
S11302A0F801718360834081518180912F01909185
S11302B030012091230130912401A216B30610F5D8
S11302C08C159D0510F08C199D09849E9001859EC6
S11302D0300D949E300D11248217930718F0821B61
S11302E0930B03C0009709F00197209125013091E9
S11302F0260112161306E4F582159305C8F1821936
S1130300930936C020912301309124012A153B051D
S113031048F5C80ED91EC11434E0D30608F06C01A8
S1130320C601840F951F811544E0940738F0C60177
S11303300196811554E0950708F0C6012091250126
S1130340309126013323A4F49101332024F422278D
S1130350332722193309280F391F2115E4E03E07FA
S113036030F006C0109209011092080101C0C901C1
S11303709093300180932F01682F792F89810F90FA
S11303800F900F900F900F90DF91CF911F910F91CD
S1130390FF90EF90DF90CF90BF90AF909F908F90A1
S11303A07F906F905F904F903F902F9008951F9291
S11303B00F920FB60F9211240F932F933F934F93E5
S11303C05F936F937F938F939F93AF93BF93EF93B9
S11303D0FF9380911B01811139C080911C0180938E
S11303E01B01AFE1B1E08D919C911197E3E2F1E043
S11303F09183808311961C921E9280819181A1E247
S1130400B1E02D913C911197821B930B909326019F
S1130410809325018081918111969C938E93009104
S11304200A01209106013091070140910401509185
S11304300501609102017091030180910001909186
S113044001010E94D4000E94C70005C0EBE1F1E065
S1130450808181508083FF91EF91BF91AF919F91F3
S11304608F917F916F915F914F913F912F910F9158
S11304700F900FBE0F901F9018951F920F920FB6FA
S11304800F9211242F938F939F93AF93BF93EF9366
S1130490FF9386B182958170359982608130B1F085
S11304A028F0823011F1833081F13DC090911D011B
S11304B0913019F410921E0136C090911D019230B2
S11304C009F07FC091E090931E012DC090911D0111
S11304D0933019F410921E0126C090911D019111C0
S11304E070C091E090931E011EC090911D01911166
S11304F003C010921E0117C090911D01933009F0A2
S113050060C091E090931E010EC090911D01923045
S113051019F410921E0107C090911D01913009F049
S113052050C090931E0180931D01EFE1F1E08081A2
S1130530918101969183808380911E01882311F11A
S113054080912B0190912C01A0912D01B0912E014D
S113055081159842AB46BE4E20F082E080931A018A
S113056030C081E080931A01EBE2F1E08081918157
S1130570A281B3810196A11DB11D80839183A283C1
S1130580B3831FC080912B0190912C01A0912D0168
S1130590B0912E01892B8A2B8B2B19F410921A01FE
S11305A010C081E080931A01EBE2F1E08081918137
S11305B0A281B3810197A109B10980839183A283A8
S11305C0B383FF91EF91BF91AF919F918F912F9141
S11305D00F900FBE0F901F901895399A389A3A9A37
S11305E0409A41984298089527E030E090E0AC01A9
S11305F0022E02C0559547950A94E2F740FF02C0C7
S1130600409A01C04098419A41982150310978F7A5
S11306100895429A4298089582E084BD89EF87BD87
S1130620EEE6F0E080818260808385B5836085BDDD
S11306300E94ED020895CF93DF93AC01FB0180315A
S113064027E2920708F08BC09C01ADECBCEC0E9441
S11306508407EC01D695C795D695C795D695C795C9
S11306609E01220F331FCE01880F991F880F991FF7
S1130670880F991F820F931F9A01281B390B23831C
S11306809E010E94840796958795969587959695E1
S113069087959C01220F331F880F991F880F991F7C
S11306A0880F991F820F931FC81BD90BC2839A010D
S11306B03695279536952795ABE7B4E10E948407D4
S11306C0EC01D695C7959E01ADECBCEC0E94840765
S11306D09695879596958795969587959C01220F73
S11306E0331F880F991F880F991F880F991F820F36
S11306F0931FC81BD90BC1839A013695279536954C
S1130700279536952795A5ECB0E20E948407AC01A5
S1130710529542954F7045275F7045279A01ADEC7D
S1130720BCEC0E9484079695879596958795969537
S113073087959C01220F331F880F991F880F991FDB
S1130740880F991F820F931F481B590B408307C0C2
S1130750908191110CC021938150D1F708C0808100
S1130760811105C08AE0819383E02AE0F1CFDF9113
S1130770CF9108950F931F93CF93DF9300D000D0B0
S1130780CDB7DEB78B01803127E2920708F5BE01B1
S11307906F5F7F4F0E941B03E981F0E0E458FF4F35
S11307A0E491E0933401EA81F0E0E458FF4FE491EE
S11307B0E0933501EB81F0E0E458FF4FE491E093DE
S11307C03601EC81F0E0E458FF4FE491E093370107
S11307D0003187E2180710F5BE016F5F7F4FC80133
S11307E00E941B03E981F0E0E458FF4FE491E09399
S11307F03801EA81F0E0E458FF4FE491E0933901D5
S1130800EB81F0E0E458FF4FE491E0933A01EC818E
S1130810F0E0E458FF4FE491E0933B010F900F9018
S11308200F900F90DF91CF911F910F9108951F9317
S1130830CF93DF93162FC1E0D0E09E0102C0220FB8
S1130840331F8A95E2F7E901C095D0958D2F0E9458
S1130850F4028C2F0E94F402812F0E94F4020E9461
S11308600903DF91CF911F91089580913E0190E09B
S11308708A30910508F068C0FC01EC5CFF4F0C94D1
S11308807E076091350170E080E00E94170481E0EA
S113089080933E0108956091360170E081E00E94EA
S11308A0170482E080933E0108956091370170E05F
S11308B082E00E94170483E080933E0108956091D2
S11308C0390170E083E00E94170484E080933E01C4
S11308D0089560913A0170E084E00E94170485E075
S11308E080933E01089560913B0170E085E00E9491
S11308F0170486E080933E0108956091340170E00E
S113090086E00E94170487E080933E010895609179
S1130910380170E087E00E94170488E080933E016C
S1130920089560913C0170E088E00E94170489E01A
S113093080933E01089560913D0170E089E00E943A
S1130940170410923E01089510923E0108951F92DB
S11309500F920FB60F9211242F933F934F935F93EF
S11309606F937F938F939F93AF93BF93EF93FF9373
S11309700E943504FF91EF91BF91AF919F918F91A8
S11309807F916F915F914F913F912F910F900FBE87
S11309900F901F9018950E946B000E945C00789441
S11309A08CE79CEF90934E0180934D012FEF81EEE5
S11309B094E0215080409040E1F700C00000809115
S11309C04D0190914E0199231CF4919581959109C3
S11309D062E370E00E94BA03E9CF94B1966094B9DF
S11309E0606A609380008093810010928500109269
S11309F08400109289001092880010928B0010924B
S1130A008A00089590938B0080938A000895E8E605
S1130A10F0E080818E7F808381E08093510108958E
S1130A201F920F920FB60F9211242F933F934F935F
S1130A305F936F937F938F939F93AF93BF93EF9342
S1130A40FF93189960C0189B56C05DC018995BC08D
S1130A50EFE1F3E03197F1F700C000008150B1F706
S1130A60189951C02CE080E090E0189BFECFEFE194
S1130A70FDE03197F1F700C00000189B12C01899EF
S1130A80FECF189BFECFEFE1FDE03197F1F700C0F8
S1130A900000189B38C0880F991F81601899FECFF9
S1130AA012C0189BFECFEFE1FDE03197F1F700C0D3
S1130AB00000189903C0880F991F05C0880F991F5B
S1130AC081601899FECF215081F62091500130E0C9
S1130AD0AC01529542954F7045275F7045274217E8
S1130AE0530789F48F709927009769F080934F0119
S1130AF00E94070508C08FE193E00197F1F700C059
S1130B00000081E3A3CFFF91EF91BF91AF919F913B
S1130B108F917F916F915F914F913F912F910F90A2
S1130B200FBE0F901F9018955058BB27AA270ED0C0
S1130B3048C139D130F03ED120F031F49F3F11F457
S1130B401EF42EC10EF4E095E7FB24C1E92F4AD12F
S1130B5080F3BA17620773078407950718F071F4D6
S1130B609EF562C10EF4E0950B2EBA2FA02D0B0159
S1130B70B90190010C01CA01A0011124FF27591BDE
S1130B8099F0593F50F4503E68F11A16F040A22FE4
S1130B90232F342F4427585FF3CF46953795279555
S1130BA0A795F0405395C9F77EF41F16BA0B620B54
S1130BB0730B840BBAF09150A1F0FF0FBB1F661F9B
S1130BC0771F881FC2F70EC0BA0F621F731F841FDE
S1130BD048F4879577956795B795F7959E3F08F004
S1130BE0B3CF9395880F08F09927EE0F97958795C3
S1130BF008950CD0E6C0DED040F0D5D030F021F41A
S1130C005F3F19F0C7C0511110C1CAC0EBD098F3AF
S1130C109923C9F35523B1F3951B550BBB27AA2779
S1130C2062177307840738F09F5F5F4F220F331FEB
S1130C30441FAA1FA9F333D00E2E3AF0E0E830D0B7
S1130C4091505040E695001CCAF729D0FE2F27D0BA
S1130C50660F771F881FBB1F261737074807AB0788
S1130C60B0E809F0BB0B802DBF01FF2793585F4FFD
S1130C702AF09E3F510568F08DC0D7C05F3FECF36A
S1130C80983EDCF3869577956795B795F7959F5FC2
S1130C90C9F7880F911D9695879597F90895E1E016
S1130CA0660F771F881FBB1F621773078407BA0775
S1130CB020F0621B730B840BBA0BEE1F88F7E095D0
S1130CC0089598D088F09F5790F0B92F9927B7517D
S1130CD0A0F0D1F0660F771F881F991F1AF0BA95FC
S1130CE0C9F712C0B13081F09FD0B1E008959CC023
S1130CF0672F782F8827B85F39F0B93FCCF38695F2
S1130D0077956795B395D9F73EF49095809570954E
S1130D1061957F4F8F4F9F4F0895E89409C097FBCB
S1130D203EF490958095709561957F4F8F4F9F4FBE
S1130D309923A9F0F92F96E9BB279395F695879502
S1130D4077956795B795F111F8CFFAF4BB0F11F4C5
S1130D5060FF1BC06F5F7F4F8F4F9F4F16C088236C
S1130D6011F096E911C0772321F09EE8872F762FA2
S1130D7005C0662371F096E8862F70E060E02AF0E3
S1130D809A95660F771F881FDAF7880F96958795CF
S1130D9097F9089597F99F6780E870E060E00895F7
S1130DA09FEF80EC089500240A941616170618067F
S1130DB00906089500240A9412161306140605065B
S1130DC00895092E0394000C11F4882352F0BB0FEC
S1130DD040F4BF2B11F460FF04C06F5F7F4F8F4F4F
S1130DE09F4F089557FD9058440F551F59F05F3F8A
S1130DF071F04795880F97FB991F61F09F3F79F039
S1130E0087950895121613061406551FF2CF4695BA
S1130E10F1DF08C0161617061806991FF1CF86953C
S1130E207105610508940895E894BB276627772720
S1130E30CB0197F908950BD0C4CFB5DF28F0BADF02
S1130E4018F0952309F0A6CFABCF1124EECFCADF5B
S1130E50A0F3959FD1F3950F50E0551F629FF001C9
S1130E60729FBB27F00DB11D639FAA27F00DB11D22
S1130E70AA1F649F6627B00DA11D661F829F2227AB
S1130E80B00DA11D621F739FB00DA11D621F839F32
S1130E90A00D611D221F749F3327A00D611D231F08
S1130EA0849F600D211D822F762F6A2F11249F5756
S1130EB050408AF0E1F088234AF0EE0FFF1FBB1F79
S1130EC0661F771F881F91505040A9F79E3F510518
S1130ED070F060CFAACF5F3FECF3983EDCF38695C9
S1130EE077956795B795F795E7959F5FC1F7FE2BC3
S1130EF0880F911D9695879597F90895EE0FFF1F1A
S1130F000590F491E02D0994A29FB001B39FC00114
S1130F10A39F700D811D1124911DB29F700D811D21
S10D0F201124911D0895F894FFCFE9
S9030000FC
