S00C00006D61696E2E7372656373
S11300000C945A000C9477000C9477000C947700AD
S11300100C9477000C9477000C9477000C94DF0414
S11300200C9477000C9477000C9477000C94770070
S11300300C9477000C9477000C9477000C94770060
S11300400C9477000C9477000C9477000C94770050
S11300500C9477000C9477000C9477000C94770040
S11300600C9477000C947700D500D900DD00E100F2
S1130070E500F000E900ED00BF04C104C304C504B9
S1130080C704C904CB04CD04CF04D104D304D504DC
S1130090D704D904DB0437053D05430549054F055D
S11300A055055B05610567056D05730579057F05D4
S11300B085058B0511241FBECFEFD8E0DEBFCDBF71
S11300C021E0A0E0B1E001C01D92A833B207E1F73E
S11300D011E0A0E0B1E0E4E8FBE002C005900D927D
S11300E0A030B107D9F70E94DD010C94C0050C942F
S11300F000000F931F93CF93DF93CDB7DEB76097C4
S11301000FB6F894DEBF0FBECDBF8C01611571052B
S113011099F120E030E090E0492F50E0FA01EE0F31
S1130120FF1F4E0F5F1FF901EE0FFF1F2E0F3F1F22
S1130130F801E20FF31F21E030E02C0F3D1F240FE4
S1130140351F8081D9018C9322E030E02C0F3D1FB4
S1130150240F351F8181D9018C9323E030E02C0FCB
S11301603D1F420F531F2281DA012C939F5F292FD9
S113017030E02617370780F2CE0101960E949705DA
S113018060960FB6F894DEBF0FBECDBFDF91CF915E
S11301901F910F910895482F50E04830510500F504
S11301A0FA01EC5CFF4F0C94BA0590E020E030E0DB
S11301B017C090E020E032E313C090E022E330E087
S11301C00FC092E320E030E00BC090E022E332E382
S11301D007C092E320E032E303C092E322E332E378
S11301E0632F722F892F0895FC01DB0192811296EF
S11301F08C91129798130AC0918111968C91119742
S1130200981304C090818C91981769F1442369F183
S113021090E080812C91281718F48150808304C0C9
S1130220821710F48F5F8083818111962C9111972E
S1130230281718F48150818304C0821710F48F5F4B
S11302408183828112962C911297281718F4815079
S1130250828304C0821710F48F5F82839F5F94139C
S1130260D8CF80E0089581E0089580E008952F922A
S11302703F924F925F926F927F928F929F92AF9232
S1130280BF92CF92DF92EF92FF920F931F93CF937F
S1130290DF9300D000D000D0CDB7DEB70C831D8330
S11302A02E83FB01EE0FFF1FE60FF71FE80FF91F68
S11302B060807180828069827A828B823B812E8108
S11302C03217F1F0461B570B2A012FEF421A520A3C
S11302D019F0D42CF52C02C0D12CF12C3C016F5F09
S11302E07F4F460F571F4A01880C991C840E951E98
S11302F0880E991E2E2E3F2E0E2D10E0E12C09C0E3
S113030039812C813213DECF3A812D813213DACF39
S11303103BC04114510459F0E22DF32D89819A8197
S1130320AB8181939193A193E815F905B9F76D2DEC
S11303307F2DC3010E9479000115110561F08E2DF6
S113034090E0EFE9FFE03197F1F700C0000001967B
S113035080179107B1F74C2DBE016C5F7F4FCE0122
S113036001960E94F4008823A1F2A114B10461F063
S113037080E090E0EFE9FFE03197F1F700C0000082
S113038001968A159B05B1F726960FB6F894DEBF41
S11303900FBECDBFDF91CF911F910F91FF90EF90D2
S11303A0DF90CF90BF90AF909F908F907F906F9091
S11303B05F904F903F902F900895A8959CE088E11E
S11303C00FB6F894A895809360000FBE90936000D8
S11303D00E9485040E94A20452985A9A519A7894D1
S11303E081E00E94CB000F2EF4E1AF2EB12CF02D52
S11303F06894CC24C1F8EE24E3948B01282F44E0C4
S113040050E060E070E084E091E00E94370182E017
S11304100E94CB008B01282F44E050E060E070E0A4
S113042084E091E00E94370183E00E94CB008B01BD
S1130430282F44E050E060E070E084E091E00E9406
S1130440370184E00E94CB008B01282F44E050E068
S113045060E070E084E091E00E94370185E00E9452
S1130460CB008B01282F44E050E060E070E084E092
S113047091E00E94370186E00E94CB008B01282F77
S113048044E050E060E070E084E091E00E943701D5
S113049087E00E94CB008B01282F44E050E060E00D
S11304A070E084E091E00E94370180E00E94CB007C
S11304B08B01282F44E050E060E070E084E091E09C
S11304C00E94370187E00E94CB008B01282F44E073
S11304D050E060E070E084E091E00E94370180E049
S11304E00E94CB008B01282F44E050E060E070E0D4
S11304F084E091E00E94370187E00E94CB008B01E9
S1130500282F44E050E060E070E084E091E00E9435
S1130510370180E00E94CB008B01282F44E050E09B
S113052060E070E084E091E00E94370187E00E947F
S1130530CB008B01282F44E050E060E070E084E0C1
S113054091E00E94370187E00E94CB008B01282FA5
S113055044E050E060E070E084E091E00E94370104
S113056081E00E94CB008B01282F44E050E060E042
S113057070E084E091E00E94370187E00E94CB00A4
S11305808B01282F44E050E060E070E084E091E0CB
S11305900E94370182E00E94CB008B01282F44E0A7
S11305A050E060E070E084E091E00E94370187E071
S11305B00E94CB008B01282F44E050E060E070E003
S11305C084E091E00E94370183E00E94CB008B011C
S11305D0282F44E050E060E070E084E091E00E9465
S11305E0370181E00E94CB008B01282F44E050E0CA
S11305F060E070E084E091E00E94370180E00E94B6
S1130600CB008B01282F44E050E060E070E084E0F0
S113061091E00E94370182E00E94CB008B01282FD9
S113062044E050E060E070E084E091E00E94370133
S113063080E00E94CB008B01282F44E050E060E072
S113064070E084E091E00E94370183E00E94CB00D7
S11306508B01282F44E050E060E070E084E091E0FA
S11306600E94370180E00E94CB008B01282F44E0D8
S113067050E060E070E084E091E00E94370181E0A6
S11306800E94CB008B01282F44E050E060E070E032
S113069084E091E00E94370182E00E94CB008B014C
S11306A0282F44E050E060E070E084E091E00E9494
S11306B0370183E00E94CB008B01282F44E050E0F7
S11306C060E070E084E091E00E94370184E00E94E1
S11306D0CB008B01282F44E050E060E070E084E020
S11306E091E00E94370185E00E94CB008B01282F06
S11306F044E050E060E070E084E091E00E94370163
S113070086E00E94CB008B01282F44E050E060E09B
S113071070E084E091E00E94370187E00E94CB0002
S11307208B01282F44E050E060E070E084E091E029
S11307300E94370180E00E94CB008B01282F44E007
S113074050E060E070E084E091E00E94370187E0CF
S11307500E94CB008B01282F44E050E060E070E061
S113076084E091E00E94370180E00E94CB008B017D
S1130770282F44E050E060E070E084E091E00E94C3
S1130780370187E00E94CB008B01282F44E050E022
S113079060E070E084E091E00E94370180E00E9414
S11307A0CB008B01282F44E050E060E070E084E04F
S11307B091E00E94370187E00E94CB008B01282F33
S11307C044E050E060E070E084E091E00E94370192
S11307D087E00E94CB008B01282F44E050E060E0CA
S11307E070E084E091E00E94370181E00E94CB0038
S11307F08B01282F44E050E060E070E084E091E059
S11308000E94370187E00E94CB008B01282F44E02F
S113081050E060E070E084E091E00E94370182E003
S11308200E94CB008B01282F44E050E060E070E090
S113083084E091E00E94370187E00E94CB008B01A5
S1130840282F44E050E060E070E084E091E00E94F2
S1130850370183E00E94CB008B01282F44E050E055
S113086060E070E084E091E00E94370181E00E9442
S1130870CB008B01282F44E050E060E070E084E07E
S113088091E00E94370180E00E94CB008B01282F69
S113089044E050E060E070E084E091E00E943701C1
S11308A082E00E94CB008B01282F44E050E060E0FE
S11308B070E084E091E00E94370180E00E94CB0068
S11308C08B01282F44E050E060E070E084E091E088
S11308D00E94370183E00E94CB008B01282F44E063
S11308E050E060E070E084E091E00E94370180E035
S11308F00E94CB008B01282F44E050E060E070E0C0
S113090084E091E00E9437016BCD84B18F6384B998
S113091087B18F6387B98AB1806F8AB9089580914E
S1130920240195B1806C892385B98091230198B104
S1130930806C892388B9809126019BB18F608923BB
S11309408BB90895E0E7F0E0808182608083E0EB7A
S1130950F0E0808182608083E1EBF0E0808183605D
S1130960808382E38093B3007894089590E08F307D
S1130970910518F5FC01E45CFF4F0C94BA05459A07
S11309800895449A0895439A0895429A0895419A7D
S11309900895409A08952D9A08952C9A08952B9AB3
S11309A008952A9A0895299A0895289A08955F9A8D
S11309B008955E9A08955D9A08955C9A08951F9229
S11309C00F920FB60F9211242F933F934F935F937F
S11309D06F937F938F939F93AF93BF93EF93FF9303
S11309E0A8951092370180912501811105C00E94BC
S11309F08F0482E380932501809137018031B8F41C
S1130A00E0913701F0E0E95DFE4F9081809125018E
S1130A10981720F0809137010E94B6048091370125
S1130A208F5F8093370180913701803148F3809143
S1130A302501815080932501FF91EF91BF91AF91E2
S1130A409F918F917F916F915F914F913F912F91E2
S1130A500F900FBE0F901F90189590E08F30910566
S1130A6008F05FC0FC01E55BFF4F0C94BA05809170
S1130A702301806280932301089580912301806182
S1130A80809323010895809123018860809323013A
S1130A9008958091230184608093230108958091B7
S1130AA02301826080932301089580912301816052
S1130AB0809323010895809124018062809324010E
S1130AC00895809124018061809324010895809188
S1130AD02401886080932401089580912401846016
S1130AE080932401089580912401826080932401DD
S1130AF00895809124018160809324010895809158
S1130B0026018068809326010895809126018064DF
S1130B1080932601089580912601806280932601A6
S1130B2008958091260180618093260108950F9392
S1130B301F93CF93DF9310922401109223011092FC
S1130B4026018C01C0E0D0E0F80181918F01FE0103
S1130B50E95DFE4F80838081823318F08C2F0E94E0
S1130B602D052196C031D10579F7DF91CF911F91E1
S1130B700F910895EE0FFF1F0590F491E02D099455
S1070B80F894FFCF13
S9030000FC
