S00C00006D61696E2E7372656373
S11300000C9485000C94A2000C94A2000C94A20001
S11300100C94A2000C94A2000C94A2000C94A200D4
S11300200C94A2000C94A2000C94A2000C94A200C4
S11300300C94A2000C94A2000C94A2000C94A200B4
S11300400C94A2000C94A2000C94A2000C94A200A4
S11300500C94A2000C94A2000C94A2000C94A20094
S11300600C9412020C94A2002C027E027E027E02E8
S11300707E027E027E027E022C027E027E027E02CE
S11300807E027E027E027E022E027E027E027E02BC
S11300907E027E027E027E027E027E027E027E025C
S11300A07E027E027E027E022E027E027E027E029C
S11300B07E027E027E027E027E027E027E027E023C
S11300C07E027E027E027E027A027E027E027E0230
S11300D07E027E027E027E0257027E027E027E0243
S11300E07E027E027E027E027E027E027E027E020C
S11300F07E027E027E027E024B027E027E027E022F
S11301007E027E027E027E02690211241FBECFEFB0
S1130110D8E0DEBFCDBF11E0A0E0B1E0EEE6F7E04D
S113012002C005900D92A230B107D9F721E0A2E0F8
S1130130B1E001C01D92A035B207E1F70E94A4000E
S11301400C94B5030C9400000E944C012FEF81EE37
S113015094E0215080409040E1F700C0000080E12D
S11301608093460141E066E471E087E00E947A01F1
S11301702FEF81EE94E0215080409040E1F700C0E1
S113018000001092460141E066E471E080E00E94C4
S11301907A0183E00E94FF0083E00E94090184E069
S11301A00E941E0141E066E471E080E00E94D101FA
S11301B08823D9F0C6E4D1E088810E944101682FE8
S11301C070E080E090E00E94C00220E030E048E867
S11301D050E40E9424030E949202862F6883E62E34
S11301E0062F262F462F0E942C012FEF81EE94E03C
S11301F0215080409040E1F700C00000D3CF9AB175
S113020090669AB991EA94BD85BD16BC17BC18BC1A
S1130210089594B1966094B991EA90938000809384
S1130220810010928500109284001092890010922F
S1130230880010928B0010928A000895239A539A92
S113024091EA9093B0008093B1001092B2001092A2
S1130250B3001092B4000895EF920F938093B3000B
S113026070E070938B0060938A0050E05093890093
S11302704093880027BD08BDE092B4000F91EF9031
S11302800895982F92959F70990F292F220F220F6E
S1130290920F8F70890F089588E28093B8008FEFD2
S11302A08093BB0084E08093BC000895ECEBF0E005
S11302B0208120FDFDCF60930401FC012081209367
S11302C0050120FD0EC0623060F03196A6E0B1E079
S11302D002966250860F911D21912D93E817F9071C
S11302E0D9F71092030188EF8093000185EA809387
S11302F0BC0008950F931F93CF93DF93CDB7DEB760
S11303000DB71EB7242F30E02E5F3F4FEDB7FEB779
S1130310E21BF30B0FB6F894FEBF0FBEEDBF2DB773
S11303203EB72F5F3F4F90ED9183F90181834423C2
S113033059F0962FD9011296E62FF72F81918D93BC
S11303408E2F891B8417D0F3789462E0640FC9015F
S11303500E9456010FB6F8941EBF0FBE0DBFDF9169
S1130360CF911F910F910895ECEBF0E0208120FDD7
S1130370FDCF2091030120FF10C0662371F0E5E05A
S1130380F1E0A82FB92F6150862F90E08A5F9E4F2D
S113039021912D93E817F907D9F780910301817012
S11303A00895DF92EF92FF920F931F93CF93DF9301
S11303B000D0CDB7DEB7D62EF72EE42E789440E0E9
S11303C0BE016F5F7F4F0E947A01EE20E1F00D2D98
S11303D01F2DF12C0F2EF1EDDF2EF02DD98261E0CF
S11303E0CE0101960E94560162E0CE0101960E9460
S11303F0B401813051F48A81F80181938F01F3941F
S1130400FE10ECCF04C081E003C080E001C081E0B5
S11304100F900F90DF91CF911F910F91FF90EF906C
S1130420DF9008951F920F920FB60F9211242F930D
S11304303F938F939F93AF93BF93EF93FF938091D9
S1130440B90090E0FC013897E135F10508F056C099
S1130450EC5CFF4F0C94AF0310920201E091020197
S113046080910401E81770F481E08E0F80930201FB
S1130470F0E0EB5FFE4F80818093BB0085E88093C2
S1130480BC0043C08091030181608093030184E92F
S11304908093BC003AC0E091020181E08E0F80930A
S11304A002018091BB00F0E0EB5FFE4F808320915E
S11304B0020130E08091040190E001972817390788
S11304C024F485EC8093BC0020C085E88093BC00B4
S11304D01CC08091BB00E0910201F0E0EB5FFE4F95
S11304E080838091030181608093030184E9809378
S11304F0BC000BC085EA8093BC0007C08091B900A2
S11305008093000184E08093BC00FF91EF91BF9140
S1130510AF919F918F913F912F910F900FBE0F90AC
S11305201F90189570D088F09F5790F0B92F992795
S1130530B751A0F0D1F0660F771F881F991F1AF0EA
S1130540BA95C9F712C0B13081F077D0B1E00895FF
S113055074C0672F782F8827B85F39F0B93FCCF380
S1130560869577956795B395D9F73EF490958095E0
S1130570709561957F4F8F4F9F4F0895E89409C000
S113058097FB3EF490958095709561957F4F8F4FC2
S11305909F4F9923A9F0F92F96E9BB279395F695D8
S11305A0879577956795B795F111F8CFFAF4BB0F56
S11305B011F460FF1BC06F5F7F4F8F4F9F4F16C0BA
S11305C0882311F096E911C0772321F09EE8872F44
S11305D0762F05C0662371F096E8862F70E060E000
S11305E02AF09A95660F771F881FDAF7880F969579
S11305F0879597F9089557FD9058440F551F59F062
S11306005F3F71F04795880F97FB991F61F09F3FFB
S113061079F087950895121613061406551FF2CF24
S11306204695F1DF08C0161617061806991FF1CF74
S113063086957105610508940895E894BB2766279B
S11306407727CB0197F908950BD078C069D028F0AB
S11306506ED018F0952309F05AC05FC01124EECF74
S1130660CADFA0F3959FD1F3950F50E0551F629F09
S1130670F001729FBB27F00DB11D639FAA27F00DF7
S1130680B11DAA1F649F6627B00DA11D661F829F1E
S11306902227B00DA11D621F739FB00DA11D621F03
S11306A0839FA00D611D221F749F3327A00D611D20
S11306B0231F849F600D211D822F762F6A2F112402
S11306C09F5750408AF0E1F088234AF0EE0FFF1F55
S11306D0BB1F661F771F881F91505040A9F79E3F8C
S11306E0510570F014C0AACF5F3FECF3983EDCF3E1
S11306F0869577956795B795F795E7959F5FC1F7C9
S1130700FE2B880F911D9695879597F9089597F973
S11307109F6780E870E060E008959FEF80EC0895A3
S113072000240A94161617061806090608950024CC
S11307300A9412161306140605060895092E039446
S1130740000C11F4882352F0BB0F40F4BF2B11F4BA
S113075060FF04C06F5F7F4F8F4F9F4F0895EE0F70
S1110760FF1F0590F491E02D0994F894FFCF4B
S105076EF8008D
S9030000FC
