:100000000C94A0000C94A8060C94D5060C94C8007F
:100010000C9426230C94C8000C94C8000C94290658
:100020000C94C8000C94C8000C94C8000C94C80030
:100030000C94C8000C9456220C94590A0C94C800D5
:100040000C9402070C94C8000C94C2020C94070391
:100050000C94C8000C94C8000C94C8000C94C80000
:100060000C94C8000C94C8000200000007000201B4
:10007000000003040600000000000000000102046C
:10008000081020408001020408102001020408101A
:100090002004040404040404040202020202020311
:1000A00003030303030000000023002600290000CF
:1000B000000000250028002B00000000002400277D
:1000C000002A007C3C3E5E2B3D3F2F5B5D3B2C2A93
:1000D000225C005344206661696C65642C206F7259
:1000E000206E6F742070726573656E7400565331A4
:1000F0003035332072656164792100436F756C641B
:100100006E27742066696E64205653313035332C67
:1001100020646F20796F752068617665207468654A
:100120002072696768742070696E732064656669FF
:100130006E65643F00000B0495046B10EB138D2477
:1001400011241FBECFEFD8E0DEBFCDBF11E0A0E08D
:10015000B1E0E8E5FAE402C005900D92AC3CB107CD
:10016000D9F725E0ACECB1E001C01D92A03BB2078D
:10017000E1F710E0C0EAD0E004C02197FE010E9440
:10018000EE24CB39D107C9F70E94A1040C942A258B
:100190000C940000CF93DF93AC018230910510F4F2
:1001A00042E050E0E091AE05F091AF05309709F4E0
:1001B00059C080E090E0A0E0B0E0208131812417B8
:1001C000350710F14217530791F4109739F08281E7
:1001D000938113969C938E93129706C0828193818C
:1001E0009093AF058093AE05CF0102967DC0009736
:1001F00021F02817390728F007C0C901BD01EF0118
:1002000003C0C901BD01EF012281338121153105F0
:1002100019F0DF01F901D1CF009721F19C01241BD6
:10022000350B2430310590F46115710531F08A8168
:100230009B81FB019383828306C08A819B8190937B
:10024000AF058093AE05CE0102964EC0CE01820F5F
:10025000931FFC0141935193CF01225031093983FF
:10026000288342C08091AC059091AD05892B41F463
:1002700080910201909103019093AD058093AC05AC
:1002800020910001309101012115310541F42DB774
:100290003EB78091040190910501281B390B809194
:1002A000AC059091AD0582179307B0F4281B390B6C
:1002B00024173507A0F0BA016E5F7F4F2617370766
:1002C00088F0680F791F7093AD056093AC05FC0151
:1002D00041935193CF0108C080E090E005C080E0D9
:1002E00090E002C080E090E0DF91CF9108950F93FD
:1002F0001F93CF93DF93009709F49CC0DC01129702
:1003000013961C921E921297E091AE05F091AF05E4
:10031000309729F0EA17FB0718F58F011BC0FC0185
:10032000329720813181820F931F2091AC0530914B
:10033000AD052817390729F4B093AD05A093AC0596
:1003400079C0B093AF05A093AE0574C0EA17FB0760
:1003500048F48F01E801EA81FB813097B9F725C0A5
:1003600000E010E09C0122503109E901FB83EA839F
:1003700028813981AC01420F531FE417F50769F456
:1003800060817181260F371F2E5F3F4FEC013A933A
:100390002A93228133813B832A830115110529F495
:1003A000B093AF05A093AE0545C0F801B383A28317
:1003B00021913191E20FF31FAE17BF0789F4FC01C1
:1003C00092918291280F391F2E5F3F4FD8011196CD
:1003D0003C932E938281938113969C938E931297D4
:1003E000E091AE05F091AF05A0E0B0E0828193818D
:1003F000009719F0DF01FC01F9CF808191819F0105
:100400002E5F3F4F820F931F2091AC053091AD05B9
:100410002817390779F4109729F41092AF05109234
:10042000AE0504C013961C921E921297F093AD0570
:10043000E093AC05DF91CF911F910F910895FC01DE
:1004400024853585F901E05CFF4F808191813296EA
:1004500020813181805C9F4F821B930B8F7390783A
:10046000992324F40197806C9F6F01960895FC01F5
:1004700084859585FC01E05CFF4F40815181329677
:10048000208131814217530741F020813181FC01E5
:10049000E20FF31F808190E008958FEF9FEF0895A2
:1004A000FC0184859585FC01E05CFF4F4081518112
:1004B0003296208131814217530781F020813181AA
:1004C000DC01A20FB31F8C91208131812F5F3F4F40
:1004D0002F7333273183208390E008958FEF9FEFB0
:1004E0000895FC0181A1882329F0A489B5898C9104
:1004F00086FFFBCF11A20895DC011E968D919C9181
:100500001F97FC01E05CFF4F408151814F5F5F4FBF
:100510004F73552732962081318142175307D9F303
:10052000FC01E05CFF4F20813181FC01E20FF31FF1
:1005300060831E96ED91FC911F97E05CFF4F518305
:1005400040835696ED91FC915797408121E030E031
:10055000C9015F960C905F9702C0880F991F0A949B
:10056000E2F7842B808381E091968C939197549647
:10057000ED91FC91559780818064808381E090E0CB
:10058000089508951F920F920FB60F9211242F9382
:100590003F934F938F939F93AF93BF93EF93FF93AB
:1005A0008091C00082FD1AC04091C6008091720205
:1005B0009091730201968F73992720917402309164
:1005C00075028217930761F0E2E7F2E0A081B18142
:1005D000AE5CBD4F4C939183808302C08091C60076
:1005E000FF91EF91BF91AF919F918F914F913F916B
:1005F0002F910F900FBE0F901F9018958CEC91E0EB
:100600000E941F02892B11F00E94C10208951F92BF
:100610000F920FB60F9211242F933F938F939F93B6
:10062000AF93BF93EF93FF9320912E0230912F024F
:1006300080913002909131022817390731F4E1ECB2
:10064000F0E080818F7D808310C0E0E3F2E0A08144
:10065000B181A251BE4F2C918081918101968F73FF
:100660009927918380832093C600FF91EF91BF91DA
:10067000AF919F918F913F912F910F900FBE0F904F
:100680001F9018958F929F92AF92BF92CF92DF9258
:10069000EF92FF920F931F93CF93DF93CDB7DEB707
:1006A000FC011382128288EE93E0A0E0B0E0848324
:1006B0009583A683B7838FE091E0918380837587CC
:1006C000648757874687318B208B138B028BF58A83
:1006D000E48AD78AC68AB18EA08E938E828E8F8549
:1006E000848F8889858F8989868F8A89878F8B896E
:1006F00080A3DF91CF911F910F91FF90EF90DF903A
:10070000CF90BF90AF909F908F900895CF92DF923F
:10071000EF92FF92CF93DF93EC016A017B014115C9
:1007200081EE58076105710509F1EC89FD8981E0C9
:1007300090E008A002C0880F991F0A94E2F7808316
:1007400060E079E08DE390E0A70196010E94A22489
:10075000BA01A9014150510961097109769567955E
:1007600057954795411580E15807A8F0EC89FD8918
:10077000108260E874E88EE190E0A70196010E9483
:10078000A224BA01A9014150510961097109769564
:10079000679557954795E889F9895083EA89FB89D8
:1007A000408319A2EE89FF89408181E090E09C019D
:1007B0000C8C02C0220F331F0A94E2F7242B2083F3
:1007C000EE89FF8940819C010D8C02C0220F331FEE
:1007D0000A94E2F7242B2083EE89FF8940819C0153
:1007E0000E8C02C0220F331F0A94E2F7242B2083C1
:1007F000EE89FF8920810F8C02C0880F991F0A940F
:10080000E2F7809582238083DF91CF91FF90EF9074
:10081000DF90CF9008958F929F92AF92BF92CF9228
:10082000DF92EF92FF920F931F9381E08F9385E009
:100830008F9387E08F9383E08F9384E08F930F2EC5
:10084000F6EC8F2E912CF02D0F2EF2ECAF2EB12C5A
:10085000F02D0F2EF1ECCF2ED12CF02D0F2EF0EC31
:10086000EF2EF12CF02D04EC10E025EC30E04EEEF4
:1008700051E062E372E08CEC91E00E9442030F9041
:100880000F900F900F900F901F910F91FF90EF908E
:10089000DF90CF90BF90AF909F908F900895AF92D0
:1008A000BF92CF92DF92EF92FF920F931F93CF935D
:1008B000DF935C017B01C0E0D0E000E010E0F501D7
:1008C000EC0FFD1F4AE050E06281C7010E94EB057A
:1008D0006C016EE2C7010E9421058C0D9D1D080F61
:1008E000191F2196C330D10551F74AE050E0F501B8
:1008F0006581C7010E94EB05800F911FDF91CF91A9
:100900001F910F91FF90EF90DF90CF90BF90AF902D
:1009100008950F93FC018FE191E0918380836283BE
:100920004383248305830F9108950F9300E020E013
:1009300040E060E086E792E00E9489040F9108950C
:1009400008950E94B3070E94A0040E94DA230E9427
:1009500025248EEF92E0892B29F00E94FE020E944E
:100960002524FBCF0E942524FDCFCF92DF92EF926A
:10097000FF920F931F93CF93DF936C0141155105A5
:10098000B1F0062F172FEA01E12CF12CD8016D915F
:100990008D01D601ED91FC910190F081E02DC60111
:1009A0000995E80EF91E2197209781F702C0E12CE6
:1009B000F12CC701DF91CF911F910F91FF90EF9024
:1009C000DF90CF900895EF92FF920F931F93CF93F4
:1009D000DF937C01EB012196FB016491662389F092
:1009E00000E010E0F701A081B181ED91FC91C70119
:1009F0000995080F191FFE0164912196662319F0CD
:100A0000F1CF00E010E0C801DF91CF911F910F916D
:100A1000FF90EF9008956115710581F0FB01019041
:100A20000020E9F73197AF01461B570BDC01ED9130
:100A3000FC910280F381E02D0995089580E090E01B
:100A40000895DC01ED91FC910190F081E02D099574
:100A500008950F931F93CF93DF93EC016DE00E94F5
:100A600021058C016AE0CE010E942105800F911FB3
:100A7000DF91CF911F910F9108950F931F93CF9303
:100A8000DF93EC010E94E3048C01CE010E94290552
:100A9000800F911FDF91CF911F910F9108950F93B8
:100AA0001F93CF93DF93EC010E940B058C01CE01C5
:100AB0000E942905800F911FDF91CF911F910F9107
:100AC00008956F927F928F929F92AF92BF92CF9232
:100AD000DF92EF92FF920F931F93CF93DF93CDB7E7
:100AE000DEB7A1970FB6F894DEBF0FBECDBF6C0185
:100AF000742E352F862F972F622E19A221E02615EE
:100B000020F00F2EFAE06F2EF02D7E01A1E2EA0E0A
:100B1000F11C862C912CA12CB12C672D732FA501D3
:100B200094010E94A224E22F732F022F132F242F4F
:100B3000352FF72D6E9EF0191124B1E0EB1AF10854
:100B4000FA3010F4F05D01C0F95CD701FC93012B81
:100B5000022B032B29F07E2E372F842F952FDDCFEC
:100B6000E114F10491F0F70101900020E9F73197C9
:100B7000AF014E195F09D601ED91FC910280F3811E
:100B8000E02DB701C601099502C080E090E0A19672
:100B90000FB6F894DEBF0FBECDBFDF91CF911F918E
:100BA0000F91FF90EF90DF90CF90BF90AF909F900C
:100BB0008F907F906F9008952115310549F4DC01E5
:100BC000ED91FC910190F081E02D642F099508953D
:100BD0000E94610508959A01462F50E060E070E0A0
:100BE0000E94DC050895813039F018F0823051F010
:100BF000089510926E000895EFE6F0E080818D7FF9
:100C000080830895E0E7F0E080818D7F808381E03C
:100C10008093B000E1EBF0E08081887F8460808386
:100C20001092B3000895CF93C82F809106018C13C2
:100C300007C0E8E6F0E084919FEF9093060101C0C1
:100C40008FEF0E94F30560E08C2F0E945B08CF912C
:100C500008951F920F920FB60F9211242F933F9376
:100C60004F935F936F937F938F939F93AF93BF93B4
:100C7000EF93FF9380917F0290918002A091810277
:100C8000B0918202892B8A2B8B2B51F180917C02AF
:100C9000E0917D02F0917E0290818927808380918E
:100CA0007F0290918002A0918102B0918202181679
:100CB00019061A061B06C4F480917F0290918002E7
:100CC000A0918102B09182020197A109B10980939C
:100CD0007F0290938002A0938102B093820204C0AD
:100CE000809106010E941306FF91EF91BF91AF9191
:100CF0009F918F917F916F915F914F913F912F9134
:100D00000F900FBE0F901F901895823000F5E82FBE
:100D1000F0E0EE0FFF1FED57FD4F718360838823D6
:100D200019F0813049F00895E9E6F0E080818C7F88
:100D3000482B4083E89A0895E9E6F0E08081440F6B
:100D4000551F440F551F837F482B4083E99A089510
:100D50001F920F920FB60F9211242F933F934F9330
:100D60005F936F937F938F939F93AF93BF93EF9313
:100D7000FF938091830290918402892B29F0E09166
:100D80008302F09184020995FF91EF91BF91AF9199
:100D90009F918F917F916F915F914F913F912F9193
:100DA0000F900FBE0F901F9018951F920F920FB6C5
:100DB0000F9211242F933F934F935F936F937F93E1
:100DC0008F939F93AF93BF93EF93FF93809185028F
:100DD00090918602892B29F0E0918502F09186029C
:100DE0000995FF91EF91BF91AF919F918F917F9165
:100DF0006F915F914F913F912F910F900FBE0F9088
:100E00001F9018951F920F920FB60F9211242F93D7
:100E10003F938F939F93AF93BF938091880290915C
:100E20008902A0918A02B0918B023091870223E05F
:100E3000230F2D3720F40196A11DB11D05C026E812
:100E4000230F0296A11DB11D209387028093880273
:100E500090938902A0938A02B0938B0280918C02B6
:100E600090918D02A0918E02B0918F020196A11DEA
:100E7000B11D80938C0290938D02A0938E02B0934B
:100E80008F02BF91AF919F918F913F912F910F90C2
:100E90000FBE0F901F9018952FB7F894609188029D
:100EA0007091890280918A0290918B022FBF0895E0
:100EB0003FB7F89480918C0290918D02A0918E02A0
:100EC000B0918F0226B5A89B05C02F3F19F001965F
:100ED000A11DB11D3FBFBA2FA92F982F8827820FC0
:100EE000911DA11DB11DBC01CD01660F771F881F8B
:100EF000991F660F771F881F991F0895CF92DF9261
:100F0000EF92FF92CF93DF936B017C010E94580711
:100F1000EB01C114D104E104F10499F00E945807D7
:100F20006C1B7D0B683E734038F081E0C81AD10815
:100F3000E108F108C851DC4FC114D104E104F10407
:100F400069F7DF91CF91FF90EF90DF90CF900895F8
:100F50000197009739F0880F991F880F991F029702
:100F60000197F1F70895789484B5826084BD84B5C3
:100F7000816084BD85B5826085BD85B5816085BD94
:100F8000EEE6F0E0808181608083E1E8F0E01082AD
:100F9000808182608083808181608083E0E8F0E0EE
:100FA000808181608083E1EBF0E0808184608083D8
:100FB000E0EBF0E0808181608083EAE7F0E080810F
:100FC000846080838081826080838081816080836F
:100FD0008081806880831092C1000895833069F019
:100FE00028F48130B1F08230C1F008958630C9F024
:100FF0008730E9F0843001F506C0E0E8F0E0808158
:101000008F7780830895E0E8F0E080818F7D808392
:10101000089584B58F7784BD089584B58F7D84BD90
:101020000895E0EBF0E080818F7780830895E0EB16
:10103000F0E080818F7D80830895CF93DF9390E0EF
:10104000FC01E358FF4F2491FC01EF56FF4F8491C0
:10105000882371F190E0880F991FFC01E754FF4F3E
:10106000A591B49181559F4FFC01C591D491611117
:101070000BC08FB7F8949C91209592239C93E881A4
:101080002E2328838FBF14C0623061F48FB7F89489
:101090003C91922F909593239C93E8812E2B28834B
:1010A0008FBF06C08FB7F894EC912E2B2C938FBF77
:1010B000DF91CF9108951F93CF93DF93C62F282FF1
:1010C00030E0F901E759FF4F8491F901E358FF4FF0
:1010D0001491F901EF56FF4FD491DD23C9F081112E
:1010E0000E94EE072D2F30E0F901EE0FFF1FE155B2
:1010F000FF4FA591B4918FB7F894C11105C0EC9141
:1011000010951E231C9303C0EC911E2B1C938FBFC4
:10111000DF91CF911F910895CF93DF93282F30E077
:10112000F901E759FF4F8491F901E358FF4FD4913A
:10113000F901EF56FF4FC491CC2399F081110E9421
:10114000EE072C2F30E0F901EE0FFF1FEB55FF4F9C
:10115000A591B491EC91DE2381E090E021F480E050
:1011600002C080E090E0DF91CF910895CF939093FB
:101170009B0280939A026F3F49F48FEA87BDEEE6A7
:10118000F0E080818260808381E020C06530D9F406
:10119000FC0180A1823029F08330B9F482E090E034
:1011A00002C080E090E0FC01EE5DFE4FC0818C2F1C
:1011B0000E94DE2141E050E061E87AE08C2F0E943D
:1011C000850681E003C080E001C080E0CF910895F2
:1011D0000F93CF93DF93EC0119A21AA21BA281E017
:1011E0008FA36CA34DA32EA308A3CE0188960E94C3
:1011F000610DCE018D5B9F4F0E94610DCE01815A22
:101200009F4F0E94610DFE01E25AFF4F1082CC57A2
:10121000DF4F61E088810E941D0861E088810E94A3
:101220005B08DF91CF910F910895FC0180A10E948E
:101230008C0808951F93CF93DF93FC0187A1882327
:1012400039F01EBC00000DB407FEFDCF8EB531C0D5
:10125000A0919602B091970210919202E0919802AB
:10126000F0919902C0919302DC2FD09527E030E0F5
:1012700080E061E070E09C91912341F0AB01022E8F
:1012800002C0440F551F0A94E2F7842B90819C2BD7
:10129000908390819D2390832150310960F7E091E4
:1012A0009802F09199022081909193029095922357
:1012B0009083DF91CF911F910895CF93DF93FC012D
:1012C00087A1882339F06EBD00000DB407FEFDCF65
:1012D0008EB535C0E0919802F09199024091930249
:1012E000542F5095A0919402B0919502C091910213
:1012F000DC2FD09587E090E070E0208125232083CB
:101300009B01082E02C0359527950A94E2F720FF2D
:1013100004C02C912C2B2C9303C02C912D232C93A7
:101320002081242B2083019740F7E0919802F091CF
:101330009902908180919302809589238083DF9127
:10134000CF910895DF92EF92FF920F931F93CF9367
:10135000DF938C01D62EF72EE42EFC0187A1882383
:10136000D9F08091F304882399F08FB7F894909185
:10137000F304913059F49DB39093F1042DB39091FF
:10138000F204909592239DBB8FBF02C08093F1041D
:1013900080E58CBD81E08DBD60E0F80186A10E94F2
:1013A0005B08EE2051F0CD2DDF2DF12C6991C801A5
:1013B0000E945D09F394FE10F9CF61E0F80186A167
:1013C0000E945B08F80187A1882391F08091F304C3
:1013D000882371F09FB7F8948091F304813029F449
:1013E0008091F1048DBB9FBF03C08091F1048FBF3A
:1013F000DF91CF911F910F91FF90EF90DF900895B3
:10140000EF92FF920F931F93CF93DF93EC018FB76F
:10141000F89490919002992311F08FBF43C091E00E
:10142000909390028FBFFE01E25AFF4F808181119D
:1014300003C01092900236C08E01085D1F4FC80194
:101440000E94E00D811103C0109290022BC0EC2E7F
:10145000FD2ECE010E94150981111CC01092900230
:1014600021C040E250E06E2D7F2DC8010E94740D16
:10147000009749F4C25ADF4F1882C8010E94CE0D6E
:10148000109290020FC0482F6E2D7F2D8E2D9F2D14
:101490000E94A2098E2D9F2D0E9415098111E1CF76
:1014A00010929002DF91CF911F910F91FF90EF90DA
:1014B00008951F920F920FB60F9211242F933F930E
:1014C0004F935F936F937F938F939F93AF93BF934C
:1014D000EF93FF9380919A0290919B020E94000AE1
:1014E000FF91EF91BF91AF919F918F917F916F91FC
:1014F0005F914F913F912F910F900FBE0F901F90D2
:10150000189580919A0290919B020E94000A08957A
:101510000F931F93CF93DF93EC01162F8FA1882396
:10152000D1F08091F304882399F08FB7F8949091CB
:10153000F304913059F49DB39093F1042DB390913D
:10154000F204909592239DBB8FBF02C08093F1045B
:1015500082E58CBD1DBC60E08DA10E945B0863E04C
:10156000CE010E945D09612FCE010E945D098AE0D3
:1015700090E00E94A807CE010E941A09082F10E0EF
:10158000102F0027CE010E941A09082B61E08DA1BF
:101590000E945B088FA1882391F08091F304882337
:1015A00071F09FB7F8948091F304813029F4809111
:1015B000F1048DBB9FBF03C08091F1048FBFC801B0
:1015C000DF91CF911F910F910895FF920F931F9379
:1015D000CF93DF93EC01F62E142F052F8FA18823D4
:1015E000D1F08091F304882399F08FB7F89490910B
:1015F000F304913059F49DB39093F1042DB390917D
:10160000F204909592239DBB8FBF02C08093F1049A
:1016100082E58CBD1DBC60E08DA10E945B0862E08C
:10162000CE010E945D096F2DCE010E945D09602FE1
:10163000CE010E945D09612FCE010E945D0961E02B
:101640008DA10E945B088FA1882391F08091F30403
:10165000882371F09FB7F8948091F304813029F4C6
:101660008091F1048DBB9FBF03C08091F1048FBFB7
:10167000DF91CF911F910F91FF900895CF93DF934A
:10168000EC0148E058E460E00E94E50AFE01E25AFD
:10169000FF4F1082CE0188960E94CE0DDF91CF9130
:1016A0000895CF92DF92EF92FF920F931F93CF9303
:1016B000DF93CDB7DEB76B970FB6F894DEBF0FBEE2
:1016C000CDBF8C017B01D82EC12E40E058E460E0F4
:1016D0000E94E50A49E25EE167E0C8010E94E50A6E
:1016E00040E050E066E0C8010E94E50A21E0A70161
:1016F0006CE972E0CE0101960E94400F8B819C81C3
:10170000F80193A782A74D815E816F81788544A7F8
:1017100055A766A777A749855A856B857C8540AB19
:1017200051AB62AB73AB8DE0FE013D96D801D49610
:1017300001900D928A95E1F7F801EF5BFF4F8A8DDA
:101740009B8D91838083C80188960E94E00D882339
:1017500059F140E050E064E0C8010E94E50A40E031
:1017600050E064E0C8010E94E50A81E0F801E25A15
:10177000FF4F80838D2D9C2D0E9415098823D1F366
:101780007801FEE5EF0EF11C03C0C8010E94000ABB
:10179000F7018081882351F08D2D9C2D0E94150921
:1017A0008111F3CF81E003C080E001C081E06B963E
:1017B0000FB6F894DEBF0FBECDBFDF91CF911F9162
:1017C0000F91FF90EF90DF90CF90089570E0762F0B
:1017D0006627F8949B01242BA9016BE00E94E50A7F
:1017E0007894089544E058E060E00E94E50A64E6D9
:1017F00070E080E090E00E947E070895CF93DF9331
:10180000EC018CA188236CF060E00E945B0864E628
:1018100070E080E090E00E947E0761E08CA10E9471
:101820005B0861E08DA10E945B0861E08EA10E94CF
:101830005B0864E670E080E090E00E947E07CE01E5
:101840000E94F20B64E670E080E090E00E947E0768
:1018500040E050E663E0CE010E94E50A48E268E21B
:10186000CE010E94E60BDF91CF910895CF93DF93D5
:10187000EC018CA188233CF061E00E941D0860E02F
:101880008CA10E945B0861E08DA10E941D0861E0AF
:101890008DA10E945B0861E08EA10E941D0861E09D
:1018A0008EA10E945B0860E088A10E941D088FA1A4
:1018B00081110DC061E089A10E941D0861E08BA12A
:1018C0000E941D0860E08AA10E941D080EC00E94AF
:1018D000A8218CB5837F8CBD8CB58F7D8CBD8CB5DC
:1018E00083608CBD8DB58E7F8DBDCE010E94FE0BB9
:1018F00061E0CE010E94880A929582958F708927B7
:101900009F7089278F70DF91CF9108950E94360CC8
:1019100091E0843009F090E0892F0895CF93DF9310
:101920001F92CDB7DEB76983DC01ED91FC91028097
:10193000F381E02D41E050E0BE016F5F7F4F0995DC
:101940000F90DF91CF910895CF93DF93EC01E98D54
:10195000FA8D309739F481E090E09B838A8380E0B0
:1019600090E012C013821282898D9A8D0E94441ACF
:10197000E98DFA8D22813381232B31F081E090E0D3
:101980009B838A8380E090E0DF91CF910895CF938D
:10199000DF931F92CDB7DEB7FC01818D928D00974A
:1019A00089F041E050E0BE016F5F7F4F0E943A1521
:1019B000019719F4298130E002C02FEF3FEF822F09
:1019C000932F02C08FEF9FEF0F90DF91CF9108957B
:1019D000EF92FF920F931F93CF93DF931F92CDB798
:1019E000DEB77C01FC01818D928D0097E1F041E032
:1019F00050E0BE016F5F7F4F0E943A150197B1F42E
:101A0000098110E0F701818D928DFC01428553859B
:101A10006485758541505109610971090E94F51667
:101A2000802F912F05C080E090E002C08FEF9FEFE4
:101A30000F90DF91CF911F910F91FF90EF9008953C
:101A4000FC01818D928D009711F00E94A3170895DB
:101A5000CF92DF92EF92FF920F931F93CF93DF937A
:101A6000EC017B016A011B821A8208EE13E020E080
:101A700030E00C831D832E833F8389E291E09983BC
:101A800088838DE190E00E94CA009A8F898F009729
:101A900079F02DE1F701DC0101900D922A95E1F733
:101AA0004CE050E0B601CE010C960E941B25188E2A
:101AB000DF91CF911F910F91FF90EF90DF90CF902A
:101AC0000895FC011382128248EE53E060E070E05A
:101AD000448355836683778389E291E09183808391
:101AE000128E118E14860895FC01818D928D0097BF
:101AF00019F00E943A15089580E090E00895DC0105
:101B00005996ED91FC915A97309729F0628573852B
:101B10008485958508956FEF7FEFCB010895DC01F3
:101B20005996ED91FC915A97309729F06389748901
:101B300085899689089560E070E0CB010895CF9281
:101B4000DF92EF92FF92CF93DF93EC01898D9A8D14
:101B5000892BD9F0CE010E948F0D6B017C01CE0143
:101B60000E947F0DA7019601261B370B480B590BCE
:101B7000DA01C901811530E89307A105B10538F0F4
:101B80008FEF9FE7A0E0B0E002C080E090E0DF913F
:101B9000CF91FF90EF90DF90CF900895CF93DF9398
:101BA000EC01898D9A8D009741F00E94EB17898D89
:101BB0009A8D0E9477011A8E198EDF91CF91089528
:101BC000DC015996ED91FC915A97309731F081E004
:101BD0009581911103C080E0089580E008950F93EE
:101BE0001F93CF93DF93EC01462F61E00E94B81161
:101BF0008823E1F08E01045F1F4F41E0BE01C80160
:101C00000E947420811107C040E0BE01C8010E94FB
:101C10007420882369F0B801CE018A960E94D914F5
:101C200091E0811101C090E0892F03C080E001C0E4
:101C300080E0DF91CF911F910F9108953F924F92D5
:101C40005F926F927F928F929F92AF92BF92CF924C
:101C5000DF92EF92FF920F931F93CF93DF93CDB755
:101C6000DEB7C754D1090FB6F894DEBF0FBECDBFA3
:101C70004C01FB013A01290184A595A599A388A3EC
:101C80002BE331E03F8F2E8F86A58AA387A58BA3F8
:101C900080A991A9A2A9B3A98CA39DA3AEA3BFA318
:101CA00084A995A9A6A9B7A988A799A7AAA7BBA7F8
:101CB00080AD91ADA2ADB3AD8CA79DA7AEA7BFA7D8
:101CC00084AD88ABDB01DD968D919D910D90BC912B
:101CD000A02D89AB9AABABABBCABDB01AF5BBF4F0D
:101CE0008D919D910D90BC91A02D8DAB9EABAFAB16
:101CF000B8AFEB5BFF4F808191819AAF89AF1C82B7
:101D00001B823A8329831E828A01CE0101967C01BF
:101D10006E019EE1C90ED11C0F2EFCE03F2EF02D6E
:101D20003AC0F80120812F3219F40F5F1F4F33C0E2
:101D3000801B8D3008F0832DA82EB12CA501B80191
:101D4000CE01CB960E941B25EBE3F0E0EC0FFD1FCC
:101D5000EA0DFB1D1082C7010E94EB1721E0AE01C6
:101D6000455C5F4FB601C7010E944619811109C049
:101D7000F401138212828BE391E0918380831582B8
:101D800065C00A0D1B1DC6010E94EB179C2D8D2DF1
:101D90006701E92EF82E6FE270E0C8010E9410255D
:101DA000009709F0BECF06191709F20111830083CD
:101DB000F60182819381F401938382838BE391E026
:101DC00091838083F6018481F4018483F601858107
:101DD000F4018583F60186819781A085B185F401A0
:101DE00086839783A087B187F60182859385A48532
:101DF000B585F40182879387A487B587F601868528
:101E00009785A089B189F40186879787A08BB18BCC
:101E1000F6018289F401828BF60183899489A58970
:101E2000B689F401838B948BA58BB68BF6018789D9
:101E3000908DA18DB28DF401878B908FA18FB28F81
:101E4000F601838D948DF401948F838FC401C95B57
:101E5000DF4F0FB6F894DEBF0FBECDBFDF91CF913D
:101E60001F910F91FF90EF90DF90CF90BF90AF90B8
:101E70009F908F907F906F905F904F903F900895CC
:101E80009F92AF92BF92CF92DF92EF92FF920F9309
:101E90001F93CF93DF93CDB7DEB7C657D1090FB6E7
:101EA000F894DEBF0FBECDBF7C015B018A01922E8C
:101EB0009E012B583F4FCE01885A9F4F0E941E0E05
:101EC000E796CEACDFACE797C00ED11EF60180815D
:101ED000811157C06C968EAD9FAD6C9799A388A366
:101EE0008BE391E09F8F8E8F6D968FAD6D978AA358
:101EF0006E968FAD6E978BA3A2968CAD9DADAEAD59
:101F0000BFADA2978CA39DA3AEA3BFA3A6968CAD95
:101F10009DADAEADBFADA69788A799A7AAA7BBA751
:101F2000AA968CAD9DADAEADBFADAA978CA79DA76F
:101F3000AEA7BFA7AB968FADAB9788ABAF968CAD76
:101F40009DADAEADBFADAF9789AB9AABABABBCAB04
:101F5000E3968CAD9DADAEADBFADE3978DAB9EABC3
:101F6000AFABB8AFE5968EAD9FADE5979AAF89AFB1
:101F700045E351E0BE01625E7F4FC7010E94280D1C
:101F800096C01EAE1DAE8BE391E09CAF8BAF219649
:101F90001FAE21976E968FAD6E97811104C0C70159
:101FA0000E94610D84C08250823078F4B501665D74
:101FB0007F4F292DA601CE01CB960E944619811193
:101FC00018C0C7010E94610D72C0292DA601BE0173
:101FD000685A7F4FCE01CB960E944619811104C0EA
:101FE000C7010E94610D63C0CE01885A9F4F0E94B5
:101FF000EB17892D867051F062964CAD5DAD6EADDC
:102000007FAD6297CE01CB960E94F5168DAD9EAD49
:102010009C838B838BE391E09A8389838FAD8D833F
:1020200021968FAD21978E8325968CAD9DADAEAD5B
:10203000BFAD25978F839887A987BA8729968CADDE
:102040009DADAEADBFAD29978B879C87AD87BE8711
:102050002D968CAD9DADAEADBFAD2D978F87988B76
:10206000A98BBA8B2E968FAD2E978B8B62968CADEB
:102070009DADAEADBFAD62978C8B9D8BAE8BBF8B94
:1020800066960CAD1DAD2EAD3FAD6697088F198FCE
:102090002A8F3B8F68968EAD9FAD68979D8F8C8FF2
:1020A000A601BE016F5F7F4FC7010E94280DC701C7
:1020B000CA58DF4F0FB6F894DEBF0FBECDBFDF9119
:1020C000CF911F910F91FF90EF90DF90CF90BF9035
:1020D000AF909F9008951092A1021092A2021092C8
:1020E000A5021092A70282E090E0A0E0B0E0809309
:1020F000A8029093A902A093AA02B093AB021092F7
:10210000BF021092C9021092C8028BE391E0909333
:10211000C7028093C6021092CB0208958EBD0000C4
:102120000DB407FEFDCF8EB508958FEF8EBD000074
:102130000DB407FEFDCF8EB5089561E0FC018481EA
:102140000E945B088091E5028823A1F01092E502CD
:102150008091F304882371F09FB7F8948091F30481
:10216000813029F48091F1048DBB9FBF0895809147
:10217000F1048FBF08952091E502211120C021E0D4
:102180002093E502E6EEF2E0308121814091F304F4
:10219000442399F04FB7F8945091F304513059F417
:1021A0005DB35093F1046DB35091F20450955623F2
:1021B0005DBB4FBF02C04093F1043CBD2DBD60E04C
:1021C000FC0184810E945B080895CF93DF93EC01AA
:1021D0008E818823C9F08F8198859C012F5F3F4FA6
:1021E00038872F838230924058F40E9495102F81B7
:1021F0003885C901019698878F8322303240A8F331
:10220000CE010E949D101E82DF91CF91089567300C
:1022100028F026E1FC01258380E008956230D1F0AA
:1022200028F4662349F0613071F030C0643001F168
:10223000C0F0653021F12AC0E6EEF2E080E580834F
:1022400081E081830895E6EEF2E080E580831182EB
:1022500081E00895E6EEF2E081E5808381E081830C
:102260000895E6EEF2E081E58083118281E0089531
:10227000E6EEF2E082E5808381E081830895E6EE78
:10228000F2E082E58083118281E00895E6EEF2E0DB
:1022900083E58083118281E008950F931F93CF938C
:1022A000DF93EB010E944C078B010E9495108F3F3A
:1022B00041F00E944C07601B710B6C177D07A8F35F
:1022C00002C081E001C080E0DF91CF911F910F91AA
:1022D0000895BF92CF92DF92EF92FF920F931F93D8
:1022E000CF93DF938C01B62E69017A010E94E5102D
:1022F000C8010E94BB106CE271E0C8010E944D1140
:102300008B2D80640E948E10C8E1D0E0D701C601F9
:102310000C2E04C0B695A795979587950A94D2F789
:102320000E948E102897C83F8FEFD80779F7BB20FF
:1023300029F0E8E0BE1621F08FEF03C085E901C067
:1023400087E80E948E10C0E00E949510F8018287F5
:10235000882324F4CF3F11F0CF5FF6CFDF91CF91E8
:102360001F910F91FF90EF90DF90CF90BF90089555
:10237000AF92BF92CF92DF92EF92FF920F931F9393
:10238000CF93DF93EC01B62E1B8619861E821D8229
:102390004C830E944C078B0161E08C810E941D08D8
:1023A00061E08C810E945B080E94A821E6EEF2E0C9
:1023B00082E5808311828091F304882399F08FB79E
:1023C000F8949091F304913059F49DB39093F104F3
:1023D0002DB39091F204909592239DBB8FBF02C0C4
:1023E0008093F10482E58CBD1DBC0F2EFAE0AF2E68
:1023F000F02D8FEF0E948E10AA94D9F78091F304EC
:10240000882371F09FB7F8948091F304813029F408
:102410008091F1048DBB9FBF03C08091F1048FBFF9
:10242000CE010E94BB100AC00E944C07601B710BBA
:10243000613D774018F081E08D836DC020E030E091
:10244000A90160E0CE010E9469118A87813061F79D
:102450002AEA31E040E050E068E0CE010E946911D4
:1024600082FF03C081E08B870FC06894FF24F2F8DD
:102470000E9495108A87FA94D9F78A3A19F082E077
:102480008D8349C082E08B878B85823031F4C12CEB
:10249000D12C76016894F6F80EC0C12CD12C7601AF
:1024A0000AC00E944C07601B710B613D774018F019
:1024B00088E08D8330C020E030E0A90167E3CE01E1
:1024C0000E946911A701960169E2CE010E9469117B
:1024D0008A878111E6CF8B858230A1F420E030E03D
:1024E000A9016AE3CE010E946911882319F086E0F0
:1024F0008D8311C00E949510807C803C81F483E024
:102500008B870DC0CE010E949D106B2DCE010E94C5
:102510000711A82E0BC0CE010E949D1007C00E947B
:1025200095100E9495100E949510ECCF8A2DDF9196
:10253000CF911F910F91FF90EF90DF90CF90BF90C0
:10254000AF9008950F931F93CF93DF93EC010E94F8
:102550004C078B010AC00E944C07601B710B6D3247
:10256000714018F08FE08D8309C00E9495108A8712
:102570008F3F89F38E3F39F08DE08D83CE010E942D
:102580009D1080E001C081E0DF91CF911F910F91FC
:102590000895CF92DF92EF92FF920F931F93CF9304
:1025A000DF93EC0169010115110509F46EC0C80142
:1025B000820F931F8130924008F062C08E81882381
:1025C00071F088819981AA81BB8184179507A6073C
:1025D000B70729F48F819885C816D90620F5488356
:1025E00059836A837B838B85833049F0032E39E0DE
:1025F000440F551F661F771F3A95D1F7302D9A016A
:10260000AB0161E1CE010E946911882319F083E0DA
:102610008D8336C0CE010E94A212882389F11886CC
:102620001F8281E08E838F8198858C159D0520F017
:102630006701E00EF11E0BC00E9495108F819885F6
:10264000019698878F838C159D05B0F3F1CF0E947A
:102650009510F60181936F01EE15FF05C1F78F818B
:102660009885080F191F18870F838985882319F00B
:102670000115124060F0CE010E94E51081E008C013
:10268000CE010E949D1080E003C081E001C081E086
:10269000DF91CF911F910F91FF90EF90DF90CF903E
:1026A0000895EF92FF920F931F93790100E012E0DB
:1026B00020E030E00E94C9121F910F91FF90EF902F
:1026C0000895EF92FF920F931F93CF93DF937C01B6
:1026D000862FD42FC52F0E948E100D2F1C2FC0E0E7
:1026E000D0E0F80181918F010E948E102196C115D2
:1026F000F2E0DF07B1F78FEF0E948E108FEF0E949C
:102700008E100E949510F70182878F71853039F005
:1027100081E18583C7010E949D1080E001C081E0B6
:10272000DF91CF911F910F91FF90EF9008950F933C
:102730001F93CF93DF93EC0189014115510561058A
:10274000710519F482E18D833DC08B85833049F09A
:10275000032E39E0440F551F661F771F3A95D1F7B6
:10276000302D9A01AB0168E1CE010E9469118823E6
:1027700019F084E08D8326C0A8016EEFCE010E947F
:1027800061138823F9F068E572E0CE010E944D11D3
:10279000811103C085E18D8315C020E030E0A901DF
:1027A0006DE0CE010E946911811104C00E94951054
:1027B000882319F084E18D8305C0CE010E949D100D
:1027C00081E004C0CE010E949D1080E0DF91CF9196
:1027D0001F910F91089580E58093E6021092E70221
:1027E0000895CF93DF93EC019C012A5F3F4F41E0B6
:1027F00050E060E070E08B8D9C8D0E94D61E882397
:10280000A9F04F89588D698D7A8D452B462B472B22
:1028100079F44E815F81688579854F8B588F698FF8
:102820007A8F8C8180688C8381E003C080E001C056
:1028300081E0DF91CF910895CF92DF92EF92FF92E6
:102840001F93CF93DF93EC010E94F113882309F4C7
:102850004BC0EB8DFC8DCE80DF80E884F98482E074
:10286000C81AD108E108F108058404C0CC0CDD1CAD
:10287000EE1CFF1C0A94D2F786859785A089B18942
:10288000C80ED91EEA1EFB1E1481112389F081E0B7
:10289000C81AD108E108F108C701B601610F711D1E
:1028A000811D911D0E94F51C882301F11150A1F793
:1028B000EB8DFC8D80E092E0A0E0B0E0058404C0E8
:1028C000880F991FAA1FBB1F0A94D2F74B895C89F6
:1028D0006D897E89840F951FA61FB71F8B8B9C8BDC
:1028E000AD8BBE8B81E003C080E001C080E0DF9152
:1028F000CF911F91FF90EF90DF90CF900895CF93ED
:10290000DF93EC01462F6E857F85888999890E9427
:10291000B81C882341F08A8920E2829FC0011124DB
:102920008F509D4F02C080E090E0DF91CF910895DD
:102930001F93CF93DF93382FFB018BE020E221938D
:102940008150E9F7A32FB92F50E0C7E018E0DAE093
:1029500023EC30E021C04E3211F0F90108C0CA303A
:1029600021F1512FCD2F18C031964917F1F09491D4
:102970009111FACFC517C8F09FED940F9E35A8F4BA
:1029800091E0950FFB01E50FF11D5FE9540F5A31FE
:1029900008F440524083592F4D914111DCCF81E022
:1029A000FB019081903209F480E0DF91CF911F917B
:1029B00008950F931F93CF93DF93EC018B018D81CB
:1029C00081114EC0FB018789803119F582E08D832A
:1029D0001F8A188E198E1A8E408D518D60E070E01E
:1029E000440F551F661F771F440F551F661F771F23
:1029F000440F551F661F771F440F551F661F771F13
:102A0000440F551F661F771F4B8B5C8B6D8B7E8B26
:102A100015C0803239F583E08D83FB01428D538DE3
:102A2000648D758D4F8B588F698F7A8F9E012D5EC7
:102A30003F4FC8010E94A71D8823B1F01C8F0B8F48
:102A400081E08C831E821F82188619861A861B8657
:102A50001C861D861E861F86188A198A1A8A05C03A
:102A600080E003C080E001C080E0DF91CF911F9142
:102A70000F9108952F923F924F925F926F927F92A3
:102A80008F929F92AF92BF92CF92DF92EF92FF927E
:102A90000F931F93CF93DF9300D000D000D0CDB71A
:102AA000DEB79E838D833B015A834983DC011596F3
:102AB0008C911597882309F411C114968C91149761
:102AC00080FF0FC153964D915D916D917C9156970A
:102AD0001A968D919D910D90BC91A02DE981FA815E
:102AE0004F01A12CB12C8A019B01081B190B2A0B49
:102AF0003B0B081519052A053B0528F48A01081B1C
:102B0000190B1A83098329813A812115310509F4AA
:102B1000E2C059018D819E8106969C838B83412C56
:102B20006894552451F822242394312CED81FE81A0
:102B300082859385A485B5854C01F1E09F22ED81C6
:102B4000FE8125812230D9F4AC01BD01032E39E08C
:102B500076956795579547953A95D1F7302D038C23
:102B6000F48DE02D828D938DA48DB58D8A019B010E
:102B7000080F191F2A1F3B1FC901B80159C0ED8159
:102B8000FE81E38CF48CF701D480DA948C019D01F2
:102B90000F2EF9E03695279517950795FA95D1F7F9
:102BA000F02DD0228114910409F5D1101FC0892B7A
:102BB0008A2B8B2B59F4ED81FE818789908DA18D15
:102BC000B28D86839783A087B18710C0AD81BE8107
:102BD00016964D915D916D917C9119972B813C8159
:102BE000C7010E941C1D882309F47EC0ED81FE816F
:102BF000238D348D86819781A085B1850297A109A7
:102C0000B109F901058404C0880F991FAA1FBB1FD1
:102C10000A94D2F70685178520893189800F911F84
:102C2000A21FB31FBC01CD016D0D711D811D911D32
:102C300092012819390965012A153B0508F4690133
:102C4000AD81BE8114962C9126FD05C0C114B2E061
:102C5000DB0609F060C00091070110910801209186
:102C6000090130910A01601771078207930709F083
:102C700044C051C06C0C7D1C1CC0B4016F507D4F12
:102C80009B012C0D3D1D6217730799F0FB01D301C9
:102C9000C90141914D93E817F907D9F74B01EFEFBF
:102CA0008E1A9E0AC10188199909280F391F620ED0
:102CB000731EED81FE8182859385A485B5858C0D7B
:102CC0009D1DA11DB11D82879387A487B587AC1870
:102CD000BD0809F02BCF89819A8123C08FEF9FEF28
:102CE00020C08FEF9FEF1DC08FEF9FEF1AC08FEFB7
:102CF0009FEF17C08FEF9FEF14C0730186019401FF
:102D0000AB01BC018091EF029091F0020E94C912C8
:102D10008111B0CFECCF40E00E94B81C8111ADCF43
:102D2000E9CF26960FB6F894DEBF0FBECDBFDF9178
:102D3000CF911F910F91FF90EF90DF90CF90BF90B8
:102D4000AF909F908F907F906F905F904F903F904B
:102D50002F900895CF92DF92EF92FF920F931F93DF
:102D6000CF93DF931F92CDB7DEB78C01FC01858135
:102D7000823060F1C284D384E484F58441E050E081
:102D8000BE016F5F7F4FC8010E943A15019709F598
:102D9000F80182859385A485B5854F96A11DB11D47
:102DA00082879387A487B587D701C601689414F8F2
:102DB000B695A795979587951694D1F78F70F0E201
:102DC0008F9FC00111248F509D4F05C080E090E07F
:102DD00002C080E090E00F90DF91CF911F910F91A2
:102DE000FF90EF90DF90CF9008954F925F926F9297
:102DF0007F928F929F92AF92BF92CF92DF92EF928B
:102E0000FF920F931F93CF93DF93EC014A015B0175
:102E10002D81222309F481C08B899C89AD89BE89CB
:102E200084179507A607B70708F479C0223031F454
:102E30004A875B876C877D8781E074C041155105A7
:102E40006105710551F41E821F82188619861A8643
:102E50001B861C861D8681E065C08A859B85AC85A6
:102E6000BD85EB8DFC8DC584D12C29E0C20ED11C13
:102E7000AC01BD0141505109610971090C2C04C01C
:102E800076956795579547950A94D2F795018401F1
:102E900001501109210931092801390104C0769432
:102EA000679457944794CA94D2F773016201441609
:102EB00055066606770620F0892B8A2B8B2B49F462
:102EC0008F89988DA98DBA8D8E839F83A887B987A6
:102ED00016C0C41AD50AE60AF70A11C04E815F81EE
:102EE0006885798598018B8D9C8D0E941C1D21E041
:102EF000C21AD108E108F108811104C012C08E0184
:102F00000A5F1F4FC114D104E104F10439F78A8626
:102F10009B86AC86BD8681E005C080E003C080E072
:102F200001C080E0DF91CF911F910F91FF90EF9052
:102F3000DF90CF90BF90AF909F908F907F906F90D9
:102F40005F904F9008950F931F93CF93DF93EC0101
:102F50008D818823C1F18C81882394F561E0CE01B5
:102F60000E947F148C01009781F18D81823048F49A
:102F70008B899C89AD89BE89F801848F958FA68F36
:102F8000B78F8F89988DF801938F828F4F89588DD5
:102F9000698D7A8D758B648BE091E802F091E9027E
:102FA000309759F0B8016A5E7F4FC801489609957D
:102FB000F801808D918D938B828B8C818F778C83A0
:102FC0000E94791C03C080E001C080E0DF91CF91B6
:102FD0001F910F910895CF93DF93EC010E94A317E7
:102FE000882319F01D8281E001C080E0DF91CF913C
:102FF00008954F925F926F927F92AF92BF92CF925D
:10300000DF92EF92FF920F931F93CF93DF9300D045
:1030100000D0CDB7DEB75C016A017B01DC011596FB
:103020008C911597813009F09DC014968C9114975E
:1030300081FF9AC053968D919D910D90BC91A02DCA
:1030400084179507A607B70708F490C0892B8A2B29
:103050008B2B09F48DC0F5014284538464847584FC
:10306000C5010E94F516882309F484C0C114D10457
:10307000E104F104B1F4D50157964D915D916D9144
:103080007C915A975B968D919C915C970E94F91F59
:10309000882309F471C0F501178A108E118E128EE3
:1030A00042C0D50116964D915D916D917C91199715
:1030B0009E012F5F3F4F5B968D919C915C970E9484
:1030C0001C1D882371F149815A816B817C81D50156
:1030D0005B96ED91FC915C978789803129F408EF2C
:1030E0001FEF20E030E004C008EF1FEF2FEF3FE0BC
:1030F0004017510762077307B0F4CF010E94F91F10
:10310000882379F0F50146815781608571850FEF3D
:103110001FEF2FEF3FE0838D948D0E942D1E8111B4
:1031200002C080E02CC0D5015396CD92DD92ED9285
:10313000FC92569714968C911497806814968C93F1
:10314000C5010E94A3178823C9F0B701A6014C143A
:103150005D046E047F0410F4B301A201C5010E9456
:10316000F5160DC080E00BC080E009C080E007C00C
:1031700081E005C080E003C080E001C080E00F90E6
:103180000F900F900F90DF91CF911F910F91FF90B3
:10319000EF90DF90CF90BF90AF907F906F905F9057
:1031A0004F900895FF920F931F93CF93DF93EC01FD
:1031B000F42E80E2689FF0011124EF50FD4F8385CB
:1031C000817121F0842F827409F053C06A8B809141
:1031D000070190910801A0910901B0910A018E8721
:1031E0009F87A88BB98B0489158920E030E098016E
:1031F000112700270F8B188F298F3A8F428D538DFF
:1032000060E070E0402B512B622B732B4F8B588F5B
:10321000698F7A8F8385887159F4848D958DA68DF9
:10322000B78D8B8B9C8BAD8BBE8B81E08D830DC05E
:10323000803109F59E012D5E3F4F8B8D9C8D0E9444
:10324000A71D8823D1F084E08D838F2D8F708C8310
:103250001E821F82188619861A861B861C861D866A
:10326000F6FE0DC040E050E0BA01CE010E94F91711
:1032700007C080E005C080E003C080E001C081E0BD
:10328000DF91CF911F910F91FF9008959F92AF9280
:10329000BF92CF92DF92EF92FF920F931F93CF9343
:1032A000DF93CDB7DEB72B970FB6F894DEBF0FBE16
:1032B000CDBF6C017B01922EFC0185818111C1C0C3
:1032C000BE016F5F7F4FCA010E949814882309F4E2
:1032D000BAC0F701838D948DF601948F838FF70127
:1032E000168217821086118612861386148615861A
:1032F000B12CAA24A3943FC0689414F8369527955E
:10330000179507951694D1F70F70C7010E94AA165A
:10331000009709F49AC0FC012081222311F0253E78
:10332000B1F4B1100FC0F601028B4091070150912A
:1033300008016091090170910A0146875787608BE7
:10334000718BBA2CFC018081811115C023C04BE028
:1033500050E0BC01CE0101960E940325892B59F44F
:10336000892D8073803309F472C0492D602FC60106
:103370000E94D21877C0F701028513852485358510
:1033800083899489A589B689081719072A073B07F5
:1033900008F4B2CF892D8271823109F05AC0BB2066
:1033A00041F061E0C6010E947F148C01009781F416
:1033B00052C0F7018581823009F44FC0C7010E94D5
:1033C0001C14882309F44BC0F601128A01EF12E0A5
:1033D00080E2F80111928A95E9F78BE0FE013196BF
:1033E000D80101900D928A95E1F7E091E802F09101
:1033F000E902309739F0B801625F7F4FC80140960B
:10340000099509C081E298E2F801918B808B80E0F8
:1034100098E097878687F80180899189938B828BC2
:10342000918F808F86859785978B868B0E94791CDC
:103430008823B9F0492DF6016289C6010E94D2188D
:1034400011C080E00FC080E00DC080E00BC080E0C4
:1034500009C080E007C080E005C080E003C080E0D4
:1034600001C080E02B960FB6F894DEBF0FBECDBF33
:10347000DF91CF911F910F91FF90EF90DF90CF9050
:10348000BF90AF909F9008952F923F924F925F927E
:103490006F927F928F929F92AF92BF92CF92DF9264
:1034A000EF92FF920F931F93CF93DF93CDB7DEB7C9
:1034B00028970FB6F894DEBF0FBECDBF8C014B012D
:1034C0005E834D83DC0115968C911597813009F050
:1034D0007DC114968C91149781FF78C182FF17C02B
:1034E00053964D915D916D917C9156971A968D9161
:1034F0009D910D90BC91A02D84179507A607B70745
:1035000031F0C8010E94F516882309F45FC1ED81EE
:10351000FE81309709F42EC16F01212C6894332469
:1035200031F8F80182859385A485B585038CF48DE7
:10353000E02DF887EF83AC01BD01032E39E07695CD
:103540006795579547953A95D1F7302D24812150AD
:1035500024235C01F1E0BF22211157C0A114B10462
:1035600009F071C1D80116964D915D916D917C91D4
:1035700019974115510561057105B1F457968D9163
:103580009D910D90BC91A02D0097A105B10531F43E
:10359000C8010E94F113811129C118C1F801868365
:1035A0009783A087B18722C19E012F5F3F4F8F81F4
:1035B00098850E941C1D811102C090E070C1498154
:1035C0005A816B817C81D8015B96ED91FC915C976F
:1035D0008789803129F488EF9FEFA0E0B0E004C034
:1035E00088EF9FEFAFEFBFE0481759076A077B07E7
:1035F00030F0C8010E94F1138111F8C0E7C0F80152
:103600004683578360877187F1C0C1018A199B097E
:1036100076018C159D0508F47C01D80116964D9015
:103620005D906D907C901997B2E04B1A510861083B
:103630007108EF81F885058404C0440C551C661C94
:10364000771C0A94D2F786859785A089B189480EA0
:10365000591E6A1E7B1E420E511C611C711CE11416
:10366000F2E0FF0639F58091070190910801A091E1
:103670000901B0910A0184159505A605B70559F40D
:103680008FEF9FEFDC018093070190930801A093D7
:103690000901B0930A019401B301A2018091EF02E4
:1036A0009091F0020E949713882309F48FC09EEF37
:1036B000991A4DC0A114B10429F5D8011A964D915B
:1036C0005D916D917C911D9753968D919D910D907B
:1036D000BC91A02D481759076A077B0798F00E94F4
:1036E000791C882309F472C04092070150920801A6
:1036F0006092090170920A018091EE0281608093CC
:10370000EE0208C041E0C301B2010E94B81C882348
:1037100009F45CC0B5016F507D4F9B012E0D3F1D1C
:1037200062177307A1F0D401FB01C9014D914193C8
:10373000E817F907D9F75B01BFEFAB1ABB0A81E0C5
:1037400090E08A199B09280F391F820E931ECE180C
:10375000DF08F80182859385A485B5858E0D9F1DB0
:10376000A11DB11D82879387A487B587C114D10499
:1037700009F0D7CEF80182859385A485B585438964
:10378000548965897689481759076A077B0740F489
:10379000838B948BA58BB68B8481806884830DC0CA
:1037A0008091E8029091E902892B39F02D813E81C8
:1037B000232B19F0848180688483F801848183FF3E
:1037C0000FC0C8010E94A31781110DC081E090E0D5
:1037D000D80113969C938E93129780E090E05FC07F
:1037E0008D819E815CC08D819E8159C07601B1E042
:1037F000CB16B2E0DB0608F07101D8015B96ED91C3
:10380000FC915C9716964D905D906D907C90199709
:10381000B2E04B1A510861087108058404C0440CD9
:10382000551C661C771C0A94D2F786859785A0895B
:10383000B189480E591E6A1E7B1EE114E2E0FE06A5
:1038400009F03BCF10CFC1018A199B0976018C1575
:103850009D0508F47C01D80116964D905D906D9001
:103860007C901997B2E04B1A510861087108EF81FA
:10387000F885058404C0440C551C661C771C0A940A
:10388000D2F786859785A089B189480E591E6A1E90
:103890007B1EE114F2E0FF0609F034CFE4CE289657
:1038A0000FB6F894DEBF0FBECDBFDF91CF911F9151
:1038B0000F91FF90EF90DF90CF90BF90AF909F90CF
:1038C0008F907F906F905F904F903F902F900895D2
:1038D000CF93DF931F92CDB7DEB7698341E050E00D
:1038E000BE016F5F7F4F0E94441A0F90DF91CF910E
:1038F00008958091EE028823A9F14091070150912B
:1039000008016091090170910A0121EF32E0809174
:10391000EF029091F0020E949713882329F14091C1
:10392000EA025091EB026091EC027091ED024115B8
:1039300051056105710591F021EF32E08091EF02B0
:103940009091F0020E949713882381F01092EA026E
:103950001092EB021092EC021092ED021092EE0225
:1039600081E0089581E0089580E0089580E0089561
:10397000CF92DF92EF92FF92CF936B017C01C42F25
:103980008091070190910801A0910901B0910A016D
:103990008C159D05AE05BF05C1F00E94791C8823DA
:1039A000D9F021EF32E0B701A6018091EF029091AA
:1039B000F0020E945113882389F0C0920701D0922F
:1039C0000801E0920901F0920A018091EE02C82BF1
:1039D000C093EE0281E003C080E001C080E0CF919F
:1039E000FF90EF90DF90CF900895CF92DF92EF920B
:1039F000FF926B017C010E94791C8823B9F0E1EFF2
:103A0000F2E081EF94E01192E817F907E1F7C09234
:103A10000701D0920801E0920901F0920A01809119
:103A2000EE0281608093EE0281E001C080E0FF90B1
:103A3000EF90DF90CF9008958F929F92AF92BF92B8
:103A4000CF92DF92EF92FF920F931F93CF93DF936A
:103A5000EC016A017B01890189859A85AB85BC856A
:103A60000196A11DB11D84179507A607B70708F495
:103A70005EC08B899C89AD89BE892F89203129F44C
:103A8000452F562F672F772708C0689416F876952C
:103A90006795579547951694D1F74A015B01880EB3
:103AA000991EAA1EBB1EC501B4018090070190900B
:103AB0000801A0900901B0900A01681579058A05EE
:103AC0009B0529F040E00E94B81C882391F18F8962
:103AD0008031A1F4DD24EE24FF24C601880F991F54
:103AE000FC01EF50FD4F80819181A0E0B0E0F80132
:103AF00080839183A283B38381E01CC0E894C7F8DC
:103B0000DD24EE24FF24C601880F991F880F991F1A
:103B1000FC01EF50FD4F80819181A281B381BF7084
:103B2000F80180839183A283B38381E003C080E0A6
:103B300001C080E0DF91CF911F910F91FF90EF9036
:103B4000DF90CF90BF90AF909F908F9008952F926D
:103B50003F924F925F926F927F928F929F92AF921D
:103B6000BF92CF92DF92EF92FF920F931F93CF936A
:103B7000DF9300D000D000D0CDB7DEB78C014983F1
:103B80005A836B837C833E832D83C12CD12C760199
:103B9000412C512C3201689451F80F2EF8EF2F2E42
:103BA000F02D33243A9488248A940F2EFFE09F2E20
:103BB000F02DA12CB12C49815A816B817C819E0111
:103BC0002F5F3F4FC8010E941C1D882361F1D30164
:103BD000C201F801058404C0880F991FAA1FBB1FEA
:103BE0000A94D2F7C80ED91EEA1EFB1E49815A81DB
:103BF0006B817C818789803129F488EF9FEFAA2D22
:103C0000BB2D04C0822D932DA82DB92D481759071F
:103C10006A077B0780F2ED81FE81C082D182E28259
:103C2000F38281E001C080E026960FB6F894DEBFF3
:103C30000FBECDBFDF91CF911F910F91FF90EF90FD
:103C4000DF90CF90BF90AF909F908F907F906F90BC
:103C50005F904F903F902F9008954F925F926F9298
:103C60007F928F929F92AF92BF92CF92DF92EF920C
:103C7000FF920F931F93CF93DF93EC016A017B01B7
:103C800048015901423051056105710508F476C0BB
:103C900049855A856B857C854F5F5F4F6F4F7F4F9E
:103CA0004C155D056E057F0508F46AC04B895C897B
:103CB0006D897E898F89803129F44D2C5E2C6F2C83
:103CC00077240AC026013701689416F87694679421
:103CD000579447941694D1F7440E551E661E771ECE
:103CE00040910701509108016091090170910A010A
:103CF000441655066606770639F040E0C301B20166
:103D00000E94B81C8823F1F18F89803161F4DD2491
:103D1000EE24FF24C601880F991FFC01EF50FD4FD0
:103D20009182808211C0E894C7F8DD24EE24FF243C
:103D3000C601880F991F880F991FFC01EF50FD4F96
:103D400080829182A282B3828091EE028160809310
:103D5000EE028A898230C0F08D819E81AF81B88564
:103D6000480E591E6A1E7B1E4092EA025092EB02D8
:103D70006092EC027092ED0281E007C080E005C025
:103D800080E003C080E001C081E0DF91CF911F910E
:103D90000F91FF90EF90DF90CF90BF90AF909F90EA
:103DA0008F907F906F905F904F9008952F923F92E9
:103DB0004F925F926F927F928F929F92AF92BF923B
:103DC000CF92DF92EF92FF920F931F93CF93DF93E7
:103DD000CDB7DEB72F970FB6F894DEBF0FBECDBFBD
:103DE0001C0149875A876B877C873E872D87F9019D
:103DF00080819181A281B3810097A105B10549F02D
:103E00002C013D01FFEF4F1A5F0A6F0A7F0A1F86E0
:103E100011C0D1014D905D906D907C90B1E0BF8755
:103E200029853A854B855C85213031054105510551
:103E300009F01F86F10181859285A385B4859C01D7
:103E4000AD012F5F3F4F4F4F5F4F2D833E834F8319
:103E50005887892B8A2B8B2B09F459C07301620177
:103E6000812C912C540112E000E08D819E81AF8164
:103E7000B8858C159D05AE05BF0540F4C12ED02E2A
:103E8000E12CF12C412E502E612C712C9E012F5FC4
:103E90003F4FB701A601C1010E941C1D8823B9F143
:103EA00089819A81AB81BC81892B8A2B8B2B41F034
:103EB000260137019FEF491A590A690A790A12C087
:103EC000D701C6010196A11DB11D84199509A60946
:103ED000B70929853A854B855C8582179307A40726
:103EE000B507B9F03FEF831A930AA30AB30A4FEF5D
:103EF000C41AD40AE40AF40AF10181859285A385E3
:103F0000B48588169906AA06BB0608F4AECF80E0F1
:103F100057C00FEF1FEF2FEF3FE0B701A601C10120
:103F20000E942D1E811112C04BC0970186014801CD
:103F30005901F1E08F1A9108A108B108B501A40157
:103F4000C1010E942D1E811107C035C04C145D04B3
:103F50006E047F0450F308C0481459046A047B04BB
:103F600018F495018401E3CFAD85BE854D915D9137
:103F70006D917C91411551056105710539F09301F1
:103F80008201C1010E942D1E8823B9F0ED85FE85B6
:103F90004082518262827382FF85FF2381F0D301C8
:103FA000C2010196A11DB11DF10180839183A283FD
:103FB000B38381E005C080E003C080E001C081E000
:103FC0002F960FB6F894DEBF0FBECDBFDF91CF9115
:103FD0001F910F91FF90EF90DF90CF90BF90AF9027
:103FE0009F908F907F906F905F904F903F902F9019
:103FF00008952F923F924F925F926F927F928F928D
:104000009F92AF92BF92CF92DF92EF92FF920F9367
:104010001F93CF93DF9300D000D0CDB7DEB75C0104
:104020006A017B0182E090E0A0E0B0E0F5018083CE
:104030009183A283B3830F2EF8EF6F2EF02D772498
:104040007A9488248A940F2EFFE09F2EF02D0F2E55
:10405000F8EF2F2EF02D33243A94412C512C9E0151
:104060002F5F3F4FB701A601C5010E941C1D882389
:1040700009F100E010E09801B701A601C5010E9416
:104080002D1E8823B9F0C980DA80EB80FC80F50111
:104090008789803129F4822D932DA42DB52D04C05C
:1040A000862D972DA82DB92DC816D906EA06FB0630
:1040B000B0F202C080E001C081E00F900F900F903D
:1040C0000F90DF91CF911F910F91FF90EF90DF90B4
:1040D000CF90BF90AF909F908F907F906F905F90A8
:1040E0004F903F902F9008958F929F92AF92BF92E2
:1040F000CF92DF92EF92FF920F931F93CF93DF93B4
:10410000EC01142F7093F0026093EF02442351F1FD
:10411000453008F0FBC040E060E070E0CB010E9459
:10412000B81C882309F4F4C020E1129FF001112487
:10413000E156FB4F80818F7709F0ECC0848595852F
:10414000A685B78584369105A105B10508F4E4C0BC
:10415000C084D184E284F384C114D104E104F10465
:1041600021F4DCC0C12CD12C760140E0C701B6019E
:104170000E94B81C882309F4D3C08091FC0290915E
:10418000FD028115924009F0CDC020910103222348
:1041900009F4CAC08091FF0290910003892B09F4B1
:1041A000C5C04091FE02442309F4C2C02A8B4C834F
:1041B0001D8650E021E030E006C081E0860F8D874B
:1041C000683008F0B7C06D85E62FC901062E02C021
:1041D000880F991F0A94E2F74817590771F7209141
:1041E0000703309108032115310519F040E050E034
:1041F00008C0209115033091160340911703509188
:1042000018032D833E834F8358878091FF0290913E
:10421000000346015701880E991EA11CB11C8B8A10
:104220009C8AAD8ABE8A0091020310910303198F04
:10423000088FA0910103B0E00E94E324860E971E30
:10424000A81EB91E8A8E9B8EAC8EBD8E000F111FCC
:1042500002951295107F1027007F102701501E4FE6
:10426000C801892F99278695880E991EA11CB11C1B
:104270008E869F86A88AB98A80910403909105034F
:10428000009719F0A0E0B0E008C080911103909170
:104290001203A0911303B0911403C818D908EA08B7
:1042A000FB08C80ED91EEA1EFB1E04C0F694E79454
:1042B000D794C794EA95D2F7C986DA86EB86FC864E
:1042C00085EFC8168FE0D806E104F10420F48CE0F5
:1042D0008F8B81E030C025EFC2162FEFD206E104AC
:1042E000F10420F480E18F8B81E025C080911D03D3
:1042F00090911E03A0911F03B09120038A8F9B8F82
:10430000AC8FBD8F80E28F8B81E015C080E013C041
:1043100080E011C080E00FC080E00DC080E00BC0E5
:1043200080E009C080E007C080E005C080E003C0F5
:1043300080E001C080E0DF91CF911F910F91FF904D
:10434000EF90DF90CF90BF90AF909F908F900895A7
:10435000CF93CFB7F8948091F404811127C0EBE993
:10436000F0E09491E7E8F0E08491E92FF0E0EE0FBF
:10437000FF1FE754FF4FA591B491EC918E2321F4D8
:1043800061E08AE00E945B0861E08AE00E941D080B
:104390008CB580618CBD8CB580648CBD61E08DE096
:1043A0000E941D0861E08BE00E941D088091F404CA
:1043B0008F5F8093F404CFBFCF9108959FB7F89497
:1043C000882319F0813041F002C081E006C082E00C
:1043D0008093F30480E001C082E02091F204822BFC
:1043E0008093F2048091F304811103C081E08093F3
:1043F000F3049FBF08950F931F93CF93DF938C0116
:1044000060E08EE00E941D0860E08FE00E941D08C1
:1044100061E08DE00E941D08E8E6F0E080818260A6
:104420008083ECE6F0E0808183608083F8941092D2
:104430008000C1E8D0E01882980140E050E064E2DA
:1044400074EF80E090E00E94C424319521953109F9
:10445000E6EFF4E0318320838081918190938500A1
:1044600080938400888184608883EFE6F0E0808117
:104470008160808378948FEF8093FF0481E0809344
:1044800000058093F50480930105DF91CF911F9182
:104490000F91089510920105EFEFF4E08081809371
:1044A0000005808108958091010508951F920F9263
:1044B0000FB60F9211242F938F939F93EF93FF9337
:1044C0008091F6049091F704909385008093840086
:1044D0008091FA049091FB048035934C38F4EAEF14
:1044E000F4E0808191810196918380838091FC0426
:1044F000813009F0A1C08091F8049091F9048A3FBD
:10450000910508F466C01092FC0480910B0582307E
:1045100028F080910B05883008F469C080910A0565
:10452000823008F45EC080910A05883008F45FC0CC
:1045300058C080910505813009F064C05DC080914C
:104540000505882309F464C069C0809105058130A0
:1045500009F06EC069C086E08093FF040BC08091B3
:104560000A05823020F481E08093FF0403C08FEFBE
:104570008093FF048091FF04181624F48091FF04B7
:1045800087301CF08FEF8093FF048091F504813019
:1045900071F48091FF04813021F08091FF04863016
:1045A00019F41092F50403C08FEF8093FF0410926A
:1045B0000A0510920B05909100058091FF04981751
:1045C00019F081E08093010580910605809305052F
:1045D00033C0E8EFF4E0808191810196918380837C
:1045E0002BC080910B05823008F0B9CFB4CF8091F9
:1045F0000605813039F49DCFEFEFF4E080818F5FC5
:104600008083B8CF80910605882309F498CF06C02F
:10461000EFEFF4E0808181508083ACCF809106057C
:10462000882309F492CF04C085E08093FF04A2CFD1
:1046300082E08093FF049ECFFF91EF919F918F9135
:104640002F910F900FBE0F901F9018951F920F92F1
:104650000FB60F9211242F933F934F935F936F9355
:104660007F938F939F93AF93BF93EF93FF938EE0CE
:104670000E948C08019721F481E08093FD0402C020
:104680001092FD048FE00E948C08019721F481E0D4
:104690008093FE0402C01092FE048091FD048130DC
:1046A000B9F58091FE04813099F52EC08091FE0409
:1046B000813091F536C08091F8049091F9048639E3
:1046C000910520F4809109058130A1F1109209052E
:1046D00013C08091FE04882309F43FC00DC080916F
:1046E000F8049091F9048639910520F48091090528
:1046F0008130E9F11092090581E08093FC04109269
:10470000F9041092F80445C081E080930905F4CFC4
:104710008091FD04882351F28091FD04813061F77E
:10472000D8CF1092FC048091F8049091F904499735
:1047300010F6CCCF8091F8049091F9049093030582
:104740008093020581E080930605EAE0F5E0808130
:104750008F5F808310920B05B9CF1092FC0480917B
:10476000F8049091F904499708F0B9CFC3CF80912C
:10477000F8049091F9049093030580930205109238
:104780000605EBE0F5E080818F5F808310920A05DB
:10479000B1CFFF91EF91BF91AF919F918F917F9199
:1047A0006F915F914F913F912F910F900FBE0F909E
:1047B0001F90189540E855E260E070E08CEC91E0C5
:1047C0000E9486036FE371E08CEC91E00E944F053C
:1047D0008CE095E00E94860C811107C06BEF70E0C1
:1047E0008CEC91E00E943D05FFCF6DEE70E08CEC0B
:1047F00091E00E943D0564E670E080E090E00E9458
:104800007E0769E08CE992E00E94EF0D811107C0FC
:1048100063ED70E08CEC91E00E943D05FFCF6CE50C
:1048200071E08CEC91E00E944F0544E164E18CE082
:1048300095E00E94E60B65E08CE095E00E94B608EA
:1048400084E690E00E94FB2108950E945322882371
:1048500009F45CC00E944A22833011F12CF48130AB
:1048600049F0823091F048C0853081F124F18630E2
:10487000C1F142C08CE095E00E943E0B63E671E01E
:104880008CE095E00E94510B41C08CE095E00E94C5
:104890003E0B6BE671E08CE095E00E94510B36C058
:1048A0008CE095E00E943E0B63E771E08CE095E0C0
:1048B0000E94510B2BC08CE095E00E943E0B6DE7EF
:1048C00071E08CE095E00E94510B20C08CE095E0F7
:1048D0000E943E0B66E871E08CE095E00E94510B6F
:1048E00015C08CE095E00E943E0B6FE871E08CE013
:1048F00095E00E94510B0AC08CE095E00E943E0BAF
:1049000067E971E08CE095E00E94510B6AE070E08D
:1049100080E090E00E947E070895EF920F9381E976
:1049200095E00E94610D0F2EF9E0EF2EF02D02E0D0
:1049300027E046E068E08CE095E00E94E8080F91EF
:10494000EF900895A1E21A2EAA1BBB1BFD010DC01A
:10495000AA1FBB1FEE1FFF1FA217B307E407F5072F
:1049600020F0A21BB30BE40BF50B661F771F881F0B
:10497000991F1A9469F760957095809590959B01A1
:10498000AC01BD01CF010895052E97FB1EF40094E4
:104990000E94DB2457FD07D00E94A22407FC03D00D
:1049A0004EF40C94DB2450954095309521953F4F63
:1049B0004F4F5F4F089590958095709561957F4F0B
:1049C0008F4F9F4F08950E94F424A59F900DB49F90
:1049D000900DA49F800D911D11240895EE0FFF1FCF
:1049E0000590F491E02D0994A29FB001B39FC001FE
:1049F000A39F700D811D1124911DB29F700D811D0B
:104A00001124911D0895FB01DC0104C08D910190DA
:104A1000801921F441505040C8F7881B990B089524
:104A2000FC018191861721F08823D9F799270895F1
:104A30003197CF010895FB01DC014150504048F00F
:104A400001900D920020C9F701C01D9241505040C5
:084A5000E0F70895F894FFCF90
:104A58000000B0058000FFFFFFFFFF000000007CA2
:104A680002B5041F02500237027102000000004F15
:104A78000402000301000000008E0CA40C9F0DC767
:104A88000CE80C200D2F0000000000681CB5044144
:104A98006461667275697420565331303533206D00
:104AA8007573696320706C61796572005344204F97
:104AB8004B21006F6E652E6D70330074776F2E6D0D
:104AC80070330074687265652E6D703300666F759B
:104AD800722E6D703300666976652E6D70330073C3
:104AE80069782E6D703300776169742E6D703300AC
:104AF8004C4953542E4C4D54000A0D004C4F414420
:104B0800494E472E2E2E006C6973742E6C6D7420DE
:0C4B18006E6F7420666F756E64210000E3
:00000001FF
