:100000001AC034C033C032C031C030C02FC02EC07F
:100010002DC02CC02BC02AC029C028C027C026C094
:1000200025C024C023C0CEC0D1C0D4C0D7C0DAC040
:10003000E4C0DCC0DFC011241FBECFE5D4E0DEBFCA
:10004000CDBF22E0A4E6B0E001C01D92AC3BB207F8
:10005000E1F710E0A0E6B0E0E4EDF5E102C00590C4
:100060000D92A436B107D9F7C6D8B2CAC9CFA29AA1
:10007000A39AAB98AA980895AA98AB9880E2AA9AF6
:10008000AA988150E1F70895AA98AB98009749F093
:1000900020E030E0AA9AAA982F5F3F4F281739072F
:1000A000C9F70895AB9AAA9AAA9825E090E1392F4A
:1000B000382311F0AB9A01C0AB98AA9AAA989695EA
:1000C0002150A9F795E080E1282F262311F0AB9A63
:1000D00001C0AB98AA9AAA9886959150A9F795E085
:1000E00080E1282F242311F0AB9A01C0AB98AA9A83
:1000F000AA9886959150A9F70895EF92FF920F93D1
:100100001F93CF93DF93E82EF92E8B01B5DF0115F6
:100110001105E1F0CE2DDF2DE12CF12C9981492F35
:10012000469546954F718881682F629566956770F0
:100130009370990F990F990F692B8F71B3DF8FEF20
:10014000E81AF80A2296E016F10641F7C8019CDF8A
:10015000DF91CF911F910F91FF90EF900895EF9253
:100160000F932F710F71AE2DAF7146175707F0F037
:10017000FB01EE0FFF1FE80FF91F2F71302F329593
:10018000330F307E069506950695EA2EEE0CEE0CA2
:10019000822F832B808391819078902B9E2991834D
:1001A0006F5F7F4F32964617570790F70F91EF908A
:1001B0000895482F50E048305105F8F4FA01ED5EFB
:1001C000FF4F099420E090E030E017C020E090E07D
:1001D0003FE113C020E09FE130E00FC02FE190E04D
:1001E00030E00BC020E09FE13FE107C02FE190E04D
:1001F0003FE103C02FE19FE13FE1492F4295440FCA
:10020000407E832F8F719695969596952F71220F2C
:10021000220F9370842B922B0895CF93DF93EA01E2
:10022000C61BD70B21111DC0FB01EE0FFF1FE80FEE
:10023000F91FA081B181CD2B61F0BA01660F771F44
:10024000680F791F2281338121933193E617F707D5
:10025000C9F7440F551FFC01E40FF51FB183A083BC
:100260001CC0FA01EE0FFF1FE80FF91FA081B1813A
:10027000CD2B61F0AB01440F551F480F591F329130
:10028000229133832283E417F507C9F7660F771F9E
:10029000FC01E60FF71FB183A083DF91CF91089592
:1002A0002F923F924F925F926F927F928F929F9286
:1002B000AF92BF92CF92DF92EF92FF920F931F9374
:1002C000CF93DF93CDB7DEB72C970FB6F894DEBF90
:1002D0000FBECDBFFA01E61BF70BB12FB327BC77DA
:1002E000E1F4A02FA227AF71C1F4B32FB370BB0FFD
:1002F000BB0FBB0FA22FA295A695A770BA2BA12F5B
:10030000A370FA2EFF0CFF0CFF0CA02FA295A69550
:10031000A770AF29BA1709F4CFC1A82DBC86AB8648
:10032000F32ED22E5E834D837A8369831C01A13024
:1003300019F1E8F1A23009F055C0AB2809F4BCC1AD
:100340003A01660C771C680E791E2B01440C551C73
:10035000480E591E4F0196948794860E971EC4012D
:1003600001969C838B831A861986B12C9F012F5F7F
:100370003F4F38872F8341C18B859C85892B09F49A
:100380009BC18D809E80880C991C820C931C612CD3
:10039000712C512C5F019FEFA91AB90A7C826B82E4
:1003A0006D807E80412EC501A02E8C01C9C02B8599
:1003B0003C85232B09F480C1A980BA80AA0CBB1C00
:1003C000A80EB91E612C712C4F013FEF831A930ABE
:1003D000412C7C826B826D807E80512EC401802EE8
:1003E0008C0167C08B859C85892B09F465C14F0101
:1003F0009694879429813A81820E931EC401880FB6
:10040000991F3101680E791E94012F5F3F4F3C8385
:100410002B8302962101480E591E1A861986B12C8B
:10042000CF01019698878F8344C1912CF501D0822A
:10043000F18221E0A30169817A81C101EEDEB80178
:10044000C1015BDEEE2051F0842DEFE9FFE0319732
:10045000F1F700C000008F5F8E11F7CF93949C10CE
:10046000E5CF912CF5018082518221E0A3016981C1
:100470007A81C101D2DEB801C1013FDEEE2051F028
:10048000842DEFE9FFE03197F1F700C000008F5FA6
:100490008E11F7CF93949C10E5CF2B813C812F5F79
:1004A0003F4F3C832B838B859C852817390709F4A4
:1004B00003C1C110BACFF1CFB52CF401D082F182C3
:1004C000252DA30169817A81C101A7DEB801C1018F
:1004D00014DEEE2051F0852DEFE9FFE03197F1F7C2
:1004E00000C000008F5F8E11F7CFB394BC10E5CF32
:1004F000B52CF401A0824182252DA30169817A8166
:10050000C1018BDEB801C101F8DDEE2051F0852D6F
:10051000EFE9FFE03197F1F700C000008F5F8E1127
:10052000F7CFB394BC10E5CF2B813C812F5F3F4FB9
:100530003C832B838B859C852817390709F4BCC025
:10054000C110BACFF1CFAB2CF301D082F182F2010E
:10055000D082F1822B2DA40169817A81C1015DDEF7
:1005600021E04D815E816B817C81C10156DE6F810E
:100570007885C101C2DDEE2051F08B2DEFE9FFE05F
:100580003197F1F700C000008F5F8E11F7CFA39471
:10059000AC10DACFAB2CF30100831183F20100839E
:1005A00011832B2DA40169817A81C10136DE21E0FE
:1005B0004D815E816B817C81C1012FDE6F817885E9
:1005C000C1019BDDEE2051F08B2DEFE9FFE031976B
:1005D000F1F700C000008F5F8E11F7CFA394AC102D
:1005E000DACF29853A852F5F3F4F3A8729878B8558
:1005F0009C852817390709F45FC0C110A4CFF1CF3B
:10060000AB2CF301D082F182F201D082F18221E0A1
:10061000A40169817A81C10100DE2B2D4D815E81AB
:100620006B817C81C101F9DD6F817885C10165DD58
:10063000EE2051F08B2DEFE9FFE03197F1F700C08C
:1006400000008F5F8E11F7CFA394AC10DACFAB2CE4
:10065000F30100831183F2010083118321E0A401DF
:1006600069817A81C101D9DD2B2D4D815E816B813C
:100670007C81C101D2DD6F817885C1013EDDEE2034
:1006800051F08B2DEFE9FFE03197F1F700C000004A
:100690008F5F8E11F7CFA394AC10DACF29853A85FE
:1006A0002F5F3F4F3A8729878B859C85281739070D
:1006B00019F0C110A5CFF2CF2C960FB6F894DEBF7B
:1006C0000FBECDBFDF91CF911F910F91FF90EF90A3
:1006D000DF90CF90BF90AF909F908F907F906F9062
:1006E0005F904F903F902F900895CF93DF93FC0140
:1006F000DB0111969C911197818189278C7701F5F7
:100700002081822F82958695877021812370220F08
:10071000220F220F282B8C91982F929596959770E7
:1007200011968C9111978370880F880F880F892BF1
:10073000281306C09C91808189278F7109F48FC08E
:10074000442309F48EC030E080818F71C82FD0E03F
:100750006C916F7170E06C177D0744F48150982F95
:100760009F718081807E892B80830AC0C617D7073E
:100770003CF48F5F982F9F718081807E892B8083CE
:100780009081292F22952695277091819370990F3A
:10079000990F990F922BC92FD0E06C91862F8295DB
:1007A0008695877011966C9111976370660F660F2E
:1007B000660F682B70E06C177D0794F49150292F19
:1007C0002295220F207E80818F71822B80839695C7
:1007D00096959695937081818C7F982B918314C008
:1007E000C617D7078CF49F5F292F2295220F207EF2
:1007F00080818F71822B80839695969596959370C4
:1008000081818C7F982B91839181969596959F718C
:10081000C92FD0E011966C911197669566956F710E
:1008200070E06C177D0754F491509F71892F880FE9
:10083000880F91819378982B91830CC0C617D707A6
:100840004CF49F5F9F71892F880F880F9181937857
:10085000982B91833F5F341377CF80E003C081E012
:1008600001C080E0DF91CF9108952F923F924F9287
:100870005F926F927F928F929F92AF92BF92CF9230
:10088000DF92EF92FF920F931F93CF93DF93CDB739
:10089000DEB760970FB6F894DEBF0FBECDBFFA018A
:1008A000E61BF70BB12FB327BC77E1F4A02FA227EB
:1008B000AF71C1F4B32FB370BB0FBB0FBB0FA22F2F
:1008C000A295A695A770BA2BA12FA370FA2EFF0CA4
:1008D000FF0CFF0CA02FA295A695A770AF29BA1701
:1008E00009F414C2A82DBD86AC86F12E098738877D
:1008F0002F831A012B018C0129833A8329852B83AD
:10090000FC82A13041F068F0A23081F4C501892B4E
:1009100009F0DFC0FBC12C853D85232B09F073C096
:10092000F5C18C859D85892B39F4F0C12C853D85D9
:10093000232B09F05DC1EAC14B01880C991C800E84
:10094000911E612C712CCF0101965C01D12C898103
:100950009A81F4019183808321E0A101B201C80151
:100960005CDCB501C801C9DBEE2051F08D2DEFE94B
:10097000FFE03197F1F700C000008F5F8E11F7CFD5
:100980004C2DBE016D5F7F4FCE010196AEDE8823F8
:10099000F1F2F985F983FA822F812B8338853C8324
:1009A00089819A81F4019183808321E0A101B201C0
:1009B000C80133DCB501C801A0DBEE2051F08D2D5C
:1009C000EFE9FFE03197F1F700C000008F5F8E1173
:1009D000F7CF4C2DBE016D5F7F4FCE01019685DEB6
:1009E0008823F1F2FF81F98328852A8339853B83A7
:1009F000FC828FEF681A780AEC85FD856E167F06FB
:100A000009F0A5CF83C14A01880C991C880E991E54
:100A1000612C712C9F012F5F3F4F5901D98489812F
:100A20009A81F4019183808320E0A101B201C80181
:100A3000F4DBB501C80161DBEE2051F080E0EFE9A5
:100A4000FFE03197F1F700C000008F5F8E11F7CF04
:100A50004C2DBE016D5F7F4FCE01019646DE88238F
:100A6000F1F2D982FA82FF81FB8328852C83898168
:100A70009A81F4019183808320E0A101B201C80131
:100A8000CCDBB501C80139DBEE2051F080E0EFE9A5
:100A9000FFE03197F1F700C000008F5F8E11F7CFB4
:100AA0004C2DBE016D5F7F4FCE0101961EDE882367
:100AB000F1F2FF81F98328852A83DB82FC823FEFF4
:100AC000631A730A8C859D856816790609F0A7CF8D
:100AD0001DC14A01880C991C800E911E3B01660CB9
:100AE000771C600E711E5F01B694A794A60EB71E08
:100AF00095012F5F3F4F3E832D831B861A86CF01C2
:100B00000196988B8F87FE86DE2C7C0189819A81E5
:100B1000F40191838083F3019183808320E0A50118
:100B2000B201C8017ADB21E0A1016D817E81C8019B
:100B300074DBB701C801E1DADD2051F080E0EFE9B4
:100B4000FFE03197F1F700C000008F5F8D11F7CF04
:100B50004C2DBE016D5F7F4FCE010196C6DD88230F
:100B6000A9F2F985F9832E852A833F813B83888505
:100B70008C8389819A81F40191838083F30191832D
:100B8000808320E0A501B201C80147DB21E0A1017B
:100B90006D817E81C80141DBB701C801AEDADD207D
:100BA00051F080E0EFE9FFE03197F1F700C000007D
:100BB0008F5F8D11F7CF4C2DBE016D5F7F4FCE0142
:100BC000019693DD8823A9F2FF81F98328852A8382
:100BD00039853B838E858C83EA85FB853196FB873F
:100BE000EA872C853D85E217F30709F08FCF8EC089
:100BF0005F01B694A794A60EB71EC501880F991F72
:100C00004801880E991E95012F5F3F4F3E832D832B
:100C100002963801680E791E1B861A86CF0101964E
:100C2000988B8F87FE86DE2C7C0189819A81F40166
:100C300091838083F3019183808321E0A501B20138
:100C4000C801EBDA20E0A1016D817E81C801E5DAFF
:100C5000B701C80152DADD2051F080E0EFE9FFE092
:100C60003197F1F700C000008F5F8D11F7CF4C2D49
:100C7000BE016D5F7F4FCE01019637DD8823A9F25B
:100C8000F985F9832E852A833F813B8388858C8370
:100C900089819A81F40191838083F3019183808318
:100CA00021E0A501B201C801B8DA20E0A1016D81FF
:100CB0007E81C801B2DAB701C8011FDADD2051F028
:100CC00080E0EFE9FFE03197F1F700C000008F5FAF
:100CD0008D11F7CF4C2DBE016D5F7F4FCE01019678
:100CE00004DD8823A9F2FF81F98328852A833985C9
:100CF0003B838E858C83EA85FB853196FB87EA876B
:100D00002C853D85E217F30709F08FCF60960FB66B
:100D1000F894DEBF0FBECDBFDF91CF911F910F9131
:100D2000FF90EF90DF90CF90BF90AF909F908F900B
:100D30007F906F905F904F903F902F9008952F92EB
:100D40003F924F925F926F927F928F929F92AF925B
:100D5000BF92CF92DF92EF92FF920F931F93CF93A8
:100D6000DF93CDB7DEB72A970FB6F894DEBF0FBE7C
:100D7000CDBF5C013B012A01122FFA86E9867A0178
:100D8000E61AF70AFCD327E030E040E050E06FD3EA
:100D9000862F0FDA9A838983F2D327E030E040E090
:100DA00050E065D3862F05DA9C838B8321E0C21641
:100DB00059F0C21678F032E0C31211C089859A85C5
:100DC000892B09F099C055C1E985FA85EF2B09F007
:100DD00050C04FC129853A85232B39F44AC18985F2
:100DE0009A85892B09F0E7C044C16301CC0CDD1C56
:100DF000CA0CDB1C812C912CF70131967F01312C20
:100E000089819A81F6019183808321E0A201B30157
:100E1000C50103DAB701C50170D9112351F0832D43
:100E2000EFE9FFE03197F1F700C000008F5F811319
:100E3000F7CF402FBE016D5F7F4FCE01019655DC8D
:100E40008823F1F28B819C819A83898398D327E050
:100E500030E040E050E00BD3862FABD99C838B83EE
:100E6000FFEF8F1A9F0A29853A858216930641F66D
:100E700000C16201CC0CDD1CCA0CDB1C812C912C46
:100E8000C70101967C0129843A8489819A81F601FF
:100E90009183808320E0A201B301C501BED9B701CF
:100EA000C5012BD9112351F080E0EFE9FFE0319724
:100EB000F1F700C000008F5F8113F7CF402FBE0114
:100EC0006D5F7F4FCE01019610DC8823F1F28B819C
:100ED0009C819A83898353D327E030E040E050E03F
:100EE000C6D2862F66D99C838B83FFEF8F1A9F0A09
:100EF0008214930451F6BDC06201CC0CDD1CCA0CF7
:100F0000DB1C4301880C991C8A0C9B1C170136942E
:100F10002794260C371C91012F5F3F4F3E832D8372
:100F200018861F82C70101967C0189819A81F6018A
:100F300091838083F4019183808320E0A101B30138
:100F4000C5016BD921E0A2016D817E81C50165D902
:100F5000B701C501D2D8112351F080E0EFE9FFE0DD
:100F60003197F1F700C000008F5F8113F7CF402F5A
:100F7000BE016D5F7F4FCE010196B7DB8823A9F2DA
:100F80008B819C819A838983FAD227E030E040E00C
:100F900050E06DD2862F0DD99C838B832F813885AD
:100FA0002F5F3F4F38872F8389859A852817390708
:100FB00009F0BBCF5EC0170136942794260C371C6E
:100FC000C101880F991F6501C80ED91EF101319624
:100FD000FE83ED8302964501880E991E18861F82B6
:100FE00097012F5F3F4F790189819A81F6019183A3
:100FF0008083F4019183808321E0A101B301C501C5
:101000000CD920E0A2016D817E81C50106D9B7010E
:10101000C50173D8112351F080E0EFE9FFE031976B
:10102000F1F700C000008F5F8113F7CF402FBE01A2
:101030006D5F7F4FCE01019658DB8823A9F28B812B
:101040009C819A8389839BD227E030E040E050E086
:101050000ED2862FAED89C838B832F8138852F5F4D
:101060003F4F38872F8389859A852817390709F0DC
:10107000BBCF2A960FB6F894DEBF0FBECDBFDF916F
:10108000CF911F910F91FF90EF90DF90CF90BF9085
:10109000AF909F908F907F906F905F904F903F9018
:1010A0002F9008952F923F924F925F926F927F926E
:1010B0008F929F92AF92BF92CF92DF92EF92FF9268
:1010C0000F931F93CF93DF9300D000D0CDB7DEB73F
:1010D0004C013C832B83FB01EE0FFF1FE80FF91F30
:1010E000808191819A8389839C818A8198279C77CA
:1010F000A9F0461B570B3A018FEF681A780A19F0CE
:10110000562CF72C02C0512CF12C5A0182E0A80E6B
:10111000B11C2E2E3F2E10E0412C1CC09B818981DA
:1011200089278F7131F72981822F82958695877063
:101130002A812370220F220F220F282B9295969539
:1011400097708C818370880F880F880F892B2813E4
:10115000D0CF3AC06114710461F0E22DF32D81E02B
:1011600090E029813A812193319301968A159B055C
:10117000C1F7652D7F2DC401C0D70115110561F0A0
:1011800080E0942DEFE9FFE03197F1F700C0000017
:10119000019680179107B1F74E2DBE016D5F7F4F0D
:1011A000CE010196A2DA8823A9F2C114D10461F01C
:1011B00080E090E0EFE9FFE03197F1F700C0000038
:1011C00001968C159D05B1F70F900F900F900F9021
:1011D000DF91CF911F910F91FF90EF90DF90CF9013
:1011E000BF90AF909F908F907F906F905F904F9047
:1011F0003F902F9008953BD7E12C00E020E04BE298
:1012000051E060E070E084E690E0A9D70F2EF6E0B0
:101210004F2E512C612C712CF02DDEE0C12C0F2EA5
:10122000F8ECEF2EF12CF02D05E02FE04BE251E031
:1012300060E070E084E690E082DD6894CC24C1F840
:101240002FE04BE251E060E070E084E690E077DD73
:10125000CC24C3942FE04BE251E060E070E084E6E0
:1012600090E06DDD0F2EF3E0CF2EF02D2FE04BE25E
:1012700051E060E070E084E690E061DD80D1A301A0
:101280009201F5D081E0860F94D78C0178D1A3012B
:101290009201EDD081E0860F8CD7812C0F2EFCE2DD
:1012A000AF2EBB24B394F02D0F2EF5E0CF2EF02DF2
:1012B0000F2EFFE0EF2EF02D9C014BE251E060E09D
:1012C00070E084E690E0ECD75AD1A3019201CFD030
:1012D00081E0860F6ED78C0152D1A3019201C7D055
:1012E00081E0860F66D70F2EF3E08F2EF02D9C0144
:1012F0004BE251E060E070E084E690E0D1D73FD16E
:10130000A3019201B4D081E0860F53D78C0137D16D
:10131000A3019201ACD081E0860F4BD7689488245A
:1013200081F89C014BE251E060E070E084E690E0DF
:10133000B7D725D1A30192019AD081E0860F39D782
:101340008C011DD1A301920192D081E0860F31D78B
:10135000882483949C014BE251E060E070E084E6D5
:1013600090E09ED70CD1A301920181D081E0860F3D
:1013700020D78C0104D1A301920179D081E0860F9E
:1013800018D7812C6894CC24C1F89C014BE251E021
:1013900060E070E084E690E068DAF1D0A3019201A9
:1013A00066D081E0860F05D78C01E9D0A3019201B8
:1013B0005ED081E0860FFDD60F2EF3E08F2EF02D4C
:1013C0009C014BE251E060E070E084E690E04DDA91
:1013D000D6D0A30192014BD081E0860FEAD68C01D2
:1013E000CED0A301920143D081E0860FE2D68824BB
:1013F00083949C014BE251E060E070E084E690E071
:1014000034DABDD0A301920132D081E0860FD1D66B
:101410008C01B5D0A30192012AD081E0860FC9D6F4
:101420006894882481F89C014BE251E060E070E010
:1014300084E690E01ADACD2FA2D0A301920117D052
:1014400081E0860FB6D60F2EF0EDCF2EF7E0DF2E1F
:10145000F02DEE24E39402E39C014BE251E060E0C6
:1014600070E084E690E01EDEC15031F7D7CE052E45
:1014700097FB16F400940FD057FD05D014D007FC4D
:1014800002D046F408C050954095309521953F4FC5
:101490004F4F5F4F089590958095709561957F4F60
:1014A0008F4F9F4F0895A1E21A2EAA1BBB1BFD016F
:1014B0000DC0AA1FBB1FEE1FFF1FA217B307E40733
:1014C000F50720F0A21BB30BE40BF50B661F771F8B
:1014D000881F991F1A9469F760957095809590956B
:1014E0009B01AC01BD01CF0108958F929F92AF92F5
:1014F000BF92CF92DF92EF92FF92CF93DF93EC01F6
:10150000688179818A819B816115710581059105C9
:1015100021F464E279ED8BE597E02DE133EF41E0D2
:1015200050E0A5DF49015A019B01AC01A7EAB1E4F3
:1015300033D06B017C01ACEEB4EFA501940138D03F
:10154000DC01CB018C0D9D1DAE1DBF1DB7FF03C07F
:101550000197A109B04888839983AA83BB83BC0102
:10156000CD019F77DF91CF91FF90EF90DF90CF90EB
:10157000BF90AF909F908F900895B7DF089580E659
:1015800090E0B3DF089560936000709361008093F2
:1015900062009093630008950FD0A59F900DB49FB3
:1015A000900DA49F800D911D11240895B7FFF4CFD5
:1015B000F3DF821B930B0895A29FB001B39FC0017C
:1015C000A39F01D0B29F700D811D1124911D08951C
:0415D000F894FFCFBD
:0415D4000100000012
:00000001FF
