S00C00006D61696E2E7372656373
S113000030C04AC049C01DC847C046C045C044C0EE
S113001043C042C041C09EC03FC03EC03DC03CC082
S11300203BC03AC039C0EDC7EEC7EFC7F0C7F1C750
S1130030F2C7F3C7F4C7F5C7F6C7F7C7F8C7F9C7D8
S1130040FAC7FBC752C857C85CC861C866C86BC842
S113005070C875C87AC87FC884C889C88EC893C850
S113006098C811241FBECFE5D4E0DEBFCDBF20E089
S1130070A4E6B0E001C01D92AE3BB207E1F710E088
S1130080A0E6B0E0E2E0F4E102C005900D92A436EF
S1130090B107D9F77CD5B3C9B3CF8898909A90BDEE
S11300A089B980E98AB98EE880BD08958091670096
S11300B09091680008950197E5E6F0E093838283C8
S11300C0118210821682108681E080878FEF8783E9
S11300D00895AC016131E0F580916D00882399F1B8
S11300E0E5E6F0E010868285811114C0662371F084
S11300F020E030E0FA01E20FF31FD901A059BF4F0D
S11301009C9190832F5F3F4F2617A0F381E080934B
S11301106E00089580916F008A3AA9F4662371F005
S113012020E030E0FA01E20FF31FD901A059BF4FDC
S11301308C9180832F5F3F4F2617A0F381E080933B
S11301406E0082E0089581E080936E0080E008955F
S113015080E008951F920F920FB60F9211242F93EF
S11301603F938F939F93AF93BF93EF93FF938091AC
S11301706E00882309F466C05C9B06C0E5E6F0E0E7
S113018011821082168217828CB180936400809150
S11301906C00813041F018F0823041F156C081E0AA
S11301A080936C0052C080916400882321F0809178
S11301B064008A3AB9F480916400811107C0E5E6CD
S11301C0F0E0828193819583848304C010926A0055
S11301D01092690080916400E5E6F0E0828782E095
S11301E0878333C08FEF80936C002FC0E5E6F0E087
S11301F0208131818481958128173907D8F0DF0166
S1130200E681F0E080916400E059FF4F8083169608
S11302108C9116978F5F16968C93169716968C91E1
S11302201697803190F0FD01118681E080878FEF71
S113023087830BC0E5E6F0E080819181019691838C
S1130240808303C08CB180936400FF91EF91BF91D0
S1130250AF919F918F913F912F910F900FBE0F906F
S11302601F9018956623B1F0FC016150462F50E0B1
S11302704F5F5F4F480F591F20E09191292798E065
S11302808CE8269508F428279A95D9F7E417F507FA
S1130290A1F701C020E081E0211180E0089581E010
S11302A08093800008951F93CF93DF93CDB7DEB77B
S11302B060970FB6F894DEBF0FBECDBF182FA89578
S11302C080918000882391F160E1CE01019601DFE5
S11302D0823061F560E1CE010196C4DF882331F1FB
S11302E089818C3C19F58B81813001F58C8190E0FA
S11302F0982F88272D81822B803D910529F0892B09
S1130300A9F480E090E002C080E090E0FC01E756B0
S1130310FF4F1082019680319105C1F789E990E081
S11303204DD68A818E3F11F4109280008091800016
S1130330882381F089E990E041D6112359F090E0B7
S1130340A895EFE1FEE43197F1F700C000009F5F4C
S11303509113F6CF60960FB6F894DEBF0FBECDBFF3
S1130360DF91CF911F9108959F92AF92BF92CF9248
S1130370DF92EF92FF920F931F93CF93DF93962F09
S1130380981B222309F44BC06A01C80ED11CEFEF5D
S1130390E90FF0E07F018FEFE81AF80AEC0CFD1C7E
S11303A0992319F03E2D8F2D02C03C2D8D2DA32EA7
S11303B0B82EEA01C60FD11DE095F095EC0FFD1F94
S11303C0992319F03E2F8F2F02C03C2F8D2F432FDE
S11303D0582F9C2E1D2F7C2D6D2D01110FC0F60161
S11303E03081992341F0E72FF62F81818083319664
S11303F0EE16FF06D1F7F50130830FC0388199233B
S113040051F0A92DB12FFD0182918C93DF018C2F26
S11304108E1B8917C0F3FA0130832150F1F6DF9166
S1130420CF911F910F91FF90EF90DF90CF90BF90ED
S1130430AF909F900895681BDA01A80FB11D9C919D
S113044092130CC0FD0103C08081891309C0319649
S11304508E2F8A1B6817C0F781E0089580E0089505
S113046080E008957F928F929F92AF92BF92CF9235
S1130470DF92EF92FF920F931F93CF93DF93B82EE7
S1130480A62EEA01922E162F181B6A01C80ED11C43
S11304907C2C8D2CF12C37C0E72DF82D80818E1506
S11304A0A0F4002341F180818F5F80838081E8166E
S11304B011F13F2D06C090819F5F90838081E816E3
S11304C0D1F03F5F3013F7CF16C08081E81698F45F
S11304D0002389F08081815080838081E81659F05F
S11304E09F2D06C08081815080838081E81619F099
S11304F09F5F9013F7CF31968E2F8C19181770F6D3
S1130500BE01892DD0DE2E2DAE016A2D8B2D93DFF9
S1130510882311F2DF91CF911F910F91FF90EF90FB
S1130520DF90CF90BF90AF909F908F907F90089571
S11305302F923F924F925F926F927F928F929F92EF
S1130540AF92BF92CF92DF92EF92FF920F931F93DD
S1130550CF93DF9300D000D0CDB7DEB7182F6983D7
S11305606A012A834E2D6DB77EB77C836B837981B4
S1130570672E712CE02EF12CA82EB12C93012E0D98
S11305803F1D2F5F3F4F2A193B0929018DB79EB7A5
S1130590821B930B0FB6F8949EBF0FBE8DBF6DB731
S11305A07EB76F5F7F4F4B0183E390E0B7012AD69C
S11305B0562F33243A94320E80E0F401E80FF11DF3
S11305C010828F5F3816C8F7442319F0011140C018
S11305D055C0002351F081E0F401E80FF11D31977B
S11305E060838F5F650F0817B8F74114510421F534
S11305F078C080E090E020E0F501E80FF91FEC0DF1
S1130600FD1DD701A80FB91F8C9180832F5F822F06
S113061090E08615970584F3B6018A8144DE01E0F3
S113062021E0A401632D80E09FDE2394822D90E0DD
S11306308415950548F055C0212C7FEF671A770A79
S11306406A187B08E80CF91C1614170494F2E4CF1A
S113065041E021E030E0842F90E0F401E80FF91F3D
S11306603197B901681B790BCB018E0D9F1D589FE3
S1130670802D112480834F5F041768F741145104BF
S113068021F52FC080E090E020E0F501E80FF91F8C
S1130690EC0DFD1DD701A80FB91F8C9180832F5F2E
S11306A0822F90E08615970584F3B6018A81FBDDDD
S11306B000E021E0A401632D80E056DE2394822D26
S11306C090E08415950548F00CC0212C7FEF671A43
S11306D0770A6A187B08E80CF91C1614170494F2BC
S11306E0E4CF8981811748F083E3F601E10FF11D1E
S11306F080831F5F99819117C0F76B817C810FB64E
S1130700F8947EBF0FBE6DBF0F900F900F900F90A7
S1130710DF91CF911F910F91FF90EF90DF90CF90D9
S1130720BF90AF909F908F907F906F905F904F900D
S11307303F902F9008958F929F92AF92BF92CF9245
S1130740DF92EF92FF920F931F93CF93DF93C82F03
S1130750D62F6A01122FF02E681738F0F601E80F31
S1130760F11D10828F5FD817C8F7E1101FC0AD2E9E
S1130770B12C8C2E912CA814B904BCF1E12C0F2DB2
S1130780212FA6016A2D8C2FD3DE0F2EF3E3EF2E3B
S1130790F02D05E022E0A6016A2D8A2D63DE81E0BA
S11307A0A81AB108A814B9044CF71FC0AC2EB12C78
S11307B08D2E912C8A149B04C4F0EE24E3940F2D07
S11307C0212FA6016D2F8A2DB3DE0F2EF3E3EF2E1A
S11307D0F02D05E022E0A6016A2D8A2D43DE8FEF7D
S11307E0A81AB80A8A149B0444F7DC1740F083E380
S11307F0F601EC0FF11D8083CF5FDC17C8F7DF91A2
S1130800CF911F910F91FF90EF90DF90CF90BF9009
S1130810AF909F908F900895AF92BF92CF92DF9246
S1130820EF92FF920F931F93CF93DF93F82E162F1F
S11308305A01D22FC02FDE2C002379F0ED2C05E0D5
S11308402D2FA501612F8F2D0DDEEC2C2D2FA50151
S1130850612F8F2D07DEC15089F7DF91CF911F9152
S11308600F91FF90EF90DF90CF90BF90AF900895DD
S11308702F923F924F925F926F927F928F929F92AC
S1130880AF92BF92CF92DF92EF92FF920F931F939A
S1130890CF93DF93CDB7DEB727970FB6F894DEBFBB
S11308A00FBECDBF4A012D831C830B832DB73EB7EA
S11308B03F832E83C62ED12CC81AD1083FEFC31A0A
S11308C0D30A8DB79EB78C199D090FB6F8949EBFB5
S11308D00FBE8DBFEDB7FEB731965F01C601880F1D
S11308E0991F2DB73EB7281B390B0FB6F8943EBF9E
S11308F00FBE2DBF8DB79EB701963C01DD205CF184
S113090000E010E0F12CEDD4F501E00FF11F81704F
S11309109078992324F401978E6F9F6F01968083BA
S1130920F3940F2D10E0C016D1066CF700E010E030
S1130930F12C4E2C512CD5D4000F111FF301E00FD4
S1130940F11FB2015FD491838083F3940F2D10E0E3
S1130950C016D10684F7EB81FC81EF2B09F069C046
S113096077C000E010E0512CF501E00FF11F808109
S1130970882331F1F401E50DF11D8081833320F4E6
S113098080818F5F808342C040827801EE0CFF1C1F
S1130990E60CF71CF70180819181009761F4A1D4E2
S11309A069817A812FD4F70191838083F501E00F67
S11309B0F11F10822BC00197F7019183808326C019
S11309C0F401E50DF11D8081882321F0808181509F
S11309D080831CC010827801EE0CFF1CE60CF71C0F
S11309E0F70180819181009769F47BD469817A81D0
S11309F009D4F70191838083F501E00FF11F21E011
S1130A00208304C00197F701918380835394052DBB
S1130A1010E00C151D050CF4A7CFB4018D8143DC47
S1130A20FFEF2F1A3F0A2B813C812216330659F41B
S1130A300FC0212C312C8E2D90E09A8389830F2EA8
S1130A40F3E34F2EF02D1C141D040CF48ACFE5CFD4
S1130A50EE81FF810FB6F894FEBF0FBEEDBF27965F
S1130A600FB6F894DEBF0FBECDBFDF91CF911F91BB
S1130A700F91FF90EF90DF90CF90BF90AF909F9039
S1130A808F907F906F905F904F903F902F9008953C
S1130A90CF93DF93F894A8959FE088E10FB6F8947C
S1130AA0A89581BD0FBE91BD2FEF83ED90E321503A
S1130AB080409040E1F700C00000A895E199FECF86
S1130AC080E090E01DD48A3A9A4A11F4E1DFFECF27
S1130AD0E199FECF8AE090E013D48C3C9C4C11F554
S1130AE0E199FECF88E090E00BD4EC01E199FECFD0
S1130AF086E090E005D48C179D0709F43FC0E19986
S1130B00FECF84E090E0FCD3EC01E199FECFBE017E
S1130B1088E090E0FAD3E199FECFBE0186E090E050
S1130B20F4D32CC0E199FECF61E070E088E090E05E
S1130B30ECD3E199FECF61E070E086E090E0E5D38C
S1130B40E199FECF61E070E084E090E0DED3E199CA
S1130B50FECF60ED70E082E090E0D7D3E199FECF64
S1130B606FED77E080E090E0D0D3E199FECF6CECBC
S1130B707CEC8AE090E0C9D3C1E0D0E083E090E06F
S1130B808CDACE0198DA7894DF91CF91089580DFE2
S1130B90F8D125D2899AC9E8D0E0A8957894209113
S1130BA081003091820020328EE4380738F42F5FC0
S1130BB03F4F309382002093810005C0919810929A
S1130BC082001092810060E1CE0183DA8093880074
S1130BD0813021F4919ACE01E8D2DFCF8230E9F658
S1130BE0919A1092870010928600F89460E1CE01E9
S1130BF039DB882391F288818C3C79F68A818130B3
S1130C0061F689818B3009F49FC038F48130F9F0A2
S1130C1068F08A3009F45BC0C0CF8D3009F42CC170
S1130C2008F4F1C08F3F09F486C1B7CF8B8190E0FF
S1130C30982F88272C81822B90938700809386009D
S1130C40803D910519F0892B09F0A7CFFFCF8B8147
S1130C5090E0982F88272C81822B90938700809393
S1130C608600803D910519F0892B09F096CF8D817E
S1130C7090E0982F88272E81822B90938700809371
S1130C80860014DA609186007091870086179707B2
S1130C9009F483CFE199FECF88E090E036D3E1995F
S1130CA0FECF609186007091870086E090E02DD39E
S1130CB0E199FECF609186007091870084E090E016
S1130CC024D38091860090918700F5D966CF7894DB
S1130CD08B8190E0982F88272C81822B909387001A
S1130CE080938600803D910519F0892B09F055CF3A
S1130CF0898590E0982F88272A85822B90938500F8
S1130D0080938400CCDA8091840090918500892BB3
S1130D1009F443CF78940E8110E0102F00278F81BF
S1130D20082BE8842D8149E950E06FE080E0A0DDE4
S1130D308091840090918500019790938500809321
S1130D408400892B39F729CF78948B8190E0982FF0
S1130D5088272C81822B9093870080938600803D86
S1130D60910519F0892B09F018CF8F8180938300A6
S1130D70888590E0982F88272985822B9093850079
S1130D80809384008CDA8091840090918500892B73
S1130D9009F403CF789480918300813069F018F0CE
S1130DA08230A1F024C0E12C0E812D8149E950E06C
S1130DB06FE080E0BDDB1BC0EE24E3940E812D8147
S1130DC049E950E06FE080E0B3DB11C0E12C0E8113
S1130DD02D8149E950E06FE080E0AADBEE24E39442
S1130DE00E812D8149E950E06FE080E0A1DB809124
S1130DF084009091850001979093850080938400EE
S1130E00892B41F6CACE78948B8190E0982F88275D
S1130E102C81822B9093870080938600803D9105DE
S1130E2019F0892B09F0B9CE898590E0982F88278D
S1130E302A85822B909385008093840030DA8091F8
S1130E40840090918500892B09F4A7CE7894C884F6
S1130E50EF800E812D8149E950E06FE080E0DCDC19
S1130E6080918400909185000197909385008093F0
S1130E708400892B59F791CE78948B8190E0982F38
S1130E8088272C81822B9093870080938600803D55
S1130E90910519F0892B09F080CE8F81809383000E
S1130EA0888590E0982F88272985822B9093850048
S1130EB080938400F4D98091840090918500892BDB
S1130EC009F46BCE789480918300813069F018F036
S1130ED08230A1F024C0E12C0E812D8149E950E03B
S1130EE06FE080E028DC1BC0EE24E3940E812D81AA
S1130EF049E950E06FE080E01EDC11C0E12C0E8176
S1130F002D8149E950E06FE080E015DCEE24E394A4
S1130F100E812D8149E950E06FE080E00CDC809186
S1130F2084009091850001979093850080938400BC
S1130F30892B41F632CE8B8190E0982F88272C8123
S1130F40822B9093870080938600803D910519F051
S1130F50892B09F022CE8D8190E0982F88272E814D
S1130F60822B90938700809386008D3C9B4A09F0E6
S1130F7014CEE199FECF6AEA7AEA80E090E0C5D126
S1130F80FFCF87B38F6387BB84B38F6384BB81B385
S1130F90806F81BB08958091AB0098B3806C8923E6
S1130FA088BB8091AA0095B3806C892385BB80910E
S1130FB0A90092B38F60892382BB0895AC0120E01D
S1130FC030E0FA01E20FF31F9081F901E255FF4F7F
S1130FD090832F5F3F4F2031310599F7089589B7EA
S1130FE0806889BF85B58B6085BD81E383BD7894B6
S1130FF0089590E08F30910510F5FC01ED5EFF4FF0
S11310000994AD9A0895AC9A0895AB9A0895AA9A52
S11310100895A99A0895A89A0895C59A0895C49A16
S11310200895C39A0895C29A0895C19A0895C09ADA
S11310300895979A0895969A0895959A0895949A7A
S113104008951F920F920FB60F9211242F933F937E
S11310504F935F936F937F938F939F93AF93BF93BC
S1131060EF93FF931092AC008091AD00811104C006
S113107092DF83E38093AD008091AC008031B0F4C3
S1131080E091AC00F0E0E255FF4F90818091AD001B
S1131090981718F08091AC00ACDF8091AC008F5FA2
S11310A08093AC008091AC00803150F38091AD000E
S11310B081508093AD00FF91EF91BF91AF919F91CB
S11310C08F917F916F915F914F913F912F910F90ED
S11310D00FBE0F901F90189590E08F30910508F087
S11310E05EC0FC01EE5DFF4F09948091AA0080620E
S11310F08093AA0008958091AA0080618093AA0039
S113110008958091AA0088608093AA000895809130
S1131110AA0084608093AA0008958091AA00826046
S11311208093AA0008958091AA0081608093AA0008
S113113008958091AB0080628093AB000895809104
S1131140AB0080618093AB0008958091AB00886010
S11311508093AB0008958091AB0084608093AB00D2
S113116008958091AB0082608093AB0008958091D4
S1131170AB0081608093AB0008958091A9008068E2
S11311808093A90008958091A90080648093A900A8
S113119008958091A90080628093A90008958091A8
S11311A0A90080618093A9000895FF920F931F9373
S11311B0CF93DF931092AB001092AA001092A90073
S11311C08C01C0E0D0E00F2EFDECFF2EF02DF801D5
S11311D091918F019F9D912D112496959695FE01D5
S11311E0E255FF4F90838081833310F08C2F74DF9E
S11311F02196C031D10559F7DF91CF911F910F91FD
S1131200FF90089597FB072E16F4009406D077FDFF
S113121008D00BD007FC05D03EF4909581959F4FE4
S11312200895709561957F4F0895AA1BBB1B51E1EA
S113123007C0AA1FBB1FA617B70710F0A61BB70B42
S1131240881F991F5A95A9F780959095BC01CD01E7
S113125008958F929F92AF92BF92CF92DF92EF92B6
S1131260FF92CF93DF93EC01688179818A819B811E
S1131270611571058105910521F464E279ED8BE531
S113128097E02DE133EF41E050E05FD049015A018E
S11312909B01AC01A7EAB1E474D06B017C01ACEE14
S11312A0B4EFA501940179D0DC01CB018C0D9D1D17
S11312B0AE1DBF1DB7FF03C00197A109B0488883C5
S11312C09983AA83BB839F77DF91CF91FF90EF909F
S11312D0DF90CF90BF90AF909F908F900895B9DF2B
S11312E0089580E690E0B5DF0895A0E0B0E0809333
S11312F0600090936100A0936200B093630008952E
S1131300A8E1B0E042E050E005C012D0272F11C0A0
S1131310DC01CB01FC01E199FECF06C0FFBBEEBBB3
S1131320E09A31960DB20D9241505040B8F70895AD
S1131330262FE199FECF9FBB8EBB2DBB0FB6F89431
S1131340E29AE19A0FBE01960895052E97FB16F4D2
S113135000940FD057FD05D024D007FC02D046F4EA
S113136008C050954095309521953F4F4F4F5F4FA2
S1131370089590958095709561957F4F8F4F9F4FFD
S1131380089531D0A59F900DB49F900DA49F800D1A
S1131390911D11240895B7FFF4CFF3DF821B930B43
S11313A00895A1E21A2EAA1BBB1BFD010DC0AA1FA2
S11313B0BB1FEE1FFF1FA217B307E407F50720F0BA
S11313C0A21BB30BE40BF50B661F771F881F991F35
S11313D01A9469F760957095809590959B01AC017E
S11313E0BD01CF010895A29FB001B39FC001A39F87
S11313F001D0B29F700D811D1124911D0895F894A0
S1051400FFCF18
S107140201000000E1
S9030000FC
