S00C00006D61696E2E7372656373
S113000030C04AC049C046C147C046C045C044C0CC
S113001043C042C041C040C03FC03EC03DC03CC0E0
S11300203BC03AC039C016C117C118C119C11AC1A1
S11300301BC11CC11DC11EC11FC120C121C122C1C0
S113004023C124C17BC180C185C18AC18FC194C130
S113005099C19EC1A3C1A8C1ADC1B2C1B7C1BCC140
S1130060C1C111241FBECFE5D4E0DEBFCDBF20E067
S1130070A0E6B0E001C01D92A938B207E1F710E094
S1130080A0E6B0E0E0E4F0E102C005900D92A036F5
S1130090B107D9F702D0D2C7B3CFA8959CE088E1C5
S11300A00FB6F894A89581BD0FBE91BDA4D0C0D061
S11300B08A98929A899A78942FEF81EE94E021504D
S11300C080409040E1F700C00000E12C02E028E00D
S11300D044E650E06EE080E04CD2EE24E39428E065
S11300E044E650E06EE080E044D26894EE24E1F807
S11300F028E044E650E06EE080E03BD20F2EF3E0CF
S1130100EF2EF02D28E044E650E06EE080E031D29E
S11301100F2EF2E3EF2EF02D00E023E043E06FE03A
S113012080E03BD764E670E084E690E026D6E12CDC
S11301300AE028E044E650E061E080E068D50F2E54
S1130140F2E3EF2EF02D00E023E044E061E080E0F4
S113015024D764E670E084E690E00FD6E12C08E052
S11301602AE044E650E06BE082E0E0D464E670E02C
S113017084E690E002D60F2EF2E3EF2EF02D00E09D
S113018023E044E06CE08CE008D764E670E084E6A9
S113019090E0F3D523E044E06DE08DE0FED623E06B
S11301A044E06EE08EE0F9D664E670E084E690E028
S11301B0E4D5C12C03E025E044E650E06BE082E0A6
S11301C078D664E670E084E690E0D7D5A12C0F2EB3
S11301D0F2E3CF2EF02D0F2EF6E0EF2EF02D2AE0D5
S11301E044E650E06BE082E0B1D264E670E088EC73
S11301F090E0C3D56ACF87B38F6387BB84B38F6323
S113020084BB81B3806F81BB08958091750098B3DE
S1130210806C892388BB8091740095B3806C89239A
S113022085BB8091770092B38F60892382BB089548
S113023089B7806889BF85B58B6085BD82E383BD3E
S11302407894089590E08F30910510F5FC01ED5EEF
S1130250FF4F0994AD9A0895AC9A0895AB9A089506
S1130260AA9A0895A99A0895A89A0895C59A0895EE
S1130270C49A0895C39A0895C29A0895C19A089594
S1130280C09A0895979A0895969A0895959A08950C
S1130290949A08951F920F920FB60F9211242F93E0
S11302A03F934F935F936F937F938F939F93AF93FA
S11302B0BF93EF93FF931092880080917600811191
S11302C004C0A3DF82E380937600809188008031AC
S11302D0B0F4E0918800F0E0E858FF4F90818091FD
S11302E07600981718F080918800ACDF8091880020
S11302F08F5F8093880080918800803150F38091D3
S11303007600815080937600FF91EF91BF91AF9179
S11303109F918F917F916F915F914F913F912F9119
S11303200F900FBE0F901F90189590E08F3091059D
S113033008F05EC0FC01EE5DFF4F099480917400EB
S1130340806280937400089580917400806180932A
S113035074000895809174008860809374000895F7
S11303608091740084608093740008958091740077
S113037082608093740008958091740081608093FA
S113038074000895809175008062809375000895CB
S11303908091750080618093750008958091750047
S11303A088608093750008958091750084608093BF
S11303B0750008958091750082608093750008959A
S11303C08091750081608093750008958091770015
S11303D0806880937700089580917700806480938B
S11303E07700089580917700806280937700089564
S11303F08091770080618093770008950F931F9315
S1130400CF93DF93109275001092740010927700CE
S11304108C01C0E0D0E0F80181918F01FE01E85821
S1130420FF4F80838081823310F08C2F7EDF2196F2
S1130430C031D10581F7DF91CF911F910F910895BC
S1130440CF93C82FCB01DADFCC2359F090E0A895E5
S1130450EFE1FEE43197F1F700C000009F5F9C13C9
S1130460F6CFCF9108956F927F928F929F92AF9221
S1130470BF92CF92DF92EF92FF920F931F93CF938D
S1130480DF93162F181B222309F44EC07A01E80EBD
S1130490F11CEFEFE10FF0E0CF0101968E0D9F1DEF
S11304A0112319F0782F392F02C07E2D3F2DC72E2E
S11304B0D32EEA01C60FD11DE095F095EC0FFD1F78
S11304C0112319F06E2F3F2F02C06C2F3D2F462FA2
S11304D0532F9C2E5E013FEFA31AB30AB7016F5F3F
S11304E07F4F7E2C8F2C01110FC0F70160801123E8
S11304F041F0DB01E72DF82D3D9131938E179F07D5
S1130500D9F7F60160820EC06880112349F0D50145
S1130510EC2FFD2F32913E93392D3E1B3117D0F332
S1130520FA0160822150F9F6DF91CF911F910F916A
S1130530FF90EF90DF90CF90BF90AF909F908F90FF
S11305407F906F900895681BFA01E80FF11D3081C8
S113055032130BC0319680E003C09191931307C00E
S11305608F5F6817D0F781E0089580E0089580E0F8
S113057008957F928F929F92AF92BF92CF92DF9213
S1130580EF92FF920F931F93CF93DF93F82E162FC2
S1130590922ED02F681748F0982FE92FF0E0EC59ED
S11305A0FF4F10829F5F1917C0F7E11025C06A0141
S11305B0CF0CD11CC0E017C0F601C08300E021E0DD
S11305C044E650E0612F8F2D4EDF64E670E0892D04
S11305D037DFDD2341F090E0C23309F4C1E3CF5F9C
S11305E09F5F9D13F9CF22E344E650E0612F8F2DE6
S11305F0AADF882309F39CC0F1E0EF1226C06A0148
S1130600C10ED11CC0E0E12C17C0F601C08301E08B
S113061021E044E650E0612F8F2D25DF64E670E091
S1130620892D0EDFDD2341F09E2DC23309F4C1E391
S1130630CF5F9F5F9D13F9CF22E344E650E0612F23
S11306408F2D81DF882309F373C0812F8F1990E0E8
S113065001969C0112F42F5F3F4F359527958F2CFF
S1130660820E77247394780CF2E0EF1231C05A01B1
S1130670A70CB11C6A01C80CD11CC0E020C0F50154
S1130680C083F601C08301E021E044E650E0682D18
S11306908F2DE9DE00E021E044E650E0612F872D54
S11306A0E2DE64E670E0892DCBDEDD2341F080E0FC
S11306B0C23309F4C1E3CF5F8F5F8D13F9CF22E317
S11306C044E650E0612F8F2D3EDF8823C1F230C015
S11306D05A01AF0CB11C6A01C10ED11CC0E020C08C
S11306E0F501C083F601C08300E021E044E650E058
S11306F0682D8F2DB8DE01E021E044E650E0612F43
S1130700872DB1DE64E670E0892D9ADEDD2341F0A9
S113071090E0C23309F4C1E3CF5F9F5F9D13F9CF2B
S113072022E344E650E0612F8F2D0DDF8823C1F2D0
S1130730DF91CF911F910F91FF90EF90DF90CF90B9
S1130740BF90AF909F908F907F9008955F926F922B
S11307507F928F929F92AF92BF92CF92DF92EF924D
S1130760FF920F931F93CF93DF93D82F162F4A0135
S1130770722E602E681738F0F401E80FF11DE08244
S11307808F5F1817C8F79D2F9A0D9D1740F08D2F76
S1130790F401E80FF11DC0828F5F9817C8F761104C
S11307A02FC042C0C52D64E670E0872D49DEF601F6
S11307B08081882361F001E021E0A401612F8D2F65
S11307C052DECF5F8C2F90E08E159F0564F3C52D0C
S11307D064E670E0872D34DEF5018081882361F0C2
S11307E0052D21E0A401612F8D2F3DDECF5F8C2FDD
S11307F090E08E159F0564F36A94611010C014C0D4
S1130800C12ED12C8D2F90E07601E81AF90AEA184E
S1130810F108512CC80CD91C5401A80EB91E1E1481
S11308201F040CF4BFCFE8CF1D1740F082E3F4019E
S1130830ED0FF11D8083DF5F1D17C8F7DF91CF91A6
S11308401F910F91FF90EF90DF90CF90BF90AF90EA
S11308509F908F907F906F905F9008959F92AF923A
S1130860BF92CF92DF92EF92FF920F931F93CF9399
S1130870DF93D82EC62EB22E162F181BEA01C80FEE
S1130880D11D9C2EAD2EF12C31C0E92DFA2D808185
S11308908E1588F4002309F18F5F8083E816E9F050
S11308A03F2D05C090819F5F9083E916B1F03F5FB3
S11308B03013F8CF12C0E81680F4002371F0815091
S11308C08083E81651F08F2D05C09081915090835C
S11308D0E91619F08F5F8013F8CF31968E2F8C1B99
S11308E01817A8F664E670E08B2DAADD2E2D44E6D9
S11308F050E06C2D8D2D27DE882339F2DF91CF91C6
S11309001F910F91FF90EF90DF90CF90BF90AF9029
S11309109F9008952F923F924F925F926F927F9291
S11309208F929F92AF92BF92CF92DF92EF92FF92FB
S11309300F931F93CF93DF9300D000D01F92CDB7B6
S1130940DEB7182F462E5D834C8329838DB79EB75F
S11309509B838A83C62ED12C202F30E0812E912CAC
S11309603601620E731E9FEF691A790A68187908B6
S1130970ADB7BEB7A619B7090FB6F894BEBF0FBE80
S1130980ADBF8DB79EB701965C0182E390E0B901DB
S11309902ED3762F55245A94560C80E0F501E80F97
S11309A0F11D10828F5F5816C8F7EE2019F001115F
S11309B045C05AC0002351F081E0F501E80FF11D54
S11309C0319760838F5F670F0817B8F7611471045C
S11309D019F582C080E090E0222DF401E80FF91FA0
S11309E0D701A80FB91F8C9180832F5F822F90E0CD
S11309F08C159D0594F364E670E0898121DD01E0A6
S1130A0021E0A501652D822D2EDD3394832D90E008
S1130A108615970578F060C0312C9FEFC91AD90A62
S1130A20C818D908212CAC81BD818A0E9B1E750182
S1130A30E20EF31E1C141D046CF2DDCF61E041E0F4
S1130A4050E0862F90E0F501E80FF91F3197DA01A5
S1130A50A81BB90BCD01820F931F789F802D112401
S1130A6080836F5F061768F76114710419F534C049
S1130A7080E090E0222DF401E80FF91FD701A80FC0
S1130A80B91F8C9180832F5F822F90E08C159D0578
S1130A9094F364E670E08981D3DC022D21E0A501A2
S1130AA0652D822DE0DC3394832D90E08615970527
S1130AB078F012C0312CBFEFCB1ADB0AC818D90862
S1130AC0212C8C819D81880E991E7501E20EF31EE6
S1130AD01C141D046CF2DDCF411648F082E3E12FB3
S1130AE0F0E0EC59FF4F80831F5F4116C0F7AA81E5
S1130AF0BB810FB6F894BEBF0FBEADBF0F900F9071
S1130B000F900F900F90DF91CF911F910F91FF9055
S1130B10EF90DF90CF90BF90AF909F908F907F9099
S1130B206F905F904F903F902F9008958F929F9277
S1130B30AF92BF92CF92DF92EF92FF920F931F93E7
S1130B40CF93DF93C82FD62F6A01122FF02E681788
S1130B5038F0F601E80FF11D10828F5FD817C8F73F
S1130B60E1101FC0AD2EB12C8C2E912CA814B90409
S1130B70BCF1E12C0F2D212FA6016A2D8C2FCADE8A
S1130B800F2EF2E3EF2EF02D05E022E0A6016A2DF0
S1130B908A2D64DE81E0A81AB108A814B9044CF7C0
S1130BA01FC0AC2EB12C8D2E912C8A149B04C4F042
S1130BB0EE24E3940F2D212FA6016D2F8A2DAADE9A
S1130BC00F2EF2E3EF2EF02D05E022E0A6016A2DB0
S1130BD08A2D44DE8FEFA81AB80A8A149B0444F7BE
S1130BE0DC1740F082E3F601EC0FF11D8083CF5F48
S1130BF0DC17C8F7DF91CF911F910F91FF90EF9011
S1130C00DF90CF90BF90AF909F908F9008953F92C8
S1130C104F925F926F927F928F929F92AF92BF9208
S1130C20CF92DF92EF92FF920F931F93CF93DF93B4
S1130C30C82E762EEA01122F302EE11047C00F2E57
S1130C40F2E36F2EF02DC82ED12C4A018C0C9D1C82
S1130C5056017401F4016082BE01812FF1DBF8EFCB
S1130C606F0E8AEF6812F4CF31101EC02AC0F7014C
S1130C700083862D801BF6018083BE01812FE0DB7B
S1130C80085F0833A1F7042D862D801BF7018083AC
S1130C90F4010083BE01812FD3DB085F0833A1F781
S1130CA0539453100CC00DC0512C412CC72CD12C83
S1130CB0CC0EDD1E0F2EF2E36F2EF02D4601042D17
S1130CC0D6CFCA0DDB1D82E3888345C00F2EF2E325
S1130CD0DF2EF02D862E912C5A01A80CB91C34015C
S1130CE07501F501D082BE01812FAADBF8EFDF0E7A
S1130CF08AEFD812F4CF31101EC029C0882D801B72
S1130D00F6018083F7010083BE01812F99DB085F20
S1130D100833A1F7042DF5010083882D801BF7010A
S1130D208083BE01812F8CDB085F0833A1F75394C5
S1130D3053100BC00CC0512C412CD12CCC0EDD1EF9
S1130D400F2EF2E38F2EF02D5601042DD7CFC60DB2
S1130D50D71D82E38883DF91CF911F910F91FF907C
S1130D60EF90DF90CF90BF90AF909F908F907F9047
S1130D706F905F904F903F900895EF92FF920F9382
S1130D801F93CF93DF9332B322E0232722BB009734
S1130D9059F07B018C01C0E0D0E0B70182E050DB68
S1130DA02196C017D107C9F7DF91CF911F910F91F9
S1130DB0FF90EF9008959F92AF92BF92CF92DF92EF
S1130DC0EF92FF920F931F93CF93DF93D82E162F9A
S1130DD0EA01EE2079F0002309F45FC0E22EF12C41
S1130DE0A12C982EBB24B394B60E0F2EF2E3CF2E73
S1130DF0F02D3EC0002309F450C0E22EF12CA12CAA
S1130E00982E0F2EF2E3BF2EF02DCC24C394C60EE1
S1130E1016C0992DFE01E90FF11DB0829F5F1917CD
S1130E20C8F729C0FE01E90FF11D10829F5F9C11D4
S1130E30F9CFBE01C701A1DFA394A01671F11D155E
S1130E4040F71EC0992DFE01E90FF11D10829F5F2E
S1130E501917C8F719C0FE01E90FF11DC0829F5F81
S1130E609B11F9CFBE01C70188DFA394A016A9F096
S1130E701D1540F70EC0BE01C7017FDF992DD2CFEB
S1130E80BE01C7017ADFD5CFBE01C70176DF992D38
S1130E90E2CFBE01C70171DFE5CFDF91CF911F9192
S1130EA00F91FF90EF90DF90CF90BF90AF909F9005
S1130EB008957F928F929F92AF92BF92CF92DF92CA
S1130EC0EF92FF920F931F93CF93DF93F82EB62EDA
S1130ED0EA01A22E902E1E2DCC2059F0C62ED12C24
S1130EE0C81AD1088FEFC81AD80A1C141D0424F19B
S1130EF03CC0C62ED12CC81AD1088FEFC81AD80A04
S1130F001C141D0494F58F2CEE24E394092D2A2D32
S1130F10AE01682D882D4FDF982DFE01E90FF11DDC
S1130F2010839F5F8916C8F78394882D8F1990E0EA
S1130F308C159D054CF319C0712C8B2C8718EE244D
S1130F40E394092D2A2DAE01682D882D34DF982DC8
S1130F50FE01E90FF11D10839F5F8916C8F7739492
S1130F60872D90E08C159D0544F3BF1440F082E377
S1130F70FE01EF0DF11D8083F394BF14C8F7DF91D8
S1130F80CF911F910F91FF90EF90DF90CF90BF9082
S1130F90AF909F908F907F900895CF92DF92EF92C1
S1130FA0FF920F931F93CF93DF93F82E162FD42F16
S1130FB0C22FC02EDE2C222389F0EC2C05E02D2F2D
S1130FC044E650E0612F8F2D49DCED2C2D2F44E6B3
S1130FD050E0612F8F2D42DCC15079F7DF91CF9122
S1130FE01F910F91FF90EF90DF90CF90089597FBA2
S1130FF0072E16F4009406D077FD08D00BD007FC1A
S113100005D03EF4909581959F4F08957095619514
S11310107F4F0895AA1BBB1B51E107C0AA1FBB1F2A
S1131020A617B70710F0A61BB70B881F991F5A9570
S1131030A9F780959095BC01CD010895F894FFCF50
S9030000FC
