:100000000C9434000C9446000C9446000C9446006A
:100010000C9446000C9446000C9446000C94460048
:100020000C9446000C9446000C9446000C94460038
:100030000C9446000C9446000C9446000C94460028
:100040000C9446000C9446000C9446000C94460018
:100050000C9446000C9446000C9446000C94460008
:100060000C9446000C94460011241FBECFEFD8E03C
:10007000DEBFCDBF21E0A0E0B1E001C01D92A038FD
:10008000B207E1F70E9406010C94E1010C94000014
:10009000579A5F9A9093C5008093C40088E080933C
:1000A000C1008EE08093C2000895E1ECF0E0808111
:1000B000877F8083519A59988FED91E00197F1F7EE
:1000C00000C00000599A90E49A95F1F78081886009
:1000D00080830895FF920F931F93CF93DF93E1ECFA
:1000E000F0E080818F7D80830E9455001092C600D1
:1000F00041E050E017E090E0C6ECD0E0E0ECF0E04A
:10010000F12C00E030C0D901AA0FBB1FAA0FBB1F02
:10011000AA0FBB1FA60FB71FA050BF4F8C9188839B
:10012000808185FFFDCF2150310968F7BA012F2D5D
:10013000302FD901AA0FBB1FAA0FBB1FAA0FBB1FCD
:10014000A60FB71FA050BF4F8C918883808185FF79
:10015000FDCF2F5F3F4F2830310559F74E5F5F4F7E
:1001600049305105D1F1BA0161507109212F392F60
:10017000CACFD901AA0FBB1FAA0FBB1FAA0FBB1F53
:10018000A60FB71FA050BF4F8C918883808185FF39
:10019000FDCF2F5F3F4F2031310559F7BA012F2D89
:1001A000302FD901AA0FBB1FAA0FBB1FAA0FBB1F5D
:1001B000A60FB71FA050BF4F8C918883808185FF09
:1001C000FDCF215031092730310559F742505109EF
:1001D0004E3F8FEF580771F413C046E050E0122FE6
:1001E000932FC6ECD0E0E0ECF0E00F2EFFE0FF2E06
:1001F000F02D00E0BA016F5F7F4F212F392FB9CF6B
:10020000DF91CF911F910F91FF90089583E090E0CF
:100210000E94480080E00E9442010E946A00D0E0F3
:10022000CD2F8D2F0E9442010E946A004C2F63E067
:1002300087E00E9462010E946A002FEF80E792E04F
:10024000215080409040E1F700C00000CF5FC830EF
:1002500041F7C7E08D2F0E9442010E946A004C2F97
:1002600063E087E00E9462010E946A002FEF80E74E
:1002700092E0215080409040E1F700C00000C15062
:1002800048F7CECF60E070E0A0E090E010C0FA0147
:10029000E20FF31FE050FF4F80832F5F3F4F283066
:1002A0003105A9F76F5F7F4F6031710551F02A2F3B
:1002B000392FAB01440F551F440F551F440F551FD5
:1002C000E6CF08954F925F927F928F929F92AF9266
:1002D000BF92CF92DF92EF92FF920F931F93CF9333
:1002E000DF93262F30E0682F70E0229FD001239FFC
:1002F000B00DB00D1124889FA00DB11D11242D014A
:10030000449F401851081124812C912CE401C61BF4
:10031000D70B821A930A880C991CA12CB12C00E0EF
:1003200010E0CC0FDD1FC12C712CDD24DA942CC021
:10033000229FC001239F900D900D11248E0F9F1FAF
:10034000840F951F860F971F840D951D01960397A7
:1003500068F4C901880F991F880F991F880F991F8A
:100360008E0D9F1D80509F4FDC01DC922F5F3F4F11
:100370004C0F5D1F20313105D9F60F5F1F4FA80CC0
:10038000B91C0830110569F07801009FF001019F48
:10039000F00DF00D1124B5014C2D572D2C2D372DBE
:1003A000C7CFDF91CF911F910F91FF90EF90DF901A
:1003B000CF90BF90AF909F908F907F905F904F9025
:0603C0000895F894FFCF40
:00000001FF
