S00C00006D61696E2E7372656373
S113000019C020C01FC01EC01DC01CC01BC01AC008
S113001019C018C017C016C015C014C013C012C030
S113002011C010C00FC00EC00DC00CC00BC00AC060
S113003009C008C011241FBECFEFD4E0DEBFCDBF7E
S113004002D018C1DDCF83E0D3D083E0DBD084E0DD
S1130050EED0EE24EA940FE72FE34FE16FE081E066
S1130060F4D0E12C00E020E040E060E08FEFEDD040
S11300702FEF80E792E0215080409040E1F700C0EC
S1130080000020E040E06FEF8FE7DFD02FEF80E744
S113009092E0215080409040E1F700C0000020E051
S11300A04FEF6FE78FE3D1D02FEF80E792E021503D
S11300B080409040E1F700C000002FEF4FE76FE36E
S11300C08FE1C3D02FEF80E792E021508040904031
S11300D0E1F700C000000FEF2FE74FE36FE18FE07F
S11300E0B4D02FEF80E792E0215080409040E1F7B8
S11300F000C00000EE24EA940FE72FE34FE16FE025
S113010081E0A3D02FEF80E792E02150804090401F
S1130110E1F700C000000F2EFFE7EF2EF02D0FE3F4
S11301202FE14FE061E080E090D02FEF80E792E094
S1130130215080409040E1F700C000000F2EFFE303
S1130140EF2EF02D0FE12FE041E060E080E07DD064
S11301502FEF80E792E0215080409040E1F700C00B
S113016000000F2EFFE1EF2EF02D0FE021E040E024
S113017060E080E06AD02FEF80E792E02150804079
S11301809040E1F700C000000F2EFFE0EF2EF02DAD
S113019001E020E040E060E080E057D02FEF80E70E
S11301A092E0215080409040E1F700C00000EE242E
S11301B0E39400E020E040E060E080E046D02FEFF0
S11301C080E792E0215080409040E1F700C00000B9
S11301D0E12C20E040E060E080E037D02FEF80E7C2
S11301E092E0215080409040E1F700C0000039CFF8
S11301F09AB190669AB991EA94BD85BD16BC17BCB4
S113020018BC089594B1966094B991EA90938000D3
S113021080938100109285001092840010928900CE
S11302201092880010928B0010928A000895239AED
S1130230539A91EA9093B0008093B1001092B20067
S11302401092B3001092B4000895EF920F9380932C
S1130250B30070E070938B0060938A0050E0509379
S113026089004093880027BD08BDE092B4000F9137
S10B0270EF900895F894FFCF0C
S9030000FC
