:100000000C9449000C9466000C9466000C946600F5
:100010000C9466000C9466000C9466000C946600C8
:100020000C9466000C9466000C9466000C946600B8
:100030000C9466000C9466000C9466000C946600A8
:100040000C9466000C9466000C9466000C94660098
:100050000C9466000C9466000C9466000C94660088
:100060000C9466000C94660017011B011F0123010C
:10007000270132012B012F01CE09DF09F209040A01
:10008000180A450A750AA40AD20AFE0A2D0B5A0B51
:10009000880B11241FBECFEFD8E0DEBFCDBF24E018
:1000A000A4E0B1E001C01D92A432B207E1F711E073
:1000B000A0E0B1E0EAE6F9E102C005900D92A430BB
:1000C000B107D9F70E94AA090C94B30C0C94000054
:1000D0003B9A3A9A4298439808954398429880E20E
:1000E000439A43988150E1F70895439842980097C6
:1000F00049F020E030E0439A43982F5F3F4F82174A
:100100009307C9F70895429A439A439825E090E1EE
:10011000382F392311F0429A01C04298439A4398EC
:1001200096952150A9F795E080E1262F282311F01C
:10013000429A01C04298439A439886959150A9F7F4
:1001400095E080E1242F282311F0429A01C04298C3
:10015000439A439886959150A9F70895EF92FF929C
:100160000F931F93CF93DF93E82EF92E8B010E94FC
:100170006D0001151105E9F0CE2DDF2DE12CF12CDC
:100180009981492F469546954F718881682F6295D0
:10019000669567709370990F990F990F692B8F71FE
:1001A0000E9483008FEFE81AF80A22960E151F05A9
:1001B00039F7C8010E947500DF91CF911F910F910F
:1001C000FF90EF900895EF920F932F710F71AE2D66
:1001D000AF7146175707F0F0FB01EE0FFF1FE80F56
:1001E000F91F2F71302F3295330F307E069506950B
:1001F0000695EA2EEE0CEE0C822F832B80839181E4
:100200009078902B9E2991836F5F7F4F329646178F
:10021000570790F70F91EF900895482F50E048301E
:10022000510500F5FA01EC5CFF4F0C94C70B20E080
:1002300090E030E017C020E090E03FE113C020E004
:100240009FE130E00FC02FE190E030E00BC020E0F4
:100250009FE13FE107C02FE190E03FE103C02FE1C4
:100260009FE13FE1492F4295440F407E832F8F71DC
:100270009695969596952F71220F220F9370842B49
:10028000922B0895CF93DF93EA01C61BD70B211160
:100290001DC0FB01EE0FFF1FE80FF91FA081B18108
:1002A000CD2B61F0BA01660F771F680F791F22818D
:1002B000338121933193E617F707C9F7440F551F90
:1002C000FC01E40FF51FB183A0831CC0FA01EE0FFF
:1002D000FF1FE80FF91FA081B181CD2B61F0AB01A9
:1002E000440F551F480F591F3291229133832283A7
:1002F000E417F507C9F7660F771FFC01E60FF71F34
:10030000B183A083DF91CF9108952F923F924F92B6
:100310005F926F927F928F929F92AF92BF92CF9295
:10032000DF92EF92FF920F931F93CF93DF93CDB79E
:10033000DEB72C970FB6F894DEBF0FBECDBFFA0123
:10034000E61BF70BB32FB127BC77E1F4A22FA02750
:10035000AF71C1F4B32FB370BB0FBB0FBB0FA22F94
:10036000A295A695A770BA2BA12FA370FA2EFF0C09
:10037000FF0CFF0CA02FA295A695A770AF29BA1766
:1003800009F40EC2A82DBC86AB86F32ED22E5E8356
:100390004D837A8369832C01A13051F108F442C066
:1003A000A23009F059C0AB2809F4FAC13A01660C31
:1003B000771C680E791E5B01AA0CBB1CA80EB91E27
:1003C0001F0136942794260E371EC10101969C8387
:1003D0008B831A8619869F012F5F3F4F38872F83A3
:1003E000802F0F2D9E2DE12E1D2DD92EF82E63C1AD
:1003F0008B859C85892B09F4D3C189809A80880CD0
:10040000991C840C951C612C712C5F019FEFA91A1B
:10041000B90A7C826B822D803E80732E812F102F33
:10042000082FD6C02B853C85232B09F4B9C1AD809C
:10043000BE80AA0CBB1CA80EB91E612C712C4F01EA
:100440003FEF831A930A7C826B822D803E807F2C43
:10045000812F102F082F71C08B859C85892B09F463
:100460009FC11F013694279429813A81220E331EA1
:10047000C101880F991F3201680E791E91012F5F0B
:100480003F4F3C832B8302965201A80EB91E1A8659
:100490001986CF01019698878F83802F0F2D9E2D6F
:1004A000E12E1D2DD92EF82E78C1F12CF501D08228
:1004B000718221E0A10169817A81C2010E94420119
:1004C000B401C2010E94AE00EE2051F080E0EFE9DD
:1004D000FFE03197F1F700C000008F5FE812F7CF1F
:1004E000F394CF10E3CFF12CF5011083018321E0C9
:1004F000A10169817A81C2010E944201B401C20155
:100500000E94AE00EE2051F080E0EFE9FFE031976D
:10051000F1F700C000008F5FE812F7CFF394CF101F
:10052000E3CF2B813C812F5F3F4F3C832B838B8517
:100530009C858217930709F433C1C110B6CFF1CF60
:10054000F12CF401D082718220E0A10169817A81CD
:10055000C2010E944201B501C2010E94AE00EE201C
:1005600051F080E0EFE9FFE03197F1F700C00000C3
:100570008F5FE812F7CFF394CF10E3CFF12CF401A3
:100580001083018320E0A10169817A81C2010E9468
:100590004201B501C2010E94AE00EE2051F080E0A0
:1005A000EFE9FFE03197F1F700C000008F5FE8123C
:1005B000F7CFF394CF10E3CF2B813C812F5F3F4FD8
:1005C0003C832B838B859C858217930709F4E8C0B5
:1005D000C110B6CFF1CF912C8E2DEF2CF02E012F24
:1005E000192D982EF3010083F182F5010083F18229
:1005F00020E0A10169817A81C2010E94420121E0CB
:100600004D815E816B817C81C2010E9442016F81BC
:100610007885C2010E94AE00DD2051F080E0EFE954
:10062000FFE03197F1F700C000008F5FD812F7CFDD
:100630001F5FC112D7CF102F0F2DFE2CE92C912C4C
:10064000802F012F192D982EF301F082E182F50100
:10065000F082E18220E0A10169817A81C2010E94D9
:10066000420121E04D815E816B817C81C2010E944B
:1006700042016F817885C2010E94AE00DD2051F0F9
:1006800080E0EFE9FFE03197F1F700C000008F5FF5
:10069000D812F7CF1F5FC112D7CF102F092D298590
:1006A0003A852F5F3F4F3A8729878B859C85821734
:1006B000930709F475C0C1108ECFF1CF912C8E2D08
:1006C000EF2CF02E012F192D982EF3010083F182CB
:1006D000F5010083F18221E0A10169817A81C201E3
:1006E0000E94420120E04D815E816B817C81C201CC
:1006F0000E9442016F817885C2010E94AE00DD2018
:1007000051F080E0EFE9FFE03197F1F700C0000021
:100710008F5FD812F7CF1F5FC112D7CF102F0F2DC9
:10072000FE2CE92C912C802F012F192D982EF301EE
:10073000F082E182F501F082E18221E0A10169818C
:100740007A81C2010E94420120E04D815E816B816D
:100750007C81C2010E9442016F817885C2010E94A2
:10076000AE00DD2051F080E0EFE9FFE03197F1F7D6
:1007700000C000008F5FD812F7CF1F5FC112D7CF24
:10078000102F092D29853A852F5F3F4F3A872987FA
:100790008B859C858217930719F0C1108FCFF2CFFC
:1007A0002C960FB6F894DEBF0FBECDBFDF91CF9170
:1007B0001F910F91FF90EF90DF90CF90BF90AF907F
:1007C0009F908F907F906F905F904F903F902F9071
:1007D0000895CF93DF93FC01DB01918111968C91F9
:1007E000119789278C7701F52081822F8295869534
:1007F0008770292F2370220F220F220F282B8C9114
:10080000982F92959695977011968C911197837069
:10081000880F880F880F892B281306C090818C9130
:1008200089278F7109F48FC0442309F48EC030E00A
:1008300080818F71C82FD0E06C916F7170E06C1760
:100840007D0744F48150982F9F718081807E892B91
:1008500080830AC0C617D7073CF48F5F982F9F711B
:100860008081807E892B80839081292F22952695F7
:10087000277091819370990F990F990F922BC92F1F
:10088000D0E06C91862F82958695877011966C9139
:1008900011976370660F660F660F682B70E06C1718
:1008A0007D0794F49150292F2295220F207E80817C
:1008B0008F71822B80839695969596959370818102
:1008C0008C7F982B918314C0C617D7078CF49F5F39
:1008D000292F2295220F207E80818F71822B808389
:1008E000969596959695937081818C7F982B9183A0
:1008F0009181969596959F71C92FD0E011966C9134
:100900001197669566956F7170E06C177D0754F4CA
:1009100091509F71892F880F880F91819378982B20
:1009200091830CC0C617D7074CF49F5F9F71892F26
:10093000880F880F91819378982B91833F5F4313A1
:1009400077CF80E003C081E001C080E0DF91CF91EC
:1009500008952F923F924F925F926F927F928F9263
:100960009F92AF92BF92CF92DF92EF92FF920F933E
:100970001F93CF93DF93CDB7DEB760970FB6F89490
:10098000DEBF0FBECDBFFA01E61BF70BB32FB127B9
:10099000BC77E1F4A22FA027AF71C1F4B32FB370DD
:1009A000BB0FBB0FBB0FA22FA295A695A770BA2BAA
:1009B000A12FA370FA2EFF0CFF0CFF0CA02FA29505
:1009C000A695A770AF29BA1709F437C2A82DBC861F
:1009D000AB86F12ED02E38872F831A012B018C0184
:1009E00029833A83DB82FC82A13039F060F0A230A7
:1009F00079F4AB2809F0F0C020C28B859C85892B47
:100A000009F07BC01AC22B853C85232B39F415C213
:100A10008B859C85892B09F078C10FC24B01880C0E
:100A2000991C880E991E612C712C9F012F5F3F4FDE
:100A300059018E2DEF2CFD2CD82E89819A81F4013D
:100A40009183808321E0A101B201C8010E9442018B
:100A5000B501C8010E94AE00DD2051F080E0EFE951
:100A6000FFE03197F1F700C000008F5FD812F7CF99
:100A70004C2DBE016D5F7F4FCE0101960E94E903B0
:100A80008823D9F2F982EA82FF81FB8328852C83AF
:100A900089819A81F4019183808321E0A101B201CF
:100AA000C8010E944201B501C8010E94AE00DD20CC
:100AB00051F080E0EFE9FFE03197F1F700C000006E
:100AC0008F5FD812F7CF4C2DBE016D5F7F4FCE01E7
:100AD00001960E94E9038823D9F2FF81F9832885D2
:100AE0002A83FB82EC823FEF631A730A8B859C8515
:100AF0008615970509F0A1CFA0C14A01880C991C61
:100B0000800E911E612C712C9F012F5F3F4F590168
:100B10008E2DEF2CFD2CD82E89819A81F4019183A2
:100B2000808320E0A101B201C8010E944201B50109
:100B3000C8010E94AE00DD2051F080E0EFE9FFE047
:100B40003197F1F700C000008F5FD812F7CF4C2D1E
:100B5000BE016D5F7F4FCE0101960E94E90388239D
:100B6000D9F2F982EA82FF81FB8328852C8389816F
:100B70009A81F4019183808320E0A101B201C80130
:100B80000E944201B501C8010E94AE00DD2051F073
:100B900080E0EFE9FFE03197F1F700C000008F5FE0
:100BA000D812F7CF4C2DBE016D5F7F4FCE0101965D
:100BB0000E94E9038823D9F2FF81F98328852A83DB
:100BC000FB82EC823FEF631A730A8B859C85861546
:100BD000970509F0A1CF31C14A01880C991C880EF4
:100BE000991E3B01660C771C680E791E5F01B69456
:100BF000A794A60EB71E95012F5F3F4F388B2F8706
:100C00001A861986CF0101969E838D83DD86FE8626
:100C1000FE2CEC2C690189819A81F40191838083F7
:100C2000F3019183808320E0A501B201C8010E94F5
:100C3000420121E0A101B601C8010E9442016D817B
:100C40007E81C8010E94AE00FF2051F080E0EFE9F4
:100C5000FFE03197F1F700C000008F5FF812F7CF87
:100C60004E2DBE016D5F7F4FCE0101960E94E903BC
:100C7000882389F2FD85F9832E852A833F813B8372
:100C800088858C8389819A81F40191838083F30123
:100C90009183808320E0A501B201C8010E94420136
:100CA00021E0A101B601C8010E9442016D817E814F
:100CB000C8010E94AE00FF2051F080E0EFE9FFE0A4
:100CC0003197F1F700C000008F5FF812F7CF4E2D7B
:100CD000BE016D5F7F4FCE0101960E94E90388231C
:100CE00089F2FF81F98328852A833D853B838E85A0
:100CF0008C83E985FA853196FA87E9872B853C85CF
:100D00002E173F0709F087CF98C05F01B694A794CC
:100D1000A60EB71EC501880F991F4801880E991E9F
:100D200095012F5F3F4F388B2F8702963801680E51
:100D3000791E1A861986CF0101969E838D83DD86E2
:100D4000FE86FE2CEC2C690189819A81F401918345
:100D50008083F3019183808321E0A501B201C80162
:100D60000E94420120E0A101B601C8010E94420197
:100D70006D817E81C8010E94AE00FF2051F080E0AD
:100D8000EFE9FFE03197F1F700C000008F5FF81244
:100D9000F7CF4E2DBE016D5F7F4FCE0101960E94B1
:100DA000E903882389F2FD85F9832E852A833F8113
:100DB0003B8388858C8389819A81F4019183808328
:100DC000F3019183808321E0A501B201C8010E9453
:100DD000420120E0A101B601C8010E9442016D81DB
:100DE0007E81C8010E94AE00FF2051F080E0EFE953
:100DF000FFE03197F1F700C000008F5FF812F7CFE6
:100E00004E2DBE016D5F7F4FCE0101960E94E9031A
:100E1000882389F2FF81F98328852A833D853B83D6
:100E20008E858C83E985FA853196FA87E9872B854B
:100E30003C852E173F0709F087CF60960FB6F894D0
:100E4000DEBF0FBECDBFDF91CF911F910F91FF90FD
:100E5000EF90DF90CF90BF90AF909F908F907F905A
:100E60006F905F904F903F902F9008952F923F92F8
:100E70004F925F926F927F928F929F92AF92BF92AA
:100E8000CF92DF92EF92FF920F931F93CF93DF9356
:100E9000CDB7DEB72A970FB6F894DEBF0FBECDBF31
:100EA0005C013B012A01122FFA86E9867A01E61AD3
:100EB000F70A0E943A0C27E030E040E050E00E9440
:100EC000A80B862F0E940D019A8389830E943A0CF9
:100ED00027E030E040E050E00E94A80B862F0E94FF
:100EE0000D019C838B8321E0C21659F0C21678F065
:100EF00032E0C31211C089859A85892B09F0A5C0FB
:100F00006FC1E985FA85EF2B09F055C069C12985C4
:100F10003A85232B39F464C189859A85892B09F098
:100F2000FAC05EC16201CC0CDD1CCA0CDB1C812C3A
:100F3000912CF70131967F0129843A8489819A8125
:100F4000F6019183808321E0A201B301C5010E94D3
:100F50004201B701C5010E94AE00112351F080E0AB
:100F6000EFE9FFE03197F1F700C000008F5F181341
:100F7000F7CF402FBE016D5F7F4FCE0101960E94DB
:100F8000E9038823D9F28B819C819A8389830E940B
:100F90003A0C27E030E040E050E00E94A80B862F9A
:100FA0000E940D019C838B83FFEF8F1A9F0A2814E8
:100FB000390421F615C16301CC0CDD1CCA0CDB1C05
:100FC000812C912C97012F5F3F4F790129843A841E
:100FD00089819A81F6019183808320E0A201B30187
:100FE000C5010E944201B701C5010E94AE00112354
:100FF00051F080E0EFE9FFE03197F1F700C0000029
:101000008F5F1813F7CF402FBE016D5F7F4FCE016A
:1010100001960E94E9038823D9F28B819C819A83EF
:1010200089830E943A0C27E030E040E050E00E94C3
:10103000A80B862F0E940D019C838B83FFEF8F1AD4
:101040009F0A2814390421F6CBC06201CC0CDD1CA8
:10105000CA0CDB1C4301880C991C8A0C9B1C1701D1
:1010600036942794260C371C91012F5F3F4F3E8307
:101070002D8318861F82C70101967C0189819A8180
:10108000F60191838083F4019183808320E0A101A4
:10109000B301C5010E94420121E0A2016D817E8160
:1010A000C5010E944201B701C5010E94AE00112393
:1010B00051F080E0EFE9FFE03197F1F700C0000068
:1010C0008F5F1813F7CF402FBE016D5F7F4FCE01AA
:1010D00001960E94E903882389F28B819C819A837F
:1010E00089830E943A0C27E030E040E050E00E9403
:1010F000A80B862F0E940D019C838B832F8138853E
:101100002F5F3F4F38872F8389859A8582179307F2
:1011100009F0B4CF65C0170136942794260C371C0C
:10112000C101880F991F6501C80ED91EF1013196C2
:10113000FE83ED8302964501880E991E18861F8254
:1011400097012F5F3F4F790189819A81F601918341
:101150008083F4019183808321E0A101B301C50163
:101160000E94420120E0A2016D817E81C5010E94A2
:101170004201B701C5010E94AE00112351F080E089
:10118000EFE9FFE03197F1F700C000008F5F18131F
:10119000F7CF402FBE016D5F7F4FCE0101960E94B9
:1011A000E903882389F28B819C819A8389830E9439
:1011B0003A0C27E030E040E050E00E94A80B862F78
:1011C0000E940D019C838B832F8138852F5F3F4FB9
:1011D00038872F8389859A858217930709F0B4CFC2
:1011E0002A960FB6F894DEBF0FBECDBFDF91CF9128
:1011F0001F910F91FF90EF90DF90CF90BF90AF9035
:101200009F908F907F906F905F904F903F902F9026
:1012100008955F926F927F928F929F92AF92BF924A
:10122000CF92DF92EF92FF920F931F93CF93DF93B2
:1012300000D000D0CDB7DEB73C832B83FB01EE0F8F
:10124000FF1FE80FF91F208131813A8329833A81FA
:101250002C8123272C77A9F03C01461B570B4A0110
:101260008FEF881A980A5E2EFF2E5B01EFEFAE1A01
:10127000BE0AA40EB51EAA0CBB1CA60CB71C10E01F
:101280001DC039812B8123272F7131F7232F229500
:1012900026952770AA81A370AA0FAA0FAA0FA22BC6
:1012A0002B81322F3295369537702C812370220F87
:1012B000220F220F232BA213CFCF38C08114910409
:1012C00049F0E52DFF2D89819A8181939193EA154B
:1012D000FB05C9F7B401C3010E94AE000115110559
:1012E00061F080E090E0EFE9FFE03197F1F700C0B6
:1012F0000000019680179107B1F74E2DBE016D5F7A
:101300007F4FCE0101960E94E9038823B9F2C114F0
:10131000D10461F080E090E0EFE9FFE03197F1F770
:1013200000C000000196C816D906B1F70F900F90C3
:101330000F900F90DF91CF911F910F91FF90EF9041
:10134000DF90CF90BF90AF909F908F907F906F90E5
:101350005F9008950E946800E12C00E020E04FE8D3
:1013600051E060E070E084E091E00E94E3000F2E25
:10137000F7E04F2E512C612C712CF02D0E943A0C6D
:101380002DE030E040E050E00E94A80BFB016D3002
:101390007105A0F7E45CFF4F0C94C70BC12C0F2E16
:1013A000FEE1EF2EF12CF02D01E02AE04FE851E0B4
:1013B00060E070E084E091E00E943607DFCF68943F
:1013C000CC24C1F80F2EFEE1EF2EF12CF02D01E020
:1013D0002AE04FE851E060E070E084E091E00E9494
:1013E0003607CCCFCC24C3940F2EFEE1EF2EF12C88
:1013F000F02D01E02AE04FE851E060E070E084E089
:1014000091E00E943607BACF0F2EF3E0CF2EF02DD9
:101410000F2EF4E6EF2EF12CF02D01E02AE04FE83C
:1014200051E060E070E084E091E00E943607A6CFD2
:101430000E943A0CA30192010E94A80B81E0860F42
:101440000E940D018C010E943A0CA30192010E949E
:10145000A80B81E0860F0E940D01812C0F2EF8E76A
:10146000AF2EB12CF02D0F2EF5E0CF2EF02D0F2E3C
:10147000F9E1EF2EF02D9C014FE851E060E070E0C3
:1014800084E091E00E94850179CF0E943A0CA3018B
:1014900092010E94A80B81E0860F0E940D018C0131
:1014A0000E943A0CA30192010E94A80B81E0860FD2
:1014B0000E940D010F2EF3E08F2EF02D0F2EFCE376
:1014C000AF2EB12CF02D0F2EF5E0CF2EF02D0F2EDC
:1014D000F9E1EF2EF02D9C014FE851E060E070E063
:1014E00084E091E00E94850149CF0E943A0CA3015B
:1014F00092010E94A80B81E0860F0E940D018C01D1
:101500000E943A0CA30192010E94A80B81E0860F71
:101510000E940D016894882481F80F2EFCE3AF2E01
:10152000B12CF02D0F2EF5E0CF2EF02D0F2EF9E17E
:10153000EF2EF02D9C014FE851E060E070E084E078
:1015400091E00E9485011ACF0E943A0CA3019201FA
:101550000E94A80B81E0860F0E940D018C010E9461
:101560003A0CA30192010E94A80B81E0860F0E9411
:101570000D01882483940F2EF8E7AF2EB12CF02DA7
:101580000F2EF5E0CF2EF02D0F2EF9E1EF2EF02DDE
:101590009C014FE851E060E070E084E091E00E943F
:1015A0008501ECCE0E943A0CA30192010E94A80B87
:1015B00081E0860F0E940D018C010E943A0CA3016C
:1015C00092010E94A80B81E0860F0E940D01812CE0
:1015D0000F2EF2E3AF2EB12CF02D6894CC24C1F87D
:1015E0000F2EF4E1EF2EF02D9C014FE851E060E06A
:1015F00070E084E091E00E94A904C0CE0E943A0C01
:10160000A30192010E94A80B81E0860F0E940D01A8
:101610008C010E943A0CA30192010E94A80B81E068
:10162000860F0E940D010F2EF3E08F2EF02D0F2E4E
:10163000F9E1AF2EB12CF02D6894CC24C1F80F2E17
:10164000F4E1EF2EF02D9C014FE851E060E070E0F6
:1016500084E091E00E94A90491CE0E943A0CA3017B
:1016600092010E94A80B81E0860F0E940D018C015F
:101670000E943A0CA30192010E94A80B81E0860F00
:101680000E940D01882483940F2EF2E3AF2EB12C1B
:10169000F02D6894CC24C1F80F2EF4E1EF2EF02D3C
:1016A0009C014FE851E060E070E084E091E00E942E
:1016B000A90464CE0E943A0CA30192010E94A80BD7
:1016C00081E0860F0E940D018C010E943A0CA3015B
:1016D00092010E94A80B81E0860F0E940D01689480
:1016E000882481F80F2EF9E1AF2EB12CF02D6894EB
:1016F000CC24C1F80F2EF4E1EF2EF02D9C014FE821
:1017000051E060E070E084E091E00E94A90436CEF0
:10171000C7E00E943A0CA30192010E94A80B81E04D
:10172000860F0E940D010F2EF0EDCF2EF7E0DF2E79
:10173000F02DEE24E3940EE19C014FE851E060E0CF
:1017400070E084E091E00E940909C15011F716CEC3
:10175000052E97FB1EF400940E94BF0B57FD07D087
:101760000E94CD0B07FC03D04EF40C94BF0B509598
:101770004095309521953F4F4F4F5F4F089590957D
:101780008095709561957F4F8F4F9F4F0895EE0F15
:10179000FF1F0590F491E02D0994A1E21A2EAA1BD7
:1017A000BB1BFD010DC0AA1FBB1FEE1FFF1FA21711
:1017B000B307E407F50720F0A21BB30BE40BF50B0E
:1017C000661F771F881F991F1A9469F76095709597
:1017D000809590959B01AC01BD01CF0108958F923A
:1017E0009F92AF92BF92CF92DF92EF92FF92CF93F0
:1017F000DF93EC01688179818A819B816115710594
:101800008105910521F464E279ED8BE597E02DE106
:1018100033EF41E050E00E94A80B49015A019B01BF
:10182000AC01A7EAB1E40E94910C6B017C01ACEE23
:10183000B4EFA50194010E949F0CDC01CB018C0D3B
:101840009D1DAE1DBF1DB7FF03C00197A109B04884
:1018500088839983AA83BB83BC01CD019F77DF91E5
:10186000CF91FF90EF90DF90CF90BF90AF909F907F
:101870008F9008958F929F92AF92BF92CF92DF92F6
:10188000EF92FF926091000170910101809102013D
:1018900090910301611571058105910521F464E2C0
:1018A00079ED8BE597E02DE133EF41E050E00E94C8
:1018B000A80B49015A019B01AC01A7EAB1E40E94BF
:1018C000910C6B017C01ACEEB4EFA50194010E9478
:1018D0009F0CDC01CB018C0D9D1DAE1DBF1DB7FF04
:1018E00003C00197A109B0488093000190930101C2
:1018F000A0930201B0930301BC01CD019F77FF903B
:10190000EF90DF90CF90BF90AF909F908F90089511
:101910006093000170930101809302019093030191
:1019200008950E94A40CA59F900DB49F900DA49FB4
:10193000800D911D11240895B7FF0C94910C0E9405
:10194000910C821B930B0895A29FB001B39FC0011D
:10195000A39F700D811D1124911DB29F700D811DDB
:0A1960001124911D0895F894FFCFA3
:04196A000100000078
:00000001FF
