:100000000C9449000C9466000C9466000C946600F5
:100010000C9466000C9466000C9466000C946600C8
:100020000C9466000C9466000C9466000C946600B8
:100030000C9466000C9466000C9466000C946600A8
:100040000C9466000C9466000C9466000C94660098
:100050000C9466000C9466000C9466000C94660088
:100060000C9466000C94660017011B011F0123010C
:10007000270132012B012F01A709B809CB09DD099E
:10008000F1091E0A4E0A7D0AAB0AD70A060B330B8A
:10009000610B11241FBECFEFD8E0DEBFCDBF24E03F
:1000A000A4E0B1E001C01D92A432B207E1F711E073
:1000B000A0E0B1E0E0E9F8E102C005900D92A430C3
:1000C000B107D9F70E9482090C94460C0C940000E9
:1000D0003B9A3A9A4298439808954398429880E20E
:1000E000439A43988150E1F70895439842980097C6
:1000F00049F020E030E0439A43982F5F3F4F2817A4
:100100003907C9F70895429A439A439825E090E148
:10011000392F382311F0429A01C04298439A4398EC
:1001200096952150A9F795E080E1282F262311F01C
:10013000429A01C04298439A439886959150A9F7F4
:1001400095E080E1282F242311F0429A01C04298C3
:10015000439A439886959150A9F70895EF92FF929C
:100160000F931F93CF93DF93E82EF92E8B010E94FC
:100170006D0001151105E9F0CE2DDF2DE12CF12CDC
:100180009981492F469546954F718881682F6295D0
:10019000669567709370990F990F990F692B8F71FE
:1001A0000E9483008FEFE81AF80A2296E016F10603
:1001B00039F7C8010E947500DF91CF911F910F910F
:1001C000FF90EF900895EF920F932F710F71AE2D66
:1001D000AF7146175707F0F0FB01EE0FFF1FE80F56
:1001E000F91F2F71302F3295330F307E069506950B
:1001F0000695EA2EEE0CEE0C822F832B80839181E4
:100200009078902B9E2991836F5F7F4F329646178F
:10021000570790F70F91EF900895482F50E048301E
:10022000510500F5FA01EC5CFF4F0C94A00B20E0A7
:1002300090E030E017C020E090E03FE113C020E004
:100240009FE130E00FC02FE190E030E00BC020E0F4
:100250009FE13FE107C02FE190E03FE103C02FE1C4
:100260009FE13FE1492F4295440F407E832F8F71DC
:100270009695969596952F71220F220F9370842B49
:10028000922B0895CF93DF93EA01C61BD70B211160
:100290001DC0FB01EE0FFF1FE80FF91FA081B18108
:1002A000CD2B61F0BA01660F771F680F791F22818D
:1002B000338121933193E617F707C9F7440F551F90
:1002C000FC01E40FF51FB183A0831CC0FA01EE0FFF
:1002D000FF1FE80FF91FA081B181CD2B61F0AB01A9
:1002E000440F551F480F591F3291229133832283A7
:1002F000E417F507C9F7660F771FFC01E60FF71F34
:10030000B183A083DF91CF9108952F923F924F92B6
:100310005F926F927F928F929F92AF92BF92CF9295
:10032000DF92EF92FF920F931F93CF93DF93CDB79E
:10033000DEB72C970FB6F894DEBF0FBECDBFFA0123
:10034000E61BF70BB12FB327BC77E1F4A02FA22750
:10035000AF71C1F4B32FB370BB0FBB0FBB0FA22F94
:10036000A295A695A770BA2BA12FA370FA2EFF0C09
:10037000FF0CFF0CA02FA295A695A770AF29BA1766
:1003800009F4E3C1A82DBC86AB86F32ED22E5E8382
:100390004D837A8369831C01A13019F1E8F1A23001
:1003A00009F055C0AB2809F4D0C13A01660C771C9E
:1003B000680E791E2B01440C551C480E591E4F0126
:1003C00096948794860E971EC40101969C838B8316
:1003D0001A861986B12C9F012F5F3F4F38872F83D4
:1003E0004FC18B859C85892B09F4AFC189809A8088
:1003F000880C991C820C931C612C712C512C5F0170
:100400009FEFA91AB90A7C826B826D807E80412E93
:10041000C501A02E8C01D1C02B853C85232B09F46E
:1004200094C1AD80BE80AA0CBB1CA80EB91E612C65
:10043000712C4F013FEF831A930A412C7C826B820F
:100440006D807E80512EC401802E8C016BC08B8507
:100450009C85892B09F479C14F0196948794298151
:100460003A81820E931EC401880F991F3101680ED4
:10047000791E94012F5F3F4F3C832B83029621010D
:10048000480E591E1A861986B12CCF0101969887FD
:100490008F8358C1912CF501D082F18221E0A30114
:1004A00069817A81C1010E944201B801C1010E94A3
:1004B000AE00EE2051F0842DEFE9FFE03197F1F727
:1004C00000C000008F5F8E11F7CF93949C10E3CF94
:1004D000912CF5018082518221E0A30169817A810A
:1004E000C1010E944201B801C1010E94AE00EE208C
:1004F00051F0842DEFE9FFE03197F1F700C00000E3
:100500008F5F8E11F7CF93949C10E3CF2B813C81AA
:100510002F5F3F4F3C832B838B859C8528173907A2
:1005200009F413C1C110B6CFF1CFB52CF401D082BC
:10053000F182252DA30169817A81C1010E944201C6
:10054000B801C1010E94AE00EE2051F0852DEFE907
:10055000FFE03197F1F700C000008F5F8E11F7CFF9
:10056000B394BC10E3CFB52CF401A0824182252DB9
:10057000A30169817A81C1010E944201B801C101D0
:100580000E94AE00EE2051F0852DEFE9FFE031979B
:10059000F1F700C000008F5F8E11F7CFB394BC104D
:1005A000E3CF2B813C812F5F3F4F3C832B838B8597
:1005B0009C852817390709F4C8C0C110B6CFF1CF00
:1005C000AB2CF301D082F182F201D082F1822B2D8B
:1005D000A40169817A81C1010E94420121E04D811B
:1005E0005E816B817C81C1010E9442016F817885AF
:1005F000C1010E94AE00EE2051F08B2DEFE9FFE02B
:100600003197F1F700C000008F5F8E11F7CFA394F0
:10061000AC10D7CFAB2CF30100831183F201008320
:1006200011832B2DA40169817A81C1010E944201AD
:1006300021E04D815E816B817C81C1010E9442017C
:100640006F817885C1010E94AE00EE2051F08B2DA4
:10065000EFE9FFE03197F1F700C000008F5F8E11E6
:10066000F7CFA394AC10D7CF29853A852F5F3F4FA2
:100670003A8729878B859C852817390709F465C037
:10068000C1109ECFF1CFAB2CF301D082F182F201E9
:10069000D082F18221E0A40169817A81C1010E94A6
:1006A00042012B2D4D815E816B817C81C1010E94B5
:1006B00042016F817885C1010E94AE00EE2051F0A9
:1006C0008B2DEFE9FFE03197F1F700C000008F5F5D
:1006D0008E11F7CFA394AC10D7CFAB2CF3010083CE
:1006E0001183F2010083118321E0A40169817A81E1
:1006F000C1010E9442012B2D4D815E816B817C8165
:10070000C1010E9442016F817885C1010E94AE0043
:10071000EE2051F08B2DEFE9FFE03197F1F700C0AB
:1007200000008F5F8E11F7CFA394AC10D7CF29852F
:100730003A852F5F3F4F3A8729878B859C852817FD
:10074000390719F0C1109FCFF2CF2C960FB6F8944D
:10075000DEBF0FBECDBFDF91CF911F910F91FF90F4
:10076000EF90DF90CF90BF90AF909F908F907F9051
:100770006F905F904F903F902F900895CF93DF93AD
:10078000FC01DB0111969C911197818189278C775F
:1007900001F52081822F82958695877021812370B3
:1007A000220F220F220F282B8C91982F929596952D
:1007B000977011968C9111978370880F880F880F0E
:1007C000892B281306C09C91808189278F7109F499
:1007D0008FC0442309F48EC030E080818F71C82F10
:1007E000D0E06C916F7170E06C177D0744F481501C
:1007F000982F9F718081807E892B80830AC0C617C5
:10080000D7073CF48F5F982F9F718081807E892B62
:1008100080839081292F229526952770918193704E
:10082000990F990F990F922BC92FD0E06C91862FB9
:1008300082958695877011966C9111976370660FFB
:10084000660F660F682B70E06C177D0794F491506B
:10085000292F2295220F207E80818F71822B808309
:10086000969596959695937081818C7F982B918320
:1008700014C0C617D7078CF49F5F292F2295220F2B
:10088000207E80818F71822B808396959695969598
:10089000937081818C7F982B918391819695969509
:1008A0009F71C92FD0E011966C911197669566954E
:1008B0006F7170E06C177D0754F491509F71892F10
:1008C000880F880F91819378982B91830CC0C6175D
:1008D000D7074CF49F5F9F71892F880F880F9181F4
:1008E0009378982B91833F5F341377CF80E003C0D8
:1008F00081E001C080E0DF91CF9108952F923F9277
:100900004F925F926F927F928F929F92AF92BF921F
:10091000CF92DF92EF92FF920F931F93CF93DF93CB
:10092000CDB7DEB760970FB6F894DEBF0FBECDBF70
:10093000FA01E61BF70BB12FB327BC77E1F4A02F28
:10094000A227AF71C1F4B32FB370BB0FBB0FBB0FA6
:10095000A22FA295A695A770BA2BA12FA370FA2E4D
:10096000FF0CFF0CFF0CA02FA295A695A770AF2936
:10097000BA1709F430C2A82DBD86AC86F12E0987BE
:1009800038872F831A012B018C0129833A8329850B
:100990002B83FC82A13041F068F0A23081F4C501C4
:1009A000892B09F0EBC017C22C853D85232B09F05C
:1009B00079C011C28C859D85892B39F40CC22C8598
:1009C0003D85232B09F071C106C24B01880C991C8F
:1009D000800E911E612C712CCF0101965C01D12CEF
:1009E00089819A81F4019183808321E0A101B20180
:1009F000C8010E944201B501C8010E94AE00EE206C
:100A000051F08D2DEFE9FFE03197F1F700C00000C4
:100A10008F5F8E11F7CF4C2DBE016D5F7F4FCE01E2
:100A200001960E94BE038823D9F2F985F983FA82E0
:100A30002F812B8338853C8389819A81F4019183AE
:100A4000808321E0A101B201C8010E944201B501E9
:100A5000C8010E94AE00EE2051F08D2DEFE9FFE0BD
:100A60003197F1F700C000008F5F8E11F7CF4C2D4A
:100A7000BE016D5F7F4FCE0101960E94BE038823A9
:100A8000D9F2FF81F98328852A8339853B83FC824B
:100A90008FEF681A780AEC85FD856E167F0609F0DF
:100AA0009FCF99C14A01880C991C880E991E612C10
:100AB000712C9F012F5F3F4F5901D98489819A8101
:100AC000F4019183808320E0A101B201C8010E945A
:100AD0004201B501C8010E94AE00EE2051F080E055
:100AE000EFE9FFE03197F1F700C000008F5F8E1152
:100AF000F7CF4C2DBE016D5F7F4FCE0101960E9456
:100B0000BE038823D9F2D982FA82FF81FB8328852C
:100B10002C8389819A81F4019183808320E0A10153
:100B2000B201C8010E944201B501C8010E94AE0095
:100B3000EE2051F080E0EFE9FFE03197F1F700C0DF
:100B400000008F5F8E11F7CF4C2DBE016D5F7F4F80
:100B5000CE0101960E94BE038823D9F2FF81F9835A
:100B600028852A83DB82FC823FEF631A730A8C8517
:100B70009D856816790609F0A1CF2DC14A01880C20
:100B8000991C800E911E3B01660C771C600E711E35
:100B90005F01B694A794A60EB71E95012F5F3F4F35
:100BA0003E832D831B861A86CF010196988B8F87F3
:100BB000FE86DE2C7C0189819A81F40191838083F9
:100BC000F3019183808320E0A501B201C8010E9456
:100BD000420121E0A1016D817E81C8010E94420194
:100BE000B701C8010E94AE00DD2051F080E0EFE9BE
:100BF000FFE03197F1F700C000008F5F8D11F7CF54
:100C00004C2DBE016D5F7F4FCE0101960E94BE0349
:100C1000882389F2F985F9832E852A833F813B83D6
:100C200088858C8389819A81F40191838083F30183
:100C30009183808320E0A501B201C8010E94420196
:100C400021E0A1016D817E81C8010E944201B701AE
:100C5000C8010E94AE00DD2051F080E0EFE9FFE026
:100C60003197F1F700C000008F5F8D11F7CF4C2D49
:100C7000BE016D5F7F4FCE0101960E94BE038823A7
:100C800089F2FF81F98328852A8339853B838E8504
:100C90008C83EA85FB853196FB87EA872C853D8529
:100CA000E217F30709F087CF96C05F01B694A794C7
:100CB000A60EB71EC501880F991F4801880E991E00
:100CC00095012F5F3F4F3E832D8302963801680EBA
:100CD000791E1B861A86CF010196988B8F87FE8618
:100CE000DE2C7C0189819A81F40191838083F30158
:100CF0009183808321E0A501B201C8010E944201D5
:100D000020E0A1016D817E81C8010E944201B701EE
:100D1000C8010E94AE00DD2051F080E0EFE9FFE065
:100D20003197F1F700C000008F5F8D11F7CF4C2D88
:100D3000BE016D5F7F4FCE0101960E94BE038823E6
:100D400089F2F985F9832E852A833F813B83888543
:100D50008C8389819A81F40191838083F30191834B
:100D6000808321E0A501B201C8010E94420120E078
:100D7000A1016D817E81C8010E944201B701C801B5
:100D80000E94AE00DD2051F080E0EFE9FFE03197F6
:100D9000F1F700C000008F5F8D11F7CF4C2DBE0121
:100DA0006D5F7F4FCE0101960E94BE03882389F2BA
:100DB000FF81F98328852A8339853B838E858C833F
:100DC000EA85FB853196FB87EA872C853D85E2170E
:100DD000F30709F087CF60960FB6F894DEBF0FBE19
:100DE000CDBFDF91CF911F910F91FF90EF90DF90DA
:100DF000CF90BF90AF909F908F907F906F905F90BB
:100E00004F903F902F9008952F923F924F925F9274
:100E10006F927F928F929F92AF92BF92CF92DF920A
:100E2000EF92FF920F931F93CF93DF93CDB7DEB76F
:100E30002A970FB6F894DEBF0FBECDBF5C013B0111
:100E40002A01122FFA86E9867A01E61AF70A0E9429
:100E5000160C27E030E040E050E00E94810B862F26
:100E60000E940D019A8389830E94160C27E030E0CE
:100E700040E050E00E94810B862F0E940D019C8370
:100E80008B8321E0C21659F0C21678F032E0C3120B
:100E900011C089859A85892B09F0A5C06FC1E985A4
:100EA000FA85EF2B09F056C069C129853A85232BB5
:100EB00039F464C189859A85892B09F0FAC05EC12D
:100EC0006201CC0CDD1CCA0CDB1C812C912CF701BF
:100ED00031967F01312C89819A81F601918380833B
:100EE00021E0A201B301C5010E944201B701C50181
:100EF0000E94AE00112351F0832DEFE9FFE03197FE
:100F0000F1F700C000008F5F8113F7CF402FBE01C3
:100F10006D5F7F4FCE0101960E94BE038823D9F2F8
:100F20008B819C819A8389830E94160C27E030E094
:100F300040E050E00E94810B862F0E940D019C83AF
:100F40008B83FFEF8F1A9F0A29853A8582169306B5
:100F500011F614C16301CC0CDD1CCA0CDB1C812C06
:100F6000912CC70101967C0129843A8489819A8158
:100F7000F6019183808320E0A201B301C5010E94A4
:100F80004201B701C5010E94AE00112351F080E07B
:100F9000EFE9FFE03197F1F700C000008F5F8113A8
:100FA000F7CF402FBE016D5F7F4FCE0101960E94AB
:100FB000BE038823D9F28B819C819A8389830E9406
:100FC000160C27E030E040E050E00E94810B862FB5
:100FD0000E940D019C838B83FFEF8F1A9F0A82145E
:100FE000930421F6CBC06201CC0CDD1CCA0CDB1CC7
:100FF0004301880C991C8A0C9B1C1701369427947A
:10100000260C371C91012F5F3F4F3E832D8318869E
:101010001F82C70101967C0189819A81F601918323
:101020008083F4019183808320E0A101B301C50195
:101030000E94420121E0A2016D817E81C5010E94D2
:101040004201B701C5010E94AE00112351F080E0BA
:10105000EFE9FFE03197F1F700C000008F5F8113E7
:10106000F7CF402FBE016D5F7F4FCE0101960E94EA
:10107000BE03882389F28B819C819A8389830E9495
:10108000160C27E030E040E050E00E94810B862FF4
:101090000E940D019C838B832F8138852F5F3F4FEA
:1010A00038872F8389859A852817390709F0B4CFA7
:1010B00065C0170136942794260C371CC101880F90
:1010C000991F6501C80ED91EF1013196FE83ED838B
:1010D00002964501880E991E18861F8297012F5F80
:1010E0003F4F790189819A81F60191838083F401D0
:1010F0009183808321E0A101B301C5010E944201D7
:1011000020E0A2016D817E81C5010E944201B701EC
:10111000C5010E94AE00112351F080E0EFE9FFE02D
:101120003197F1F700C000008F5F8113F7CF402F98
:10113000BE016D5F7F4FCE0101960E94BE038823E2
:1011400089F28B819C819A8389830E94160C27E007
:1011500030E040E050E00E94810B862F0E940D019C
:101160009C838B832F8138852F5F3F4F38872F8358
:1011700089859A852817390709F0B4CF2A960FB6C2
:10118000F894DEBF0FBECDBFDF91CF911F910F91BD
:10119000FF90EF90DF90CF90BF90AF909F908F9097
:1011A0007F906F905F904F903F902F9008952F9277
:1011B0003F924F925F926F927F928F929F92AF92E7
:1011C000BF92CF92DF92EF92FF920F931F93CF9334
:1011D000DF9300D000D0CDB7DEB74C013C832B832A
:1011E000FB01EE0FFF1FE80FF91F808191819A83A9
:1011F00089839C818A8198279C77A9F0461B570B8D
:101200003A018FEF681A780A19F0562CF72C02C0B1
:10121000512CF12C5A0182E0A80EB11C2E2E3F2E2B
:1012200010E0412C1CC09B81898189278F7131F787
:101230002981822F8295869587702A812370220FBB
:10124000220F220F282B9295969597708C81837090
:10125000880F880F880F892B2813D0CF3CC06114CA
:10126000710461F0E22DF32D81E090E029813A8153
:101270002193319301968A159B05C1F7652D7F2D2A
:10128000C4010E94AE000115110561F080E0942DAB
:10129000EFE9FFE03197F1F700C0000001968017F9
:1012A0009107B1F74E2DBE016D5F7F4FCE010196C4
:1012B0000E94BE03882399F2C114D10461F080E03A
:1012C00090E0EFE9FFE03197F1F700C000000196F0
:1012D0008C159D05B1F70F900F900F900F90DF9137
:1012E000CF911F910F91FF90EF90DF90CF90BF9023
:1012F000AF909F908F907F906F905F904F903F90B6
:101300002F9008950E946800E12C00E020E04FE853
:1013100051E060E070E084E091E00E94E300C7E00B
:101320000F2EF7E04F2E512C612C712CF02D0E94C6
:10133000160C2DE030E040E050E00E94810BFB01F4
:101340006D307105A0F7E45CFF4F0C94A00BC12C2D
:101350000F2EFEE1EF2EF12CF02D01E02AE04FE8F8
:1013600051E060E070E084E091E00E940407DFCF8C
:101370006894CC24C1F80F2EFEE1EF2EF12CF02D55
:1013800001E02AE04FE851E060E070E084E091E0A5
:101390000E940407CCCFCC24C3940F2EFEE1EF2E85
:1013A000F12CF02D01E02AE04FE851E060E070E020
:1013B00084E091E00E940407BACF0F2EF3E0CF2E15
:1013C000F02D0F2EF4E6EF2EF12CF02D01E02AE0A7
:1013D0004FE851E060E070E084E091E00E94040793
:1013E000A6CF0E94160CA30192010E94810B81E0FE
:1013F000860F0E940D018C010E94160CA301920120
:101400000E94810B81E0860F0E940D01812C0F2E1E
:10141000F8E7AF2EB12CF02D0F2EF5E0CF2EF02DEA
:101420000F2EF9E1EF2EF02D9C014FE851E060E026
:1014300070E084E091E00E94850179CF0E94160C53
:10144000A30192010E94810B81E0860F0E940D0191
:101450008C010E94160CA30192010E94810B81E075
:10146000860F0E940D010F2EF3E08F2EF02D0F2E10
:10147000FCE3AF2EB12CF02D0F2EF5E0CF2EF02D8A
:101480000F2EF9E1EF2EF02D9C014FE851E060E0C6
:1014900070E084E091E00E94850149CF0E94160C23
:1014A000A30192010E94810B81E0860F0E940D0131
:1014B0008C010E94160CA30192010E94810B81E015
:1014C000860F0E940D016894882481F80F2EFCE39A
:1014D000AF2EB12CF02D0F2EF5E0CF2EF02D0F2ECC
:1014E000F9E1EF2EF02D9C014FE851E060E070E053
:1014F00084E091E00E9485011ACF0E94160CA3019E
:1015000092010E94810B81E0860F0E940D018C01E7
:101510000E94160CA30192010E94810B81E0860FAC
:101520000E940D01882483940F2EF8E7AF2EB12C72
:10153000F02D0F2EF5E0CF2EF02D0F2EF9E1EF2E2E
:10154000F02D9C014FE851E060E070E084E091E014
:101550000E948501ECCE0E94160CA30192010E940C
:10156000810B81E0860F0E940D018C010E94160CF8
:10157000A30192010E94810B81E0860F0E940D0160
:10158000812C0F2EF2E3AF2EB12CF02D6894CC24D9
:10159000C1F80F2EF4E1EF2EF02D9C014FE851E041
:1015A00060E070E084E091E00E947E04C0CE0E9482
:1015B000160CA30192010E94810B81E0860F0E940C
:1015C0000D018C010E94160CA30192010E94810B57
:1015D00081E0860F0E940D010F2EF3E08F2EF02D7B
:1015E0000F2EF9E1AF2EB12CF02D6894CC24C1F868
:1015F0000F2EF4E1EF2EF02D9C014FE851E060E05A
:1016000070E084E091E00E947E0491CE0E94160C6E
:10161000A30192010E94810B81E0860F0E940D01BF
:101620008C010E94160CA30192010E94810B81E0A3
:10163000860F0E940D01882483940F2EF2E3AF2EB3
:10164000B12CF02D6894CC24C1F80F2EF4E1EF2ECC
:10165000F02D9C014FE851E060E070E084E091E003
:101660000E947E0464CE0E94160CA30192010E9487
:10167000810B81E0860F0E940D018C010E94160CE7
:10168000A30192010E94810B81E0860F0E940D014F
:101690006894882481F80F2EF9E1AF2EB12CF02D3B
:1016A0006894CC24C1F80F2EF4E1EF2EF02D9C01AC
:1016B0004FE851E060E070E084E091E00E947E0439
:1016C00036CEDC2F0E94160CA30192010E94810BE2
:1016D00081E0860F0E940D010F2EF0EDCF2EF7E076
:1016E000DF2EF02DEE24E3940EE19C014FE851E053
:1016F00060E070E084E091E00E94D708D15011F7DB
:1017000016CE052E97FB1EF400940E94980B57FDF1
:1017100007D00E94A60B07FC03D04EF40C94980B44
:1017200050954095309521953F4F4F4F5F4F08950D
:1017300090958095709561957F4F8F4F9F4F08953D
:10174000EE0FFF1F0590F491E02D0994A1E21A2EEF
:10175000AA1BBB1BFD010DC0AA1FBB1FEE1FFF1F55
:10176000A217B307E407F50720F0A21BB30BE40BA5
:10177000F50B661F771F881F991F1A9469F76095EC
:101780007095809590959B01AC01BD01CF010895A6
:101790008F929F92AF92BF92CF92DF92EF92FF9281
:1017A000CF93DF93EC01688179818A819B816115F8
:1017B00071058105910521F464E279ED8BE597E0EF
:1017C0002DE133EF41E050E00E94810B49015A01C5
:1017D0009B01AC01A7EAB1E40E94240C6B017C01DF
:1017E000ACEEB4EFA50194010E94320CDC01CB01F8
:1017F0008C0D9D1DAE1DBF1DB7FF03C00197A10934
:10180000B04888839983AA83BB83BC01CD019F77AD
:10181000DF91CF91FF90EF90DF90CF90BF90AF908E
:101820009F908F9008950E94C80B089580E091E0EA
:101830000E94C80B0895609300017093010180938A
:1018400002019093030108950E94370CA59F900D0B
:10185000B49F900DA49F800D911D11240895B7FF92
:101860000C94240C0E94240C821B930B0895A29FBD
:10187000B001B39FC001A39F700D811D1124911D64
:10188000B29F700D811D1124911D0895F894FFCF12
:041890000100000053
:00000001FF
